:020000040800F2
:10000000E00E0020350200088F3E0008E13A0008AB
:100010008D3E0008331E0008F54100080000000076
:10002000000000000000000000000000933E0008F7
:10003000351E000800000000913E0008953E0008B3
:100040004F0200084F0200084F0200084F0200084C
:100050004F0200084F0200084F0200084F0200083C
:100060004F0200084F0200084F0200084F0200082C
:100070004F0200084F0200084F0200084F0200081C
:100080004F0200084F0200084F0200084F0200080C
:100090004F0200084F0200084F0200084F020008FC
:1000A0004F0200084F0200084F0200084F020008EC
:1000B0004F0200084F0200084F0200084F020008DC
:1000C0004F0200084F0200084F0200084F020008CC
:1000D0004F0200087D410008B5410008E9410008D1
:1000E0004F0200084F0200084F02000800F002F81B
:1000F00000F090F80AA090E8000C82448344AAF132
:100100000107DA4501D100F085F8AFF2090EBAE82F
:100110000F0013F0010F18BFFB1A43F0010318473B
:1001200090720000B0720000103A24BF78C878C105
:10013000FAD8520724BF30C830C144BF04680C60ED
:10014000704700000023002400250026103A28BF35
:1001500078C1FBD8520728BF30C148BF0B60704739
:100160006E2900F02A84702900F08581662906F046
:100170001B85652906F01885672906F01585612914
:1001800006F0148503681B0A28BF41F08001692925
:1001900000F0F680642900F0F380752900F0F0800B
:1001A0006F2900F01885782900F05181E92900F0C5
:1001B000B384E42900F0B084F52900F0AD84EF2980
:1001C00000F01585F82900F050810368DB0928BF8D
:1001D00041F08001632900F03484732900F03984F0
:1001E000E32901F04381F32901F0488100207047A1
:1001F0001FB500F05BFD04000020002106F0A8FC04
:10020000401C60600020002106F0B8FCE0601FBDCB
:1002100010B510BD01F064F91146FFF7E9FF06F0D3
:1002200035FB01F035FA03B4FFF7F2FF03BC04F02D
:100230000DF800000948804709480047FEE7FEE73F
:10024000FEE7FEE7FEE7FEE7FEE7FEE7FEE7FEE786
:1002500004480549054A064B70470000F73E000870
:10026000ED000008E0080020E00E0020E00A002079
:10027000E00A00207CB51D4616460C00009001D017
:100280002044401E074B7B442A4669460190304675
:1002900000F0ADFB05461CB10020694600F0BAFB3A
:1002A00028467CBD950700000FB47CB50C0009AA58
:1002B000009001D02044401E084B7B4469460190C9
:1002C000089800F094FB05461CB10020694600F038
:1002D000A1FB28467CBC5DF814FB00006107000010
:1002E00070B5044685690068C10601D5302600E076
:1002F0002026C00707D070BDD4E9012130469047C1
:10030000206A401C20626D1EF6D570BD70B5044693
:1003100085690078C00707D170BDD4E9012120208C
:100320009047206A401C20626D1EF6D570BD70B5E6
:100330000C460546012A05D02878800600D5EA69D2
:10034000002302E0012305E05B1C934202D2E05C43
:100350000028F9D1A869E618C01AA861286A1844CB
:1003600028622846FFF7BCFF04E0D5E9012114F814
:10037000010B9047B442F8D32846FFF7C7FF70BD82
:100380002DE9F0410646002410687529314616A56E
:1003900010D000F0A7FA002802DA404213A507E0C7
:1003A00031688A0701D512A502E0490704D511A5D5
:1003B000012401E000F09FFA00210A2206F124073F
:1003C00009E0B0FBF2FCB0FBF2F302FB1C003030A2
:1003D00078541846491C0028F3D123462A46304653
:1003E000BDE8F04100F090BA000000002D000000D0
:1003F0002B00000020000000F0B40D460188090524
:1004000002D5214C7C4402E01F4C7C440E34002178
:1004100000F1240608E002F00F071209E75D42EA46
:1004200003721B097754491C52EA0307F3D102787F
:100430000023120704D5702D06D009B10223113410
:100440002246F0BC00F060BA01231034F8E770B522
:1004500004460D462146106800F04DFA0246294632
:100460002046BDE870400023C6E7D21D22F00703F6
:10047000D3E90023C0E70368126843F02003036058
:100480000823C3610023B7E74A6800002DE9F05F45
:10049000894604464FF0000ADFF874B1FB44C0F807
:1004A00020A02046E1688847002874D0252806D07F
:1004B000D4E901219047206A401C2062F1E7002620
:1004C0005F462046E16888472028054607DB312D36
:1004D00005D2781910F8200C08B10643F1E7B007EF
:1004E00001D526F00406C4F81CA00027C4F818A003
:1004F0002A2D09D0284603F0A2FE38B304EB870862
:10050000303DC8F8185019E059F8041B204604EB98
:1005100087029161E1688847012F054618D1E0699B
:10052000002820DA26F020061DE0D8F8180000EB9D
:10053000800005EB40003038C8F818002046E1681C
:100540008847054603F07BFE0028EED1012F0AD034
:100550002E2D08D12046E16888477F1C0546022FD2
:1005600046F02006C4DBA069002803DA404246F0CA
:100570000106A061F00701D026F010066C2D0BD00B
:10058000682D09D04C2D39D06A2D35D0742D35D039
:100590007A2D33D016E038E0E1682F4620468847B0
:1005A000B842054609D16C2F26D04FF48060E1682F
:1005B000064320468847054604E06C2F1AD04FF4C6
:1005C000807006430DB3A5F14100192802D82035EB
:1005D00046F400664A462946204626604E46FFF706
:1005E000BFFD80B101280BD0F61D26F0070000F1F9
:1005F000080956E74020E4E78020D8E70020D6E746
:1006000006F104094DE7284652E7206ABDE8F09F4D
:10061000DA6700002DE9F05F93460F4680460446F6
:10062000002600F05BF9D0F80090824614F8015BD8
:100630002DB100F04BF90068405DC007F6D12B2DBD
:1006400002D02D2D1AD0641E0021CAF800105A467F
:100650003946204600F0D6FA014627B13868A04254
:1006600001D1C7F80080DAF80000022809D0CAF8E2
:100670000090700505D54842BDE8F09F46F48066BD
:10068000E2E70846F8E710B5431C02E010F8011B4A
:1006900071B18107FAD14FF0013202C88C1A8C4334
:1006A00014EAC211F9D0C01A0A0603D0C01E10BD48
:1006B000C01A10BD0A0401D0801E10BD0902FCD072
:1006C000401E10BD032A40F2308010F0030C00F0F1
:1006D000158011F8013BBCF1020F624498BF11F87C
:1006E00001CB00F8013B38BF11F8013BA2F1040235
:1006F00098BF00F801CB38BF00F8013B11F00303AD
:1007000000F02580083AC0F0088051F8043B083A10
:1007100051F804CBA0E80810F5E7121D5CBF51F8B2
:10072000043B40F8043BAFF30080D20724BF11F82C
:10073000013B11F801CB48BF11F8012B24BF00F891
:10074000013B00F801CB48BF00F8012B704710B502
:10075000203AC0F00B80B1E81850203AA0E81850B9
:10076000B1E81850A0E81850BFF4F5AF5FEA027C7A
:1007700024BFB1E81850A0E8185044BF18C918C0E9
:10078000BDE810405FEA827C24BF51F8043B40F88A
:10079000043B08BF7047D20728BF31F8023B48BF6F
:1007A00011F8012B28BF20F8023B48BF00F8012BAD
:1007B00070474FF000020429C0F0128010F0030CC3
:1007C00000F01B80CCF1040CBCF1020F18BF00F844
:1007D000012BA8BF20F8022BA1EB0C0100F00DB8F3
:1007E0005FEAC17C24BF00F8012B00F8012B48BF51
:1007F00000F8012B70474FF0000200B513469446F5
:100800009646203922BFA0E80C50A0E80C50B1F168
:100810002001BFF4F7AF090728BFA0E80C5048BF7C
:100820000CC05DF804EB890028BF40F8042B08BF1A
:10083000704748BF20F8022B11F0804F18BF00F816
:10084000012B70474FF0013C50F8042B51F8043B4A
:100850009A4221D1A2EB0C03934313EACC1317D194
:1008600050F8042B51F8043B9A4215D1A2EB0C032B
:10087000934313EACC130BD150F8042B51F8043BEB
:100880009A4209D1A2EB0C03934313EACC13DBD0B9
:100890004FF00000704700BFD01A01BAB1FA81F1E1
:1008A00001F0180122FA01F0CB40C1F12001DBB2C6
:1008B000C0B2C01A2CFA01F3D11A914311EAC31144
:1008C000E6D17047704770477047000010B500F0E0
:1008D000EDF9001D10BD00BF7962000000487047AF
:1008E0008008002009684A0501D540B27047C90553
:1008F000FCD500B2704709684A0501D5C0B27047FF
:10090000C905FCD580B270472DE9F0470D469946E0
:100910009246044600F124080168880604D5E0697F
:1009200021F01001216000E00120A84201DD471BF9
:1009300000E00027A1697A1902EB0900081AA061FA
:100940002078C00602D42046FFF7CAFC002608E043
:10095000D4E901211AF806009047206A401C761C51
:1009600020624E45F4DB2078C0060AD52046FFF70A
:10097000B7FC06E0D4E9012130209047206A401CF2
:100980002062381EA7F10107F4DC07E0D4E9012159
:1009900018F805009047206A401C2062281EA5F127
:1009A0000105F3DC2046FFF7B1FC2078000602D5F4
:1009B0000220BDE8F0870120FBE711680268006AA9
:1009C000530501D508700AE0D30501D5088006E07B
:1009D000130603D5C217C1E9000200E00860012038
:1009E0007047000001694A1C02610878704700B531
:1009F0008FB0CDE901310021059105497944CDE958
:100A0000031011466846FFF741FD0FB000BD00001E
:100A1000E5FFFFFF0A6802F8010B0A607047D1E9A1
:100A200000239A4202D2531C0B601070704710B51D
:100A3000436913B1AFF3008001E0FFF778FC0120B8
:100A400010BD127800F124010A7000224A700122C0
:100A5000EDE711684FF0FF32E9E700002DE9FF5F95
:100A600015468A460446DFF8AC80F8440027D8E9EA
:100A700000103E46CDE9001010E03AF816106A4624
:100A800002A800F00DFD411C07D02178890603D58E
:100A9000E269391891420DD80744761C2078800607
:100AA00002D5E069B84205DDAE42E6DB3AF8160051
:100AB0000028E2D1A069C01BA0612046FFF710FC0E
:100AC000D8E90010CDE90010002017E03AF818101E
:100AD0006A4602A800F0E4FCB0F1FF3F81460BD06B
:100AE00000250DF1080B05E0D4E901211BF80500F4
:100AF00090476D1C4D45F7D308F10100B042804688
:100B0000E4DB206A384420622046FFF7FFFBBDE8A3
:100B1000FF9F00001E6200002DE9F0418046D21DBB
:100B200022F007020025D2E90002F52915A614D00B
:100B3000011E72F1000106DA0023D0EB030063EB23
:100B4000020211A608E0D8F800108B0701D50FA605
:100B500002E0490701D50EA601251146002408F13F
:100B6000240704E000F0A6F830323A55641C50EA3D
:100B70000102F7D12B46324621464046BDE8F041FE
:100B8000FFF7C2BE000000002D0000002B00000097
:100B90002000000030B4002100F1240408E002F03D
:100BA0000705D208303542EA4372DB086554491C18
:100BB00052EA0305F3D10468002310A2250707D5E4
:100BC000A40600D421B1C46901230DA2641EC4612E
:100BD00030BCFFF799BE10B5044621461068FFF7F8
:100BE0008AFE02462046BDE810400023D2E7D21D0F
:100BF00022F00701D1E90023CCE70000000000004B
:100C0000300000002DE9F05F824615468B46002734
:100C10000AF10104B9460078302801D09DB113E0F3
:100C200014F8010B0127782803D0582801D045B1CA
:100C30000AE00DB1102D07D1002714F8010B102583
:100C400002E0082500E00A250026B0460EE005FB7C
:100C5000080005FB06F101271FFA80F801EB10469A
:100C6000B6F5803F00D3B94614F8010B294600F0D1
:100C700009FC0028EBDABBF1000F05D00FB1641EB0
:100C800000E05446CBF80040B9F1000F06D0FFF762
:100C900025FE02210160C81EBDE8F09F48EA06401B
:100CA000FAE70000004870478008002000487047BD
:100CB000A008002030B5B0F10A024FEA900E71F1A1
:100CC00000034EEA817EB0EB0E0061EB91014FEA2A
:100CD000101E4EEA017E10EB0E0041EB11114FEA9F
:100CE000102E4EEA016E10EB0E0041EB11214FEA7F
:100CF000104E4EEA014E10EB0E0041EB1141401830
:100D000041F100014FEAD00040EA41704FEAD101C1
:100D100010EB80054FEA810444EA907444EB01042F
:100D20006D1944EB0404521BA3414FF0000348BF6C
:100D30000A3200D530BD401C41F1000130BD704782
:100D40002DE9FF4F0C461E464FF0FF378BB0D2E91E
:100D50000001DDF860800A908A46C1F30A5505B9A2
:100D60003D46002108464FF00000BAF1000F00F4A4
:100D7000400005DA00EB80004FF4400101EA50002A
:100D80004FEA9059B9F1010F00DDB9460A9850EACF
:100D90004A000ED044F61050A5F2FF3545432F14FB
:100DA000B8F1000F1ED07542291E1EDDC9F10002E8
:100DB0001CE0B8F1010F4FF0000001D0302103E03A
:100DC000F24305E02154401CB042FBDB30460022D8
:100DD000002121540B99C1F80880C1E900200FB00F
:100DE000BDE8F08FBD1B6D1CDEE74A4600DA6942A4
:100DF00006A800F0DBFB06AB93E8070003AB83E833
:100E0000070050460A9900F04CFC8DE80700A0F559
:100E100000501F3800900398002D0ADD42F21F0198
:100E20004A460844002303A90390684600F0B5FE33
:100E300009E0A0F500504A461F38002303A903909B
:100E4000684600F0BFFE8DE807000004000C03D0E8
:100E50004FF0FF30410800E01046B8F1000F03D01A
:100E60000022009215461EE0751E05D4FFF722FFF2
:100E7000303262556D1EF9D5B3460122084302D0C7
:100E800000227F1C04E02078302801D100227F1E40
:100E9000002A099784D01DE0112D07DAFFF70AFF19
:100EA000303262556D1C50EA0102F5D1084302D080
:100EB0000098C8B10EE00021681E05E0235C625C6A
:100EC00063542254401E491C8142F7DBAB46A81BE9
:100ED000401E0990002004F80B000B98099AC0F8F6
:100EE0000880C0E9002B7AE711264FF0000857E789
:100EF0002DE9F04F88460446D21D22F0070191B03B
:100F0000D1E90001CDE90A0103F075F902460B9819
:100F1000C00F01D02D2007E02068810701D52B20CC
:100F200002E0202101EAC000032A099001D0072A2B
:100F300005DB03464146204600F0F8FA0BE1207835
:100F4000800601D5E06900E00620B8F1650F814612
:100F500006D0B8F1660F18D0B8F1670F70D131E044
:100F60000020B9F1110F009001DB112301E009F11C
:100F700001030AAA01A90CA8FFF7E2FEDDE90C7043
:100F8000002609F10105834647E001204B46009009
:100F90004FF000470AAA01A90CA8FFF7D1FEDDE92E
:100FA0000DB00C995D46002610B909F101000D182D
:100FB000B9EB050003D4C0F1FF3609F10105A5EB3B
:100FC00009002BE0B9F1010F01DA4FF0010900200F
:100FD000B9F1110F0090484601DD112300E00346EE
:100FE0000AAA01A90CA8FFF7ABFEDDE90C704D467B
:100FF00000268346207800070AD4AB4500DA5D4618
:1010000001A8012D04DD411911F8011C302907D078
:101010004F4502DA17F1040F04DA012082460FE08F
:101020006D1EEEE7002F02DCED1B3E4403E0781C52
:10103000A84200DD7D1CB81B00F1010A4FF00047FB
:101040002078000703D4AA4501DB4FF0FF3A0021C6
:10105000B7F1004F0DF143088DF8431024D0022062
:101060002B23002F01DA7F422D230A21021EA0F13B
:10107000010000DC5FB197FBF1FC97FBF1F201FB93
:101080001C7C17460CF1300C08F801CDEEE7A8F1F6
:10109000010003702188090501D5452100E0652183
:1010A000A0F1010800F8011C09980FA9A1EB08079D
:1010B000FF1D00B10120411901EBEA70A16938441C
:1010C000081A401EA0612078C00602D42046FFF70F
:1010D00007F9099828B1D4E901219047206A401CFA
:1010E00020622078C00622D52046FFF7F9F81EE0DE
:1010F000002E04DBB34502DD01A8805D00E0302056
:10110000D4E901219047206A401C2062761CAAF194
:1011100001005FEA000A0AD1FFF7C8FDC068016854
:10112000405CD4E901219047206A401C2062281EBF
:10113000A5F10105DCDC07E0D4E9012118F8010B79
:101140009047206A401C2062381EA7F10107F3DC9B
:101150002046FFF7DBF8032011B041E62DE9F04F00
:1011600004460D46D21D22F0070089B0D0E9009751
:101170004846394603F03FF80246F80F01D02D23C8
:1011800007E02068810701D52B2302E0202101EA36
:10119000C0038DF820300BB1012000E00020032AAD
:1011A000824601D0072A04DB2946204600F0BEF91A
:1011B0003FE12078800601D40D2500E0E569C7F302
:1011C0000A560D2D49DA00214FEA175B08464FF009
:1011D0000000002F00F4400007DA00EB80004FF41D
:1011E000400100EBD07001EA60008115012901DDAA
:1011F0004FF0FF3100224FEA850CBCF1180F06D3E7
:101200001346ACF118004FF08052C24003E04FF497
:10121000801323FA0CF30CF10C0CBCF1200F04D357
:10122000ACF1200C09FA0CF001E007FA0CF00029EF
:101230004FF0004801DD18B90FE00ED140450CD346
:1012400019EB02095F4121B9404502D19F4329EAC8
:101250000209BBEB175F00D0761C2088000502D581
:101260007B48784402E07A487844193808AA302349
:1012700002F80A30037C0AF10101002E0AF1020A89
:1012800053546A4602DC4FF0300101E04FF0310167
:101290004FF001088DF8001002D0A6F2FF3603E0EF
:1012A00059EA470100D06B4E002D02DC2178090776
:1012B00004D54FF002082E218DF80110C4460021FC
:1012C0000BE0C7F303433F01C35C491C6D1E02F8EA
:1012D0000830052908F1010801DA002DF1DC0021B0
:1012E0000CE000EB1973491C1B786D1E082902F8ED
:1012F00008304FEA091908F1010801DA002DF0DC85
:1013000021688B0602D516E0A8F10108E04505DD4D
:1013100002EB080313F8013C302BF5D0B8F1000FB5
:1013200009DD02EB080313F8013C2E2B03D109075A
:1013300001D4A8F10108002D05DD3E2102F80810B6
:101340006D1E08F10108407C002E02F8080008F12B
:10135000010804DA2D20764202F8080002E02B2072
:1013600002F808000A214FF47A70864208F1010859
:101370000BDB96FBF0F3303302F8083096FBF0F30A
:1013800008F1010800FB136601E0642E0CDB642009
:1013900096FBF0F3303302F8083096FBF0F308F1D7
:1013A000010800FB136601E00A2E06DB96FBF1F054
:1013B000303002F8080008F1010896FBF1F001FB5B
:1013C0001060303002F80800A16908F1010808EB4C
:1013D000050202EB0A00081AA0612078C00602D4B8
:1013E0002046FEF77DFF216A08AE01EB0A0020626D
:1013F00004E0D4E9012116F8010B9047BAF1010A83
:10140000F7D22078C00602D52046FEF769FF6E4667
:1014100009E016F8010B3E280FD0D4E901219047CE
:10142000206A401C2062B8F10108F2D22046FEF783
:101430006DFF09B00320BDE8F08F206A28442062C8
:1014400003E0D4E90121302090476D1EEBD3F8E78B
:10145000415A000002FCFFFF10B5436913B1AFF31E
:10146000008001E0FFF7FAFA012010BD128800F1B8
:10147000240182840022C2840122EDE711684FF02A
:10148000FF32E9E73A2800D2303820F02002412A22
:1014900001D3A2F13700884201D34FF0FF307047EB
:1014A00070B516460C460546FFF710FA036893F828
:1014B0000101012806D0FF2C0FD8185D68B101206A
:1014C0002C7070BDD3F807013246214603F2071392
:1014D00003442846BDE8704018474FF0FF3070BD08
:1014E0007546FFF7DFFBAE4605006946534620F020
:1014F0000700854618B020B5FEF7AAFEBDE82040DB
:101500004FF000064FF000074FF000084FF0000BBF
:1015100021F00701AC46ACE8C009ACE8C009ACE872
:10152000C009ACE8C0098D46704700002DE9F041C4
:101530001F46044603260168072A01F4006004DB05
:1015400008B116A505E016A503E008B115A500E051
:1015500015A521F010002060A069C01EA0610FB188
:10156000401EA0612046FEF7BBFE4FB1D4E9012129
:1015700038469047206A401C2062C01C206206E06A
:10158000206AFAE7D4E9012115F8010B9047761E8D
:10159000F8D22046FEF7BAFEBDE8F0814E414E007B
:1015A0006E616E00494E4600696E66002DE9F04797
:1015B000814616468AB0354878440DC88DE80D003E
:1015C00032487844801C03AC0DC884E80D0041F615
:1015D0009B300844372190FBF1F290FBF1F5A5F127
:1015E000800501FB12041B3C02D56442012000E08F
:1015F0000020DFF898A080460027FA44AAF1BE0A2E
:101600000EE0E0070AD03246684607EB47010123A7
:101610000AEB810100F0D6FA8DE8070064107F1C08
:10162000002CEED1194F7F44AE3F19E0E80715D0EA
:1016300007EB04100DF1180A90E80E008AE80E007E
:10164000C068F04201D1981908903246012306A9DA
:1016500003A800F0B7FA03AB83E807006D10641C21
:10166000002DE3D14FF0010332466946B8F1000F77
:1016700003A802D000F091FA01E000F0A3FAC9E952
:101680000001C9F808200AB0BDE8F0877C570000C7
:1016900010B50446AFF300802046BDE81040FEF7C9
:1016A000C2BD5FEA400C08BF91F0000F4FEA8C23E7
:1016B0004FEAC12243EA51514FEA1C5018BF00F5CE
:1016C000F0404FEA300018BF41F000415FEA6C5C27
:1016D00000F02980BCF1FF3F08BF40F08040704718
:1016E000130C06BF12044FF0100C4FF0000C130E39
:1016F00004BF12020CF1080C130F04BF12010CF10D
:10170000040C930F04BF92000CF1020CD30F04BF22
:1017100052000CF1010C11464FF00002A0F11F0025
:10172000A0EB0C00704711F0004F08BF704731F07C
:1017300000413FF4D5AF0B0C06BF09044FF0100C6D
:101740004FF0000C0B0E04BF09020CF1080C0B0F3C
:1017500004BF09010CF1040C8B0F04BF89000CF1CC
:10176000020CCB0F04BF49000CF1010CCCF120039B
:10177000A0EB0C0022FA03F302FA0CF241EA030197
:1017800000F10100704720F07F4C80EA030023F055
:101790007F47ACEB070303F57C5300F0004003F1F7
:1017A000FF032DE980494FEA154B09B44FEA144372
:1017B00025EA0B4E24EA03480FF2042606EB132712
:1017C00049083E785FEA320203FB0667C7F5000767
:1017D00007FB06F64FEA54374FEAD64606F10206F3
:1017E00007FB066CCCF1005C4FEA1C472CEA074C67
:1017F00007FB06F40CFB06F504EB15464FEA9616BC
:1018000034BF00204FF000404FEAD13706FB07FC01
:101810004FEA1C4C0CFB0BF7D21B03FB0CF761EBE4
:1018200007010CFB0EF7B0EB074072EB17420CFB05
:1018300008F734BFA2EB0742B2EB074261EB174156
:101840004FEA0C444FEA910706FB07FC4FEA1C4C99
:101850000CFB0BF7B0EBC74072EB573203FB0CF7F6
:1018600034BFA2EBC742B2EBC74261EB57310CFB6E
:101870000EF7B0EBC70072EB57720CFB08F734BFE2
:10188000A2EBC702B2EBC70261EB5771039F4FEAAD
:10189000816141EA921104EBCC044FEAD1374FEA5F
:1018A000826206FB07FC42EA90124FEA80604FEA30
:1018B0001C4C0CFB0BF7D21B03FB0CF761EB070175
:1018C0000CFB0EF7B0EB074072EB17420CFB08F76E
:1018D00034BFA2EB0742B2EB074261EB17414FEA7C
:1018E0008C554FEA910704EB9C2406FB07FC4FEA5A
:1018F0001C4C0CFB0BF7B0EBC74072EB573203FBF1
:101900000CF734BFA2EBC742B2EBC74261EB5731D1
:101910000CFB0EF7B0EBC70072EB57720CFB08F72D
:1019200034BFA2EBC702B2EBC70261EB577115EBF4
:101930004C254FEA816141EA92114FEA82624FEAF7
:10194000D13742EA901206FB07FC44F100044FEA4B
:1019500080604FEA1C4C0CFB0BF7D21B03FB0CF70F
:1019600061EB07010CFB0EF7B0EB074072EB17427F
:101970000CFB08F734BFA2EB0742B2EB074261EB66
:10198000174115EB1C154FEA813141EA92414FEAAC
:10199000823242EA90424FEA80304FEA0C7644F1BC
:1019A000000448EA03434EEA0B484FF0000EB2EB46
:1019B000080C71EB030724BF624639464EEB0E0E4E
:1019C0004FF0000B0018524149414BEB0B0BB2EBAF
:1019D000080C71EB03077BF1000B24BF624639460C
:1019E0004EEB0E0E4FF0000B0018524149414BEBED
:1019F0000B0BB2EB080C71EB03077BF1000B24BF60
:101A0000624639464EEB0E0E51EA020718BF46F009
:101A1000010616EB0E7655F1000254F1000103D5D4
:101A2000BDE88901BDE80088BDE88901BDE800483E
:101A3000B619524141EB0101A3F1010370478080C7
:101A40007F7E7D7C7B7A7978777676757473727118
:101A500071706F6E6E6D6C6C6B6A6A6968686766D0
:101A600066656464636362616160605F5F5E5E5D62
:101A70005D5C5C5B5B5A5A595958585757565655D6
:101A800055555454535352525251515050504F4F38
:101A90004F4E4E4D4D4D4C4C4C4B4B4B4A4A4A4988
:101AA00049494848484747474746464645454544CB
:101AB0004444444343434342424242414141002B58
:101AC0009C4630D477002BD01CB54FEA370703B4BF
:101AD0004FF010004FF01001BAF1000F06D0BCF12A
:101AE000000FDCBF40F0080040F008014FF000009C
:101AF0000FBCBDE810400BF1010BBBF1010F08BF9B
:101B00005FEA170722BF12F1010211F101014FF044
:101B1000004143F1000300F0004043EA0000704739
:101B2000F9D35708D0E746EA064613F1400F4FEACB
:101B300016461FDD13F1200FDFBF16430A460021B2
:101B400020335B42BED0C3F1200746EA064602FAC4
:101B500007F74FEA164646EA0706C3F1200722FABE
:101B600003F201FA07F721FA03F14FF0000342EA0A
:101B70000702A7E746EA020646EA06464FEA164685
:101B800046EA0106BCBF46EA0646360C4FF00003A3
:101B90004FF000024FF0000194E72DE9804C9A4687
:101BA000934670B491E8380007C831EA400C48BF4A
:101BB00034EA430C03D5FFF7E6FDFFF780FFF0BCE6
:101BC000BDE8008C2DE9804C9A46934670B491E8AC
:101BD000380007C810F0804F08BF13F0804F03D1C2
:101BE00000F005F8FFF76BFFF0BCBDE8008C20F0BB
:101BF0007F4780EA030023F07F4C07EB0C03A3F53B
:101C00007C5300F00040A3F1FE0392F0000F00F0BF
:101C1000B38095F0000F00F077802DE901494FEA7D
:101C200011404FEA144621EA004800FB06FC24EA72
:101C3000064708FB06F607FB08F800FB07F718EB5A
:101C400006484CEB164C4FEA124B18EB07484FEA8C
:101C500015464CEB174022EA0B4E0BFB06FC25EA1F
:101C600006470EFB06F607FB0EFE0BFB07F71EEB07
:101C7000064E4CEB164C4FF000061EEB074E4CEB9D
:101C8000174B18EB0B0840F1000018EB0E0B58EB4C
:101C9000000840F100008F1A4FF000013CBFC9431B
:101CA000661B14BFB5EB040C00213CBFC943F61BF7
:101CB0004FEA17444EEA8E0E27EA04454FEA1C47C6
:101CC00004FB07622CEA074C05FB07F70CFB05F643
:101CD00004FB0CFC16EB074642EB174216EB0C46D6
:101CE00042EB1C421BEB060658EB0202414146EA5E
:101CF0009E0601D5BDE80189B619524141EB0101AB
:101D0000A3F10103BDE801894FEA14454FEA1147E9
:101D100024EA054621EA074C05FB07F406FB07F712
:101D20000CFB06F105FB0CFC11EB074144EB1744DF
:101D30004FEA124711EB0C4144EB1C4422EA074CDA
:101D400005FB07F206FB07F70CFB06F605FB0CFC90
:101D500016EB074642EB174216EB0C4642EB1C45CE
:101D60006A1854F1000148BF7047B619524141EB5F
:101D70000101A3F10103704795F0000F37D04FEA3E
:101D800011424FEA144721EA024624EA074C02FBBB
:101D900007F106FB07F70CFB06F402FB0CFC14EB47
:101DA000074441EB17414FEA154714EB0C4441EB54
:101DB0001C4125EA074C02FB07F506FB07F70CFB65
:101DC00006F602FB0CFC16EB074645EB174516EB37
:101DD0000C4645EB1C42121951F1000148BF7047F7
:101DE000B619524141EB0101A3F1010370474FEADB
:101DF00014454FEA114724EA054621EA074C05FB42
:101E000007F106FB07F70CFB06F24FF0000605FB97
:101E10000CFC12EB074241EB174112EB0C4251EB69
:101E20001C4148BF7047921841EB0101A3F1010327
:101E30007047FEE7704772B6FEE710B501880022D2
:101E400002EB1122C9B21144827883881144C2780E
:101E5000114401EB1321DAB20A44002104E04418D2
:101E6000491CA47989B222448B42F8D8D0B210BD63
:101E700010B590F821100022022905D004218163B9
:101E800080F82020012010BD01680B6823F00E03AC
:101E90000B6001680B6823F001030B6090F8403081
:101EA000C46B012101FA03F3636080F8211080F80C
:101EB0002020104610BD000010B590F8211000241D
:101EC000022903D00421816301243DE001680A68EE
:101ED00022F00E020A6001680A6822F001020A601C
:101EE0001A4A0168914201D1012121E0174A1432B6
:101EF000914201D110211BE0144A2832914201D1B4
:101F0000891515E0114A3C32914201D189140FE044
:101F10000E4A5032914202D14FF4803108E00B4A10
:101F20006432914202D14FF4801101E04FF0807190
:101F3000064A083A5160012180F82110002180F8FA
:101F40002010416B01B18847204610BD08000240B7
:101F500070B5044600F0FEF80546601C02D0044847
:101F60000078044400F0F6F8401BA042FAD370BD9C
:101F70000C0000202DE9F84FDFF8B8910024A9F1FA
:101F8000040B23460F2709F1040AABF1040EC9E044
:101F90000125A5402A40AA427DD1674ED1F804C050
:101FA000ACEB0608B44532D014DCBCF1030F3AD0D8
:101FB00009DCBCF1000F2AD0BCF1010F1CD0BCF130
:101FC000020F31D11DE0BCF1110F17D0BCF1120F7F
:101FD0002AD119E0B8F5881F19D006DCB8F5803F82
:101FE00015D0B8F5801F1FD111E0B8F5001F0ED035
:101FF000B8F5041F18D10AE0CB6815E0CB681B1DAB
:1020000012E0CB6808330FE0CB680C330CE08B6830
:102010002BB1012B4FF0080303D0456104E00423EA
:1020200002E0056100E00023FF2A01D8064601E036
:1020300000F104064FEA840501D9A5F12005D6F880
:10204000008007FA05FC28EA0C0803FA05F548EABF
:102050000508C6F800804D68ED0062D5374DAE69C1
:1020600046F00106AE61AD6924F0030605F00105F6
:102070000095334D06EB050CDCF80850A607360F2B
:1020800007FA06F825EA0805DFF8B880404503D1CD
:102090004FF0000817E044E0DFF8AC80404502D183
:1020A0004FF001080FE0DFF8A480404502D14FF067
:1020B000020808E0DFF89880404502D14FF003089D
:1020C00001E04FF0040808FA06F848EA0508CCF8E1
:1020D00008804D68D9F80060ED024D4601D51643E1
:1020E00000E096432E604D68DAF80060AD02554678
:1020F00001D5164300E096432E604D68DBF8006082
:10210000AD035D4601D5164300E096432E604D6851
:10211000DEF80060ED03754601D5164300E09643F6
:102120002E60641C0D682A46E5407FF431AFBDE89F
:10213000F88F000008040140000011100010024058
:102140000000014000080140000C01400010014067
:102150000014014001488068704700000C00002016
:102160000248816802781144816070470C000020A9
:10217000074810B5016841F010010160032000F02C
:1021800075F80F2000F006F800F024F8002010BDCC
:102190000020024070B50D4D04464FF47A71287846
:1021A000B1FBF0F00A490968B1FBF0F000F0DCFA8D
:1021B00048B9102C07D200222146501E00F036F8F4
:1021C00000206C6070BD012070BD00000C0000207C
:1021D000080000200C4808B5816941F001018161C7
:1021E000816901F001010091C16941F08051C16133
:1021F000C06900F0805000900448416821F0E0611F
:1022000041F00071416008BD001002400000014033
:10221000002809DB00F01F020121914040098000E5
:1022200000F1E020C0F8001170470000F0B40E4B40
:102230001B680C46C3F30223C3F10705042D00D924
:102240000425191D072901D2002300E0DB1E012609
:1022500006FA05F1491E214099409E40761E16401F
:102260003143F0BC01F0DBBF0CED00E0064900F0AB
:10227000070208684FF6FF03184040EA0220034AAD
:1022800010430860704700000CED00E00000FA0504
:102290002DE9F0470F46050061D0434E306800F04D
:1022A0000700B84209D2306820F007003843306098
:1022B000306800F00700B84251D128683B4C8107D4
:1022C00012D5400703D5606840F4E060606028786C
:1022D000000703D5606840F4605060606068A968DA
:1022E00020F0F000084360602878C00728D06868B4
:1022F000012810D02168022810D0890700292EDA81
:10230000616821F0030101436160FFF723FF80460C
:1023100041F288390DE021688903EFE78901EDE793
:10232000FFF718FFA0EB0801494502D90320BDE8DB
:10233000F0876068696800F00C00B0EB810FEFD1A6
:10234000306800F00700B8420BD9306820F0070071
:1023500038433060306800F00700B84201D00120F7
:10236000E5E72878400705D56068E96820F4E06073
:10237000084360602878000706D56068296920F462
:10238000605040EAC100606000F038F86168084AB7
:10239000C1F30311515CC840064908600648006853
:1023A000FFF7F8FE0020C2E70020024000100240C4
:1023B000286C00080800002010000020044805498F
:1023C00000684968044AC1F30221515CC840704763
:1023D0000800002000100240386C0008044805493D
:1023E00000684968044AC1F3C221515CC840704783
:1023F0000800002000100240386C00080E4A5168A6
:102400000E4801F00C03042B11D0082B0FD10C48FF
:10241000C1F38343C903C05C0AD55168084AC1F3BC
:102420004041921E515C054A5043B0FBF1F07047A9
:1024300004494843704700000010024000127A002F
:10244000426C000800093D002DE9F84F040070D0EF
:102450002078C04DC00749D06868C0F381000128CA
:1024600007D06868C0F38100022809D16868C003FA
:1024700006D52868800339D560680028E7D035E0A4
:102480006068B0F5803F0BD010B1B0F5A02F11D02F
:10249000286820F480302860286820F4802002E03A
:1024A000286840F480302860606890B1FFF752FEE1
:1024B00006460AE0286840F480202860F0E700BF64
:1024C000FFF748FE801B642873D828688003F7D57F
:1024D0000CE0FFF73FFE064605E000BFFFF73AFEBF
:1024E000801B6428F0D828688003F7D420789A4E9F
:1024F00080074FF001094FF0000839D5686810F0E7
:102500000C0F07D06868C0F38100022809D1686801
:10251000C00306D42868800714D52069012808D193
:1025200010E02069B0B1C6F80090FFF713FE07462F
:1025300005E00AE1FFF70EFEC01B0228C4D8286898
:102540008007F7D52868616920F0F80040EAC100EB
:1025500028600DE0C6F80080FFF7FCFD074604E0A8
:10256000FFF7F8FDC01B022823D828688007F7D49E
:10257000207800072CD57948A169D9B1C0F800901E
:10258000FFF7E8FD074604E0FFF7E4FDC01B022863
:102590000FD8686A8007F7D571484FF4FA51006880
:1025A000B0FBF1F0009000BF0098411E0091FAD2FC
:1025B0000EE080E0C0F80080FFF7CCFD074604E0A5
:1025C000FFF7C8FDC01B022875D8686A8007F7D4DA
:1025D0002078400760D5E8690027C00008D4E86982
:1025E00040F08050E861E869012700F080500090D9
:1025F0005C480168C90513D40168834641F48071C1
:102600000160FFF7A7FD824606E000BFFFF7A2FDCD
:10261000A0EB0A0064284ED8DBF80000C005F5D511
:10262000E06801280AD008B1052813D0286A20F0F4
:1026300001002862286A20F0040002E0286A40F0C5
:1026400001002862E06841F2883B98B1FFF782FD03
:1026500082460BE0286A40F004002862EEE700BFE3
:10266000FFF778FDA0EB0A0159455AD8286A800780
:10267000F6D50CE0FFF76EFD824605E0FFF76AFD38
:10268000A0EB0A0159454CD8286A8007F6D41FB13F
:10269000E86920F08050E861E06988B36968C1F3B7
:1026A0008101022944D00228C6F8608004D0FFF7D7
:1026B00051FD044638E034E0FFF74CFD074604E0E6
:1026C000FFF748FDC01B02282BD828688001F7D4EB
:1026D000206AB0F5803F05D16868A16820F4003019
:1026E00008436860D4E908010843696821F474115B
:1026F00008436860C6F86090FFF72CFD044606E0CA
:1027000025E000BFFFF726FD001B022809D8286836
:102710008001F7D51BE000BFFFF71CFD001B02285E
:1027200002D90320BDE8F88F28688001F4D40EE0B8
:102730000128F7D06868226A00F48031914204D100
:10274000616A00F47010884201D00120EAE700209D
:10275000E8E70000001002400000424280044242CC
:10276000080000200070004010B5401EB0F1807FCE
:1027700001D3012010BD4FF0E02460610F216017EC
:1027800001F04DFD0020A06107202061002010BD58
:1027900070477047F8B5016804460868CA684B6915
:1027A00010F00F0F4FF0000559D003F0010602F4AE
:1027B0009077374365D0C10705D0D10503D5616C4B
:1027C00041F001016164410705D5D90703D0616C6F
:1027D00041F002016164810705D5D90703D0616C1E
:1027E00041F004016164010707D502F02001314383
:1027F00003D0616C41F008016164616C00293AD03A
:10280000800604D5900602D5204601F0C0FB206862
:102810004069616CC0F38010090700D460B32046A2
:1028200001F08EFB20684069400621D520681430F5
:1028300050E8001F21F0400140E80012002AF5D1C5
:10284000E06BA8B16D494163E06BFFF735FB0028F1
:1028500011D0E06B416B01B0BDE8F0400847830642
:102860000FD593060DD52046BDE8F84001F08FBB8B
:102870002046FFF78EFFF8BD2046FFF78AFF65640C
:10288000F8BD266B2023012E7CD1C6067AD5D6064C
:1028900078D508684868009048694FF002064006FD
:1028A00040D5E16B086840680004000CE8D0A28DB8
:1028B0008242E5D9E085886920282DD020680C3037
:1028C00050E8001F21F4807140E80012002AF5D181
:1028D0002068143050E8001F21F0010140E8001288
:1028E000002AF5D12068143050E8001F21F0400183
:1028F00040E80012002AF5D184F8423025632068B0
:102900000C3050E8001F21F0100140E80012002AAE
:10291000F5D1E06BFFF7ACFA6663A08DE18D401A4C
:1029200081B22AE0A08DE18D401A81B2E08D0028AD
:10293000A6D00029A4D022680C3252E8000F20F45F
:10294000907042E80007002FF5D12068143050E85D
:10295000002F22F0010240E80027002FF5D184F873
:102960004230256320680C3050E8002F22F010021E
:1029700040E80023002BF5D166632046FFF708FFEF
:10298000F8BDFFE705062BD5150629D594F84100BB
:102990002128F5D1A068B0F5805F01D12069B0B1E0
:1029A000206A411C2162216800784860E08C401E4A
:1029B0000004000CE084E3D12068C16821F08001AC
:1029C000C1602068C16841F04001C160D8E7206A59
:1029D0000088C0F308004860206A801C2062E5E798
:1029E0004006CDD55006CBD5CA68204622F040021D
:1029F000CA6084F8413000F020F9C1E7313F000897
:102A000070B5040004D094F84100002510B106E030
:102A1000012070BD84F84050204600F023F82420A7
:102A200084F841002068C16821F40051C16020464B
:102A300001F00EFB2068016921F4904101612068DA
:102A4000416921F02A0141612068C16841F40051C7
:102A5000C1606564202084F8410084F84200656309
:102A6000002070BDF0B585B000240094019402945C
:102A700003940368424F022042490322424D46021A
:102A8000BB4225D18B6943F480438B618B6903F48E
:102A9000804304938B6943F004038B61896903923B
:102AA00001F0040104910102CDE9001069462846B5
:102AB000FFF760FACDE90064694628460294FFF703
:102AC00059FA002211462520FFF7B0FB252028E007
:102AD0002E4FBB4229D1CB6943F40033CB61CB6984
:102AE00003F4003304938B6943F004038B61896919
:102AF000039201F0040104910421CDE9001069461C
:102B00002846FFF737FA0820CDE900046946284631
:102B10000294FFF72FFA002211462620FFF786FBCA
:102B20002620FFF775FB05B0F0BD194DAB42FAD179
:102B3000CB6943F48023CB61CB6903F480230493F6
:102B40008B6943F008038B618969124D01F008011C
:102B5000CDE90321CDE9006069462846FFF70AFA6E
:102B6000E814CDE90004694628460294FFF702FA0A
:102B7000002211462720FFF759FB2720D1E700004C
:102B800000380140001002400008014000440040AD
:102B900000480040000C014070472DE9F84304460E
:102BA00090F84100984616460D46202802D0022093
:102BB000BDE8F88385B17EB100206064212084F8EF
:102BC0004100FFF7C7FAA6848146E684A068202763
:102BD000B0F5805F02D003E00120E9E7206910B181
:102BE0002E4600250EE000260CE08021204601F054
:102BF0008BFAA8B9C6B116F8010B21684860E08CC1
:102C0000401EE084E08C4B464FF00002CDF800807F
:102C10000028EAD14FF04001204601F075FA40B19A
:102C200084F841700320C3E735F8020BC0F30800B5
:102C3000E3E784F841700020BAE7704700F07AB803
:102C4000401E102801D20120704700207047401E0E
:102C5000032801D80120704700207047401E042837
:102C600001D8012070470020704718B1012801D019
:102C70000020704701207047322801D8012070479A
:102C80000020704703480168002901D00248084726
:102C900070470000A40000206004002010B586B03A
:102CA000A8B1C1790DF1080C90F8234090F82230BA
:102CB000427A8CE81E0082794179CDE900120379CD
:102CC00002780649022001F05BF806B010BD06B09C
:102CD00003A1BDE81040022001F052B8786E000850
:102CE0005B494E464F5D20205B484F4F43485D2077
:102CF000416972436F6E646974696F6E65722063B7
:102D0000616C6C6261636B3A206672616D6520690B
:102D100073204E554C4C0D0A00000000014908601C
:102D200070470000A40000200149086070470000BF
:102D3000A800002070B5040064D0607AFFF780FF1F
:102D400000285FD0607A304D0E285BD2DFE800F0BB
:102D50005A071F262D34393F443F3F3F3F3F2079DC
:102D6000FFF783FF90B36079FFF778FF70B3A07926
:102D7000FFF76DFF50B3E079FFF77EFF30B32079A6
:102D8000287160796871A079A871E07917E02079DD
:102D9000FFF76BFFD0B12079287124E06079FFF74D
:102DA0005DFF98B1607968711DE0A079FFF74FFF72
:102DB00060B1A079A87116E0E079322822D8E871D4
:102DC00011E0207A32281DD828720CE01AE094F81D
:102DD000240085F8240006E00B48182204F10A01BB
:102DE0000A30FDF76FFC20782870607A687294F8DA
:102DF000220085F82200012085F82300FFF742FF1A
:102E0000002070BD022070BD600400203EB5B8B146
:102E10000178E1B1022931D0032931D0042931D020
:102E20001AA284780179C378012C2DD019A40094BA
:102E3000CDE9013143781949022000F0A1FF3EBDE0
:102E400003B017A1BDE83040022000F099BF4178DF
:102E5000012202EB111211F00F0F0BD01DA301790B
:102E6000C4788078012807D00AA00090CDE90141FC
:102E70001A49E1E71AA3F2E71BA0F6E71CA2D0E784
:102E800014A2CEE71CA2CCE717A4D0E7554E4B4EB8
:102E90004F574E00434C4541520000001C71000842
:102EA0005B494E464F5D20205B484F4F43485D20B5
:102EB000436F64654D617463682063616C6C62612B
:102EC000636B3A206672616D65206973204E554CC4
:102ED0004C0D0A004355525441494E00C47000083D
:102EE00044494D4D455200004D41544348000000B7
:102EF0004C49474854000000414300000149086024
:102F000070470000C000002000F04AB80348016884
:102F1000002901D00248084770470000B000002097
:102F2000860400201FB560B1817A847C037C427BDB
:102F30008DE81E00C37902790549022000F020FFC8
:102F40001FBD04B003A1BDE81040022000F018BF6F
:102F50005C7000085B494E464F5D20205B484F4F38
:102F600043485D204375727461696E2063616C6CC7
:102F70006261636B3A206672616D65206973204EF1
:102F8000554C4C0D0A0000000149086070470000D4
:102F9000B00000200149086070470000B400002024
:102FA0002DE9F04105005BD0287C411E092957D24C
:102FB0002978491E072953D82A4C01266179491CD2
:102FC000CFB2217A491CCBB2E17A491CCAB2A17BAB
:102FD000491CC9B20A2843D2DFE800F04205161B9B
:102FE0002011252D2D2D287920716771A671E87982
:102FF000E07123726672A87AA072E2722673687B0F
:103000006073A173E6731AE0287920716771A67165
:1030100015E0E879E0712372667210E0A87AA07278
:10302000E27226730BE00F48182205F113011330EA
:10303000FDF748FB03E095F82B0084F82B00287877
:1030400020706878607068886080287C2074607C5C
:10305000401C6074A674FFF759FF0020BDE8F081A2
:103060000220FBE78604002010B518B101784A1E43
:10307000072A01D9022010BD0F4C2170017921715E
:10308000417961718179A171C179E171416A6162AE
:10309000C179062906D100F10A01182204F10A00BB
:1030A000FDF710FB207A401C20720120607200F0B6
:1030B00005F8002010BD00006803002003480168E7
:1030C000002901D00248084770470000180000207E
:1030D000680300201FB560B18179447A037AC27910
:1030E0008DE81E00437902790549022000F048FE70
:1030F0001FBD04B003A1BDE81040022000F040BE97
:10310000586F00085B494E464F5D20205B484F4F8B
:1031100043485D2044696D6D65724C696768742031
:1031200063616C6C6261636B3A206672616D6520ED
:103130006973204E554C4C0D0A000000014908608F
:103140007047000018000020014908607047000027
:103150001C00002000F072B8401E0E2801D2012091
:10316000704700207047401E022801D80120704798
:103170000020704718B1012801D0002070470120BD
:1031800070473C2801D8012070470020704700009C
:1031900003480168002901D0024808477047000031
:1031A000280000209003002010B586B0A8B1C17996
:1031B0000DF1080C90F8224090F82130027A8CE84A
:1031C0001E0082794179CDE900120379027806491F
:1031D000022000F0D5FD06B010BD06B003A1BDE889
:1031E0001040022000F0CCBDD46F00085B494E4671
:1031F0004F5D20205B484F4F43485D20466C6F6F0A
:103200007248656174696E672063616C6C626163AA
:103210006B3A206672616D65206973204E554C4C87
:103220000D0A0000014908607047000028000020D6
:1032300001490860704700002C00002070B50400B0
:103240005BD0207AFFF788FF88B3207A2C4D0C28BA
:1032500053D2DFE800F052061E252D32373F3F3FA4
:103260003F3F2079FFF786FF08B36079FFF77BFFC8
:10327000E8B1A079FFF785FFC8B1E079FFF781FFDA
:10328000A8B12079287160796871A079A871E07976
:1032900016E02079FFF76EFF48B1207928711DE014
:1032A0006079FFF760FF10B16079687116E024E083
:1032B000A0793C2821D8A87110E0E0793C281CD8DE
:1032C000E8710BE00E48182204F109010930FDF7FE
:1032D000F9F903E094F8230085F82300207828709A
:1032E000207A287294F8210085F82100012085F8C1
:1032F0002200FFF74DFF002070BD022070BD0000CE
:103300009003002000F06EB8401E0B2801D201206F
:10331000704700207047401E032801D801207047E5
:1033200000207047401E032801D80120704700206C
:10333000704718B1012801D0002070470120704764
:1033400003480168002901D002480847704700007F
:1033500034000020B403002010B586B098B1817904
:103360000DF1040C90F8224090F82130027A8CE89C
:103370001E0041790091037902780649022000F08D
:10338000FFFC06B010BD06B003A1BDE8104002204E
:1033900000F0F6BC086E00085B494E464F5D2020E9
:1033A0005B484F4F43485D204672657368416972C0
:1033B0002063616C6C6261636B3A206672616D655B
:1033C000206973204E554C4C0D0A000001490860DD
:1033D0007047000034000020014908607047000079
:1033E0003800002070B5040053D0207AFFF78CFF1E
:1033F00080B3207A284D09284BD2DFE800F04A0537
:10340000161D242C2F3737002079FFF792FF08B3C1
:103410006079FFF787FFE8B1A079FFF77CFFC8B1BB
:10342000207928716079687111E02079FFF781FFB8
:1034300080B1207928711DE06079FFF773FF48B1F2
:103440006079687116E0A079FFF765FF10B1A07987
:10345000A8710FE01DE0E079E8710BE00E4818223A
:1034600004F109010930FDF72DF903E094F8230078
:1034700085F8230020782870207A287294F821009B
:1034800085F82100012085F82200FFF759FF002070
:1034900070BD022070BD0000B40300200149086027
:1034A0007047000040000020401E072801D801207E
:1034B00070470020704728B1012803D0022801D0AE
:1034C000002070470120704703480168002901D09F
:1034D000001D084770470000880000200EB558B155
:1034E00081780379C2788DE80E0043780278064926
:1034F000022000F045FC0EBD03B004A102205DF8DF
:1035000004EB00F03DBC0000B06D00085B494E4686
:103510004F5D20205B484F4F43485D204B65794D00
:103520006F64652063616C6C6261636B3A206672E4
:10353000616D65206973204E554C4C0D0A000000EA
:1035400001490860704700008800002010B50100A4
:103550001DD00878FFF7A8FFC8B14878FFF7ABFF88
:10356000A8B10C4A0B6801205360121D1071087835
:10357000521D401EC0B28B78135408780832401E8A
:10358000C0B249781154FFF79FFF002010BD022000
:1035900010BD000088000020002204E08354521C6B
:1035A000D2B21F2A02D28B5C002BF7D100218154AA
:1035B0007047000003480168002901D0024808470D
:1035C000704700004C000020D803002010B586B0E2
:1035D00098B1C1780DF1040C90F8264090F8253090
:1035E000421D8CE81E0081780091437802780649DC
:1035F000022000F0C5FB06B010BD06B003A1BDE877
:103600001040022000F0BCBB506D00085B494E46E4
:103610004F5D20205B484F4F43485D204B65794EFE
:10362000616D652063616C6C6261636B3A206672E8
:10363000616D65206973204E554C4C0D0A000000E9
:1036400001490860704700004C00002070B504007C
:1036500003D02078411E072901D9022070BD0B4DEF
:10366000611D287060786870A078A870E078E870B4
:10367000681DFFF791FF94F8250005F8250F01203C
:103680006870FFF797FF002070BD0000D80300208E
:103690000EB558B14179C37982798DE80E0003796E
:1036A00002780649022000F06BFB0EBD03B004A1B6
:1036B00002205DF804EB00F063BB0000006F00081F
:1036C0005B494E464F5D20205B484F4F43485D208D
:1036D0004B65795374617475732063616C6C6261BE
:1036E000636B3A206672616D65206973204E554C9C
:1036F0004C0D0A0010B518B101784A1E072A01D9ED
:10370000022010BD0D4C2170017921714179617148
:10371000016A21624179042906D100F108011822C9
:1037200004F10800FDF713F8A079401CA0710120F6
:10373000E07100F005F8002010BD0000000400203A
:1037400003480168002901D002480847704700007B
:10375000500000200004002001490860704700006C
:10376000500000200149086070470000540000200C
:1037700003480168002901D002480847704700004B
:1037800058000020240400200EB558B1017F837E2C
:1037900042788DE80E00C37E02780649022000F0D0
:1037A000EFFA0EBD03B004A102205DF804EB00F0B7
:1037B000E7BA0000D47100085B494E464F5D2020F7
:1037C0005B484F4F43485D205363656E65446973A2
:1037D00070617463682063616C6C6261636B3A2032
:1037E0006672616D65206973204E554C4C0D0A0060
:1037F00001490860704700005800002010B5411EC4
:103800000F2901D9022010BD0549012208704A7014
:10381000C87E401CC8760A77FFF7AAFF002010BDBB
:1038200024040020AFF3008070B5040026D0607837
:10383000411E042922D2124D012806D002280AD0A6
:1038400003280ED0042819D10BE02078411E0F293F
:1038500014D8287007E01822A11CA81CFCF732FF1E
:1038600001E0A07EA87660786870E87E401CE8766B
:1038700001202877FFF77CFF002070BD022070BD7B
:1038800024040020401E072801D801207047002092
:103890007047401E022801D8012070470020704761
:1038A00001494860704700005C00002010B50346E5
:1038B0000846FFF7E7FF98B11046FFF7EAFF78B137
:1038C00008488370017042708179491C817101211F
:1038D000C1711438016909B114308847002010BD46
:1038E000022010BD70000020014988607047000070
:1038F0007C000020AFF3008010B5431E112B01D8CF
:1039000011B90AB1022010BD044B187059605A80D9
:103910009B6803B19847002010BD00007C00002088
:1039200003480168002901D0024808477047000099
:1039300078000020440400201FB504000FD0207A36
:103940006378227EE17D8DE80F0022781D490220F8
:10395000636800F015FA2078332807D010E004B02F
:1039600019A1BDE81040022000F00ABAA07A009028
:10397000607A58B121A322A10220626800F000FA07
:1039800020780E2804D0102802D00BE029A3F2E7FB
:103990000E2814D028A360680090227A28A1022063
:1039A00000F0EEF92078372808D1B4F8090031A1E9
:1039B00043BA00930220626800F0E2F91FBD3BA306
:1039C000E9E700006C7100085B494E464F5D20201E
:1039D0005B484F4F43485D2053657474696E6720A0
:1039E00063616C6C6261636B3A206672616D652025
:1039F0006973204E554C4C0D0A0000004F4E0000DC
:103A00005B494E464F5D20205B484F4F43485D2049
:103A10004A6F6754696D65206B65793D2575207324
:103A200077697463683D25732074696D653D2575FC
:103A3000730D0A004F464600484944450000000007
:103A40005B494E464F5D20205B484F4F43485D2009
:103A5000506167654D677220706167653D2575200F
:103A6000616374696F6E3D25732076616C3D2575C9
:103A70000D0A00005B494E464F5D20205B484F4FCA
:103A800043485D204D756C74696361737447726F50
:103A90007570206B65793D2575206769643D3078C8
:103AA0002530345820282575290D0A00414444004A
:103AB00001490860704700007800002010B558B137
:103AC00001461C220548FCF742FE04490120087605
:103AD000FFF726FF002010BD022010BD4404002087
:103AE000FEE70000134910B500208880087080218F
:103AF0001148FCF75EFE11486FF02E01026811605C
:103B00000068C16841F02001C1600DA000F0FEF91D
:103B10000CA000F0FBF916A000F0F8F919A000F0D5
:103B2000F5F908A000F0F2F9BDE810401DA000F082
:103B3000EDB9000000000020A8020020D000002005
:103B40000D0A00003D3D3D3D3D3D3D3D3D3D3D3D82
:103B50003D3D3D3D3D3D3D3D3D3D3D3D3D3D3D3D95
:103B60003D3D3D3D3D3D3D3D3D3D3D3D0D0A000062
:103B70002020486F6F636820434C492076312E30F7
:103B80000D0A0000202054797065202768656C704C
:103B90002720666F7220636F6D6D616E64730D0A0E
:103BA00000000000686F6F63683E20002DE9F0415F
:103BB000012688B0454F464C002524E00D280CD046
:103BC0000A280AD0082811D07F280FD0A1887F2981
:103BD00019D27854491CA18013E0A08808B13D5443
:103BE00026700D2000F088F90A200AE0A08850B164
:103BF000401EA080082000F07FF9202000F07CF912
:103C0000082000F079F96078A178884207D12078FF
:103C100000284FD02D496A460026A84622E02B48AE
:103C2000A1788030405CA178491C01F03F01A1706F
:103C300021780029E7D1C1E7491C08782028FBD06A
:103C40000928F9D010F0FF0F10D042F82610761C8A
:103C500000E0491C087848B1202801D00928F8D193
:103C600001F8018B087808B1082EE6DB002E16DD7E
:103C7000184F002505EB450057F820100098FCF779
:103C8000E1FDD0B16D1CEDB20A2DF3D312A000F00E
:103C90003DF9009800F03AF914A000F037F9A4F8C3
:103CA000048084F8008080210848FCF782FD18A079
:103CB00000F02CF908B0BDE8F08105EB450007EBFA
:103CC00080006946826830469047E8E7A8020020F5
:103CD00000000020B06B00085B434C495D20556E2E
:103CE0006B6E6F776E20636D643A20000D0A5B4344
:103CF0004C495D2054797065202768656C702720D9
:103D0000666F7220636F6D6D616E64730D0A0000E3
:103D1000686F6F63683E2000064910B54A788B785B
:103D2000521C02F03F029A4203D0034B4C781855C4
:103D30004A7010BD000000202803002001A10220CD
:103D400000F01EB85B494E464F5D20204C6F672047
:103D50006D6F64756C6520696E697469616C697AF0
:103D600065642C2055415254312062617564726142
:103D700074653A203131353230300D0A00000000D0
:103D80000FB4032810B509D804AB4FF4807105486F
:103D9000039AFCF76FFA034800F0B8F810BC5DF81E
:103DA00014FB0000A80100200D4808B5816941F00E
:103DB00020018161816901F020010091816941F058
:103DC00004018161816901F004010091816941F080
:103DD00008018161806900F00800009008BD0000C2
:103DE000001002400C4810B50A4901604FF4E1315F
:103DF0004160002181600C22C160C0E90412816130
:103E0000C161FEF7FDFD002803D0BDE81040FEF7BC
:103E100012B810BD00380140D00000200C4810B589
:103E20000A4901604FF416514160002181600C2263
:103E3000C160C0E904128161C161FEF7E1FD0028A3
:103E400003D0BDE81040FDF7F6BF10BD00440040B0
:103E5000180100200C4810B50A4901604FF4E13107
:103E60004160002181600C22C160C0E904128161BF
:103E7000C161FEF7C5FD002803D0BDE81040FDF785
:103E8000DABF10BD0048004060010020FEE7FEE7F9
:103E900070477047FEF764B930B58FB02821684687
:103EA000FCF7A9FC14210AA8FCF7A5FC01210804D1
:103EB000CDE900100024029402250491CDE90750B9
:103EC0004FF4E01009906846FEF7BEFA08B172B6EA
:103ED000FEE70F20CDE90A054FF48060CDE90C40E4
:103EE00002210AA80E94FEF7D3F9002801D072B679
:103EF000FEE70FB030BD704701B56423012269466B
:103F00000148FEF74AFE08BDD000002010B5044667
:103F1000FCF7B9FB0204120C07D02146BDE81040A3
:103F20004FF47A730148FEF738BE10BDD000002070
:103F300010B5406A0021C185C184FEF72AFC10BD7E
:103F400001680C3151E8002F22F4907241E80023FF
:103F5000002BF5D10168143151E8002F22F0010245
:103F600041E80023002BF5D1016B012909D101683B
:103F70000C3151E8002F22F0100241E80023002B01
:103F8000F5D1202180F8421000210163704708B567
:103F900090F84210222901D0022008BD82684FF417
:103FA00080539A4201D1016921B1816A9A421BD0A2
:103FB0004AB10AE00268816A5268C2F308020A80C4
:103FC000816A891C08E0026972B10268526802F0D5
:103FD0007F020A70816A491C8162C18D491E0904F1
:103FE000090CC18503D01BE002685268F1E7016843
:103FF000CA6822F02002CA600168CA6822F480728E
:10400000CA6001684A6922F001024A61202180F8F1
:10401000421000214163026B012A03D0FEF7BCFD70
:10402000002008BD016301680C3151E8002F22F027
:10403000100241E80023002BF5D101680A68D2067E
:1040400002D50A6849680091818DFEF7A1FBE7E778
:1040500070B5044600680169E26821F440511143DB
:1040600001612169A0680843616908432168CA6841
:1040700041F20C639A430243CA6020684169A26915
:1040800021F44071114341611E492068884202D1E8
:10409000FEF7A4F901E0FEF791F900EBC00101EB96
:1040A0000012606864218000B2FBF0F3B3FBF1F30F
:1040B0006FF018067343B2FBF0F5B2FBF0F605EBB8
:1040C0008305322303EB0515B5FBF1F5B6FBF1F6DD
:1040D00005F0F00505EB0615B2FBF0F6B2FBF0F0CB
:1040E000B0FBF1F06FF01802504306EB800003EBD9
:1040F0000010B0FBF1F0216800F00F002844886048
:1041000070BD0000003801402DE9F843984617467D
:104110000D460446089E24E0701C22D0FEF71AF8D3
:10412000A0EB0800B0421AD8CEB12068C168490798
:1041300017D5802D15D0402D13D00168C94309072C
:104140000FD401680025406800902046FFF7F8FE74
:104150000820606484F840500120BDE8F883032003
:10416000FBE72068006835EA000004D00020B84270
:10417000D2D00020F1E70120F9E7000010B50C4C87
:1041800020680168C943890607D44068C0B2FFF7B8
:10419000C3FD21686FF02000086020680168C943F2
:1041A000090704D46FF0080101602068406810BD61
:1041B000D000002010B50B4C20680168C943890667
:1041C00007D44068C0B202F01BFA21686FF02000EB
:1041D000086020680168C943090702D46FF008012C
:1041E000016010BD180100200148FEF7D3BA00009D
:1041F00060010020FEE7490050EAC12018BF0420FA
:104200004A0D18BF40F0010040F2FF72B2EB515F5F
:1042100008BF40F00200012808BF052070470907C9
:10422000090E002804DB00F1E02080F8001470473C
:1042300000F00F0000F1E02080F8141D70473038C6
:104240000A2801D20120704700207047FEE70000D5
:1042500030B595B00FA0FFF759FE174D002400BFF1
:1042600004EB440005EB800114A24968009155F865
:104270002030502101A8FCF717F801A8FFF746FEEF
:10428000641CE4B20A2CEBD315B010A0BDE830409A
:10429000FFF73CBE0D0A3D3D3D3D3D20486F6F633D
:1042A0006820434C4920436F6D6D616E6473203DFF
:1042B0003D3D3D3D0D0A0000B06B00082020252D3E
:1042C000313073202D2025730D0A00003D3D3D3D0A
:1042D0003D3D3D3D3D3D3D3D3D3D3D3D3D3D3D3D0E
:1042E0003D3D3D3D3D3D3D3D3D3D0D0A0000000055
:1042F00008B50DA0FFF70AFE00208DF8000001228E
:104300006946812000F040FD38B110A0FFF7FEFDA6
:1043100017A10020FFF734FD08BD20A0FFF7F6FD30
:1043200027A10220F6E700005B434C495D2053655E
:104330006E64696E67206A6F696E206E6574776F50
:10434000726B20636D642E2E2E0D0A005B434C4968
:104350005D204A6F696E206E6574776F726B2063A3
:104360006D64204641494C4544210D0A000000007F
:104370005B4552524F525D205B434C495D204A6F72
:10438000696E206E6574776F726B20636F6D6D61FF
:104390006E64206661696C65640D0A005B434C497C
:1043A0005D204A6F696E206E6574776F726B206353
:1043B0006D642073656E74204F4B210D0A00000060
:1043C0005B494E464F5D20205B434C495D204A6F60
:1043D000696E206E6574776F726B20636F6D6D61AF
:1043E0006E642073656E740D0A00000010B50CA099
:1043F000FFF78CFD00221146042000F0C5FC40B1FF
:1044000011A0FFF783FD19A10020BDE81040FFF7C0
:10441000B7BC22A0FFF77AFD29A10220F5E7000032
:104420005B434C495D2053656E64696E67206C6523
:10443000617665206E6574776F726B20636D642E94
:104440002E2E0D0A000000005B434C495D204C6598
:10445000617665206E6574776F726B20636D642082
:104460004641494C4544210D0A0000005B4552522B
:104470004F525D205B434C495D204C656176652061
:104480006E6574776F726B20636F6D6D616E642003
:104490006661696C65640D0A000000005B434C496D
:1044A0005D204C65617665206E6574776F726B2058
:1044B000636D642073656E74204F4B210D0A0000FC
:1044C0005B494E464F5D20205B434C495D204C6567
:1044D000617665206E6574776F726B20636F6D6DAA
:1044E000616E642073656E740D0A00003EB50C4663
:1044F000042807D019A0FFF709FD24A0FFF706FD47
:104500002CA01DE06946606800F090FB58B101A93D
:10451000A06800F08BFB20B19DF8040008B10828CA
:1045200003D92EA00CE035A00AE002A9E06800F053
:104530007DFB20B19DF808200AB1032A03D936A0DB
:10454000FFF7E4FC3EBD9DF804109DF80000FFF766
:10455000ADF901463DA000F07FFB3EBD5B434C49F9
:104560005D2055736167653A206D695F7363656EA1
:10457000655F7265706F72742070616765206B652E
:104580007920747970650D0A000000005B434C4986
:104590005D204578616D706C653A206D695F73636D
:1045A000656E655F7265706F7274203120312031E5
:1045B0000D0A00005B434C495D20747970653A2018
:1045C000313D636C69636B2C20323D646F75626CA6
:1045D000652C20333D6C6F6E670D0A005B434C49C0
:1045E0005D20496E76616C6964206B65792C20755D
:1045F000736520317E380D0A000000005B434C4992
:104600005D20496E76616C69642070616765207613
:10461000616C75650D0A00005B434C495D20496E75
:1046200076616C696420747970652C2075736520DF
:10463000313D636C69636B2C20323D646F75626C35
:10464000652C20333D6C6F6E670D0A006D695F73DA
:1046500063656E655F7265706F7274007CB50E463F
:104660000446022809D0032C07D016A0FFF74EFC01
:1046700020A0FFF74BFC29A020E001A9706800F002
:10468000D5FA48B19DF8045035B1082D04D8002161
:104690000A46032C02D008E029A00FE06946B06862
:1046A00000F0C4FA48B1694601222846FFF722F912
:1046B00001462BA000F016FB7CBD2EA0FFF726FCC8
:1046C0007CBD00005B434C495D2055736167653AD2
:1046D000206D695F73657474696E675F7265706F72
:1046E0007274206576656E74205B76616C75655DAD
:1046F0000D0A00005B434C495D204578616D706C8C
:10470000653A206D695F73657474696E675F726581
:10471000706F7274203820310D0A00005B434C49E1
:104720005D204576656E742038206D65616E73205E
:104730007570646174655F636F6E6669670D0A000A
:104740005B434C495D20496E76616C6964206576F7
:10475000656E742C2075736520317E32340D0A002D
:104760006D695F73657474696E675F7265706F728F
:10477000740000005B434C495D20496E76616C69B2
:10478000642076616C75652C2075736520307E32EF
:1047900035350D0A0000000009A0FFF7B7FB6420C3
:1047A000FDF7D6FBBFF34F8F0C4801680C4A01F4AC
:1047B000E06111430160BFF34F8F00BFFDE70000D0
:1047C0005B434C495D2053797374656D207265625B
:1047D0006F6F74696E672E2E2E0D0A000CED00E0CF
:1047E0000400FA0570B5BCB00D46032804D028A01B
:1047F000FFF78CFB2EA048E06C6801AE002C41D086
:104800002078302805D16078782801D0582802D146
:10481000A41C2078A8B3607898B3A07888BB2078CF
:10482000694600F0B9F960B360783BA900F0B4F9CB
:1048300038B39DF8EC009DF80010321D40EA0110DD
:104840008DF80700B11DA86800F0BCF9E0B145F291
:10485000AA50ADF8040002F031F98DF80600BDF859
:10486000080000909DF807301AA2602123A8FBF7EA
:104870001BFD23A8FFF74AFB01A802F003F93CB097
:1048800070BDFFE71EA000E028A0FFF73FFBF6E7A2
:104890005B434C495D2055736167653A20726570D2
:1048A0006F727420636D6420646174610D0A00008E
:1048B0005B434C495D204578616D706C653A2072B0
:1048C00065706F72742038382030323031303130BA
:1048D000310D0A005B434C495D205265706F727464
:1048E000696E67206672616D653A20434D443D30C4
:1048F0007825303258204C454E3D25750D0A000074
:104900005B434C495D20496E76616C696420636D40
:10491000642C207573652031206279746520686588
:1049200078206C696B652038380D0A005B434C4970
:104930005D20496E76616C696420646174612C202D
:10494000757365206576656E2D6C656E677468207D
:1049500068657820737472696E6720776974686F10
:1049600075742030780D0A0008B50DA0FFF7CEFA57
:1049700001208DF8000002466946832000F004FA09
:1049800038B110A0FFF7C2FA17A10020FFF7F8F91D
:1049900008BD20A0FFF7BAFA27A10220F6E7000021
:1049A0005B434C495D2053656E64696E67206D6F93
:1049B00064756C6520726573657420636D642E2E5A
:1049C0002E0D0A005B434C495D204D6F64756C658C
:1049D00020726573657420636D64204641494C45BF
:1049E00044210D0A000000005B4552524F525D20E9
:1049F0005B434C495D204D6F64756C652072657337
:104A0000657420636F6D6D616E64206661696C65AD
:104A1000640D0A005B434C495D204D6F64756C6505
:104A200020726573657420636D642073656E7420F5
:104A30004F4B210D0A0000005B494E464F5D202080
:104A40005B434C495D204D6F64756C6520726573E6
:104A5000657420636F6D6D616E642073656E740D97
:104A60000A00000010B50CA0FFF750FA0022114612
:104A7000052000F089F940B110A0FFF747FA18A10E
:104A80000020BDE81040FFF77BB920A0FFF73EFAF9
:104A900027A10220F5E700005B434C495D205175DA
:104AA000657279696E67206E6574776F726B2073BB
:104AB00074617475732E2E2E0D0A00005B434C49F1
:104AC0005D2053746174757320717565727920630C
:104AD0006D64204641494C4544210D0A0000000008
:104AE0005B4552524F525D205B434C495D205374ED
:104AF0006174757320717565727920636F6D6D6176
:104B00006E64206661696C65640D0A005B434C4904
:104B10005D205374617475732071756572792063BB
:104B20006D642073656E74204F4B210D0A000000E8
:104B30005B494E464F5D20205B434C495D205374DA
:104B40006174757320717565727920636F6D6D6125
:104B50006E642073656E740D0A00000000B591B09C
:104B600001F0ACFF034605A240216846FBF79CFB21
:104B70006846FFF7CBF911B000BD00005B434C491C
:104B80005D204D6F64756C652076657273696F6E1C
:104B90003A2025640D0A0000A0F13002092A01D84C
:104BA0000A700BE0A0F16102052A01D8573804E031
:104BB000A0F14102052A03D8373808700120704758
:104BC000002070472DE9FC4115460F4606002BD00A
:104BD00057B34DB3FBF757FD80B200F00101491EFA
:104BE000014221D04008288080281DD8002415E0EB
:104BF00016F814006946FFF7CFFFA8B106EB440092
:104C000001A94078FFF7C8FF70B19DF804009DF836
:104C1000001040EA01103855641CA4B22888A04254
:104C2000E6D80120BDE8FC810020FBE738B50C4642
:104C300005000CD05CB100226946FBF7EBFC29783B
:104C400029B1009919B1097809B9FF2801D90020C3
:104C500038BD2070012038BD10B59AB00C4603460F
:104C60000091094A602101A8FBF71EFB01A8FFF78C
:104C70004DF92CB105A10020FFF782F81AB010BD44
:104C80000DA10220F8E70000144D00085B455252C8
:104C90004F525D205B434C495D205363656E652038
:104CA0007265706F727420636F6D6D616E642066E3
:104CB00061696C65640D0A005B494E464F5D2020BA
:104CC0005B434C495D205363656E65207265706F70
:104CD000727420636F6D6D616E642073656E740D08
:104CE0000A00000010B59AB00C460346009109A2D4
:104CF000602101A8FBF7D8FA01A8FFF707F92CB14A
:104D00000AA10020FFF73CF81AB010BD13A1022041
:104D1000F8E700005B434C495D2025732072657302
:104D2000756C743A2025750D0A0000005B455252DF
:104D30004F525D205B434C495D2053657474696E2E
:104D400067207265706F727420636F6D6D616E6441
:104D5000206661696C65640D0A0000005B494E467F
:104D60004F5D20205B434C495D2053657474696E30
:104D700067207265706F727420636F6D6D616E6411
:104D80002073656E740D0A0070B5A2B0064645F238
:104D9000AA5014460D46ADF8000001F08FFE8DF8C4
:104DA00002008DF80360ADF8044035B12CB1224605
:104DB00029460DF10600FBF785FC684601F084FEEC
:104DC00022B070BD06280ED2DFE800F00D03050703
:104DD000090B012070470420704703207047022010
:104DE000704705207047002070477047012803D0A6
:104DF000022803D0FF207047002070470120704731
:104E0000012806D0022804D0032802D0042800D0AC
:104E1000FF20704770B504003BD01E484078002842
:104E200037D125780DB16D1EEDB2607A062830D2EB
:104E3000DFE800F02F031F222815227901212846E0
:104E400000F098FB6079FFF7BDFF0246032128467A
:104E500000F090FBA2790521284600F08BFBE07959
:104E600000EB800042002846BDE87040072100F0BA
:104E70006FBB2279012107E06079FFF7A3FF0246AB
:104E8000032101E0A27905212846BDE8704000F029
:104E900071BB70BDC900002006280ED2DFE800F00B
:104EA0000D030507090B01207047042070470320FC
:104EB00070470220704705207047002070470000AF
:104EC00030B4002831D01A49497800292DD1017811
:104ED00000292AD0082928D8037C6422062B24D252
:104EE000DFE803F0232303080D170279491EC8B237
:104EF000012117E0C279491EC8B2022112E0807A6E
:104F0000491EC0EB0020B0FBF2F0C2B2C8B20321D0
:104F100008E0407B491EC0EB0020B0FBF2F0C2B2BB
:104F2000C8B2072130BC00F041BB30BC7047000064
:104F3000C900002000282BD016494978002927D124
:104F40000178002924D0082922D8C3796422022BB1
:104F500008D0032B11D0042B1AD18279491EC8B274
:104F6000012108E00079491EC0EB0020B0FBF2F0FF
:104F7000C2B2C8B2032100F050BB4079491EC0EB59
:104F80000040B0FBF2F082B2C8B2052100F033BBA2
:104F900070470000C900002070B504003DD01F48D4
:104FA0004078002839D125780DB16D1EEDB2207AF8
:104FB000062832D2DFE800F03103181B12272279CD
:104FC0000121284600F047FB6079FFF70FFF0246FA
:104FD000FF2803D00621284600F03DFBA07900EB16
:104FE00080004200032113E02279012106E060796C
:104FF000FFF7FCFE0246FF280FD006212846BDE839
:10500000704000F028BBE07900EB800042000521F1
:105010002846BDE8704000F00DBB70BDC9000020FF
:1050200018B1012803D000207047012070470220EA
:10503000704710B500285CD00288002101EB1221D6
:10504000D2B2114482781144C12A30D006DCA12AA0
:1050500009D0A22A1FD0A32A4AD11CE0C22A3AD0E2
:10506000C32A45D141E0C3785A18002104E044180E
:10507000491C247989B222448B42F8D8C389D9B219
:105080001144002204E08418521C247C92B2214472
:105090009342F8D82CE0C3780022194404E0841825
:1050A000521C247992B221449342F8D820E082899C
:1050B000C38901EB1221D2B2114401EB1321DAB200
:1050C0001144002204E08418521C247C92B2214432
:1050D0009342F8D80CE08289C08901EB1221D2B248
:1050E000114401EB1021C0B201E090F8100101441D
:1050F000C8B210BD00280BD0002100F8FA1B418374
:1051000081838177C1774FF48971F838FBF751BB00
:10511000704700002DE9F05F044600260D4680F838
:10512000196190F800C093460F200127A11D2B02A2
:105130004FF0050A4FF4807904F11202BCF1100F10
:1051400013D2DFE80CF0080E1D566678D18592A4C4
:10515000ACB6BED1E1EA552D49D100BF84F8185153
:1051600044E0AA2D02D0552DF8D0F4E094F81801AF
:10517000AA3084F8180145F2AA5060800220CAE0E3
:10518000257194F818014946284484F81801A4F8B8
:105190001461A4F816616671E681268284F81261B2
:1051A000C4F80660C4F80A601046FBF702FBC12D84
:1051B00012D006DCA12D0BD0A22D0BD0A32D04D133
:1051C00008E0C22D08D0C32D08D0552D08D0C2E06C
:1051D0000320A0E007209EE009209CE00E209AE03A
:1051E0002046FFF787FF552084F818012770BDE897
:1051F000F09F657194F81801082D284484F818016F
:1052000071D81DB1A4F81461042084E084F800A0D2
:10521000EDE7B4F81401455494F81801284484F8D3
:105220001801B4F81401401C80B2A4F8140161798B
:105230008842EBD2DBE7258294F818114D452944CA
:1052400084F818114FD84DB3A4F81661062062E017
:10525000657194F81811082D294484F818117AD82A
:10526000E5B1A4F81461082055E0B4F814215554B0
:1052700094F81811294484F81811B4F81411491C31
:1052800089B2A4F814116279914244D2AFE7E38164
:1052900094F81801284484F818010A203BE0E089BA
:1052A0002843E08194F81801284484F818010B2061
:1052B00031E0238294F81801284484F818010C2066
:1052C00029E0218A2943218294F8182149452A445A
:1052D00084F818213FD82279C12A1CD1D9B1A4F869
:1052E00016610D2017E036E0B4F816118D5494F8CD
:1052F0001811294484F81811B4F81611491C89B200
:10530000A4F81611228ABFE784F8125194F81811F4
:10531000294484F81811207069E784F8135194F82F
:1053200018014FF48978A84208D184F81971BBF1AB
:10533000000003D04246A11CFBF7C4F92670A4F874
:105340001461A4F8166184F818614146A01CBDE8F8
:10535000F05FFBF72EBA2046BDE8F05FFFF7CABE4C
:10536000042801D0002070470120704770B5040068
:1053700037D01C484078002833D125780DB16D1EF8
:10538000EDB2207A01280CD002281ED0032823D0A9
:10539000042826D1A079FFF733FD0246FF2820D04C
:1053A0000FE022790121284600F062F9207950B1FE
:1053B0006079012813D0A079FFF722FD0246FF286B
:1053C0000FD0032103E00022FBE7227901212846C8
:1053D000BDE8704000F04CB96079012801D1042289
:1053E000EFE770BDC9000020012804D0022802D0D8
:1053F000032800D00020704700285AD08178C129A6
:1054000057DAA12903D0A22901D0A32951D1C1780B
:1054100000294ED00279012A05D0022A05D0032A9C
:1054200047D100F004BB00F069BA052941D3817966
:1054300009293ED2DFE801F03D05252D3D0D151D62
:105440003500C17919B1012933D100F081B900F0DB
:10545000FBB9C17919B101292BD100F0CDBE00F003
:1054600067BFC17919B1012923D100F055BC00F003
:10547000FDBCC17919B101291BD100F085BB00F039
:10548000FBBBC17919B1012913D100F045BD00F072
:10549000C5BDC17919B101290BD100F00FBE00F0D3
:1054A00059BEC17919B1012903D100F067BF00F0DD
:1054B000C5BF7047704700000EB500281AD00E49CE
:1054C0004978002916D10178002913D0082911D86C
:1054D0000179012900D000218DF80810012202A9CC
:1054E000CDE9001200781346401EC0B2002205210B
:1054F00000F069F80EBD0000C9000020008840BA25
:1055000070470188827849BA0904C07841EA0221CB
:10551000084370470EB5002817D00C494978002978
:1055200013D10178002910D008290ED8C1798DF83F
:105530000810012202A9CDE9001200781346401E8E
:10554000C0B20022082100F03EF80EBDC9000020C4
:105550003EB50C460546114602A801F091F902211C
:1055600002A8CDE90001234600220121284600F0CF
:105570002AF83EBD07B582B0012304AACDE9002375
:105580000B460022012100F01EF805B000BD0EB54B
:105590000123CDE900218DF808308DF809000023A2
:1055A00002AA0221A12001F079F80EBD07B582B050
:1055B000012304AACDE900230B460022072100F0B5
:1055C00002F805B000BD7FB502268DF80860DDE960
:1055D00008548DF809008DF80A108DF80B208DF80D
:1055E0000C30002302AA0521A120CDE9004501F0DD
:1055F00055F804B070BD3EB50C460546114602A8EC
:1056000001F03EF9022102A8CDE900012346002263
:1056100006212846FFF7D7FF3EBD07B582B001231C
:1056200004AACDE900230B4600220621FFF7CBFF99
:1056300005B000BD3EB50C460546114602A801F076
:105640001FF9022102A8CDE90001234600222846C5
:10565000FFF7B9FF3EBD07B582B0012304AACDE92B
:1056600000230B4600220221FFF7ADFF05B000BD6D
:1056700007B582B0012304AACDE900230B4600221E
:105680000321FFF7A0FF05B000BD002811D00021C5
:105690000172C1750176FF22427042728272C2723B
:1056A000027301704160C0F80D10C0F81110A0F82D
:1056B000151070471CB5254B5B78002B41D1012399
:1056C0008DF8043000238DF800308DF8013039B1A9
:1056D000022A05D30B788DF800304B788DF8013015
:1056E000C01F0B282DD2DFE800F00F06132D2C0B66
:1056F000171B1F23270019B112B108788DF8040079
:10570000012201A904201AE002226946032016E0C2
:10571000012201A9112012E0012201A906200EE0B8
:105720000222694607200AE0012201A90A2006E0B8
:10573000022269460F2002E0022269461020FFF78C
:1057400026FF1CBDCA2000F071FF1CBDC90000204F
:105750002DE9F04105463B48FFF797FF39482621E0
:105760002838FBF726F8374C6879283C401C207015
:1057700069793448491C002D417660D0E9780529C3
:105780005DD3297A0A2605F11007082957D2DFE8E8
:1057900001F05604131C1E202636297CCA074FF040
:1057A000060101D00E2200E0102202704160017259
:1057B00007206072287C37E0082060722148EA895F
:1057C00039461E38FAF77EFF33E0092002E06672A0
:1057D00001E00B206072287C84F8240029E01B2162
:1057E00080460170E889022820D33846FFF786FEFC
:1057F000B0FBF6F0C1B20C20C8F804100EE01A217C
:1058000080460170E889022810D33846FFF776FEFB
:10581000B0FBF6F0C1B20D20C8F804106072384633
:10582000FFF76CFEB0FBF6F084F824000548FEF7A5
:1058300045F9BDE8F04103482838FDF7FFB9BDE858
:10584000F0810000FC0600202DE9F041050050D059
:10585000E87805284DD326212748FAF7AAFF68796A
:10586000254C401C05272070002060722B7A0420F4
:1058700002210A264FF0030805F110020A2B38D244
:10588000DFE803F03705050C0C16161C1C27E88909
:1058900000282ED0287C2071617225E0E88900283C
:1058A00027D0287CFFF7F8FA607184F809801BE0A4
:1058B000E98900291DD0297CA17114E0E88902281A
:1058C00017D31046FFF71AFEB0FBF6F0E0716772CF
:1058D0000AE0E88902280CD31046FFF70FFEB0FB60
:1058E000F6F0207206206072BDE8F0410248FDF734
:1058F000A5B9BDE8F0810000D406002030B587B01E
:10590000040038D0E078022835D3607904F110051E
:105910000F2830D2DFE800F02F0817312F4149530C
:105920002F2F60686D787D00E089042823D36846B6
:10593000FFF7ABFE39208DF800002846FFF7DEFDAB
:10594000ADF80D000EE0E089042814D36846FFF797
:105950009CFE38208DF80000207C8DF80D00607CC6
:105960008DF80E00A07C8DF80F00E07C8DF8100003
:105970006846FEF7A3F807B030BDE0890228FAD3E5
:105980006846FFF782FE3D208DF80000207C8DF8F0
:105990000D00607C8DF80E00EAE7E0890028EAD06F
:1059A0006846FFF772FE3B2006E0E0890028E2D05F
:1059B0006846FFF76AFE3C208DF8000022E0E0898F
:1059C0000228D8D36846FFF760FE41208DF800001A
:1059D0002846FFF793FD28E0E0890028CBD06846F1
:1059E000FFF753FE3E20E7E76846FFF74EFE18201C
:1059F00003E06846FFF749FE19208DF80000E089B2
:105A00000028B8D0207C10E06846FFF73EFE1F203B
:105A1000F3E7E0890428AED36846FFF736FE0D2091
:105A20008DF800002846FFF76CFD0190A0E710B547
:105A300088B0040077D0E078022874D36846FFF776
:105A400024FE62790B21FF20222A6CD2DFE802F0CB
:105A50006B1115191B1D1F282A2C2E303234363895
:105A60003D3F4143456B4C585A6D71738284939509
:105A700097991C2002E0207C4EE01D208DF800004C
:105A800064E01E20FAE71F20F8E72020F6E70A214D
:105A900024E0217C64225143B1FBF0F0C0B23BE032
:105AA0002120EBE7222119E0232117E04520E5E73B
:105AB0002620E3E72720E1E72820DFE72920DDE7AC
:105AC0002A2033E0208A40BA26E00620D6E70820C4
:105AD000D4E7242102E0252100E02C218DF80010DC
