:020000040800F2
:10000000400C00203502000867420008B93E000895
:1000100065420008331E0008614600080000000029
:10002000000000000000000000000000FD42000889
:10003000351E00080000000069420008FF42000869
:100040004F0200084F0200084F0200084F0200084C
:100050004F0200084F0200084F0200084F0200083C
:100060004F0200084F0200084F0200084F0200082C
:100070004F0200084F0200084F0200084F0200081C
:100080004F0200084F0200084F0200084F0200080C
:100090004F0200084F0200084F0200084F020008FC
:1000A0004F0200084F0200084F0200084F020008EC
:1000B0004F0200084F0200084F0200084F020008DC
:1000C0004F0200084F0200084F0200084F020008CC
:1000D0004F020008E945000821460008554600087F
:1000E0004F0200084F0200084F02000800F002F81B
:1000F00000F090F80AA090E8000C82448344AAF132
:100100000107DA4501D100F085F8AFF2090EBAE82F
:100110000F0013F0010F18BFFB1A43F0010318473B
:1001200040B2000060B20000103A24BF78C878C125
:10013000FAD8520724BF30C830C144BF04680C60ED
:10014000704700000023002400250026103A28BF35
:1001500078C1FBD8520728BF30C148BF0B60704739
:100160006E2900F02A84702900F08581662909F043
:100170003D85652909F03A85672909F037856129A8
:1001800009F0368503681B0A28BF41F08001692900
:1001900000F0F680642900F0F380752900F0F0800B
:1001A0006F2900F01885782900F05181E92900F0C5
:1001B000B384E42900F0B084F52900F0AD84EF2980
:1001C00000F01585F82900F050810368DB0928BF8D
:1001D00041F08001632900F03484732900F03984F0
:1001E000E32901F04381F32901F0488100207047A1
:1001F0001FB500F05BFD04000020002109F0CAFCDF
:10020000401C60600020002109F0DAFCE0601FBDA6
:1002100010B510BD01F064F91146FFF7E9FF07F0D2
:10022000ABF901F035FA03B4FFF7F2FF03BC04F0B9
:1002300043FA00000948804709480047FEE7FEE707
:10024000FEE7FEE7FEE7FEE7FEE7FEE7FEE7FEE786
:1002500004480549054A064B704700006143000801
:10026000ED00000840060020400C0020400800205F
:10027000400800207CB51D4616460C00009001D0B9
:100280002044401E074B7B442A4669460190304675
:1002900000F0ADFB05461CB10020694600F0BAFB3A
:1002A00028467CBD950700000FB47CB50C0009AA58
:1002B000009001D02044401E084B7B4469460190C9
:1002C000089800F094FB05461CB10020694600F038
:1002D000A1FB28467CBC5DF814FB00006107000010
:1002E00070B5044685690068C10601D5302600E076
:1002F0002026C00707D070BDD4E9012130469047C1
:10030000206A401C20626D1EF6D570BD70B5044693
:1003100085690078C00707D170BDD4E9012120208C
:100320009047206A401C20626D1EF6D570BD70B5E6
:100330000C460546012A05D02878800600D5EA69D2
:10034000002302E0012305E05B1C934202D2E05C43
:100350000028F9D1A869E618C01AA861286A1844CB
:1003600028622846FFF7BCFF04E0D5E9012114F814
:10037000010B9047B442F8D32846FFF7C7FF70BD82
:100380002DE9F0410646002410687529314616A56E
:1003900010D000F0A7FA002802DA404213A507E0C7
:1003A00031688A0701D512A502E0490704D511A5D5
:1003B000012401E000F09FFA00210A2206F124073F
:1003C00009E0B0FBF2FCB0FBF2F302FB1C003030A2
:1003D00078541846491C0028F3D123462A46304653
:1003E000BDE8F04100F090BA000000002D000000D0
:1003F0002B00000020000000F0B40D460188090524
:1004000002D5214C7C4402E01F4C7C440E34002178
:1004100000F1240608E002F00F071209E75D42EA46
:1004200003721B097754491C52EA0307F3D102787F
:100430000023120704D5702D06D009B10223113410
:100440002246F0BC00F060BA01231034F8E770B522
:1004500004460D462146106800F04DFA0246294632
:100460002046BDE870400023C6E7D21D22F00703F6
:10047000D3E90023C0E70368126843F02003036058
:100480000823C3610023B7E7D29900002DE9F05F8C
:10049000894604464FF0000ADFF874B1FB44C0F807
:1004A00020A02046E1688847002874D0252806D07F
:1004B000D4E901219047206A401C2062F1E7002620
:1004C0005F462046E16888472028054607DB312D36
:1004D00005D2781910F8200C08B10643F1E7B007EF
:1004E00001D526F00406C4F81CA00027C4F818A003
:1004F0002A2D09D0284604F0D8F838B304EB870831
:10050000303DC8F8185019E059F8041B204604EB98
:1005100087029161E1688847012F054618D1E0699B
:10052000002820DA26F020061DE0D8F8180000EB9D
:10053000800005EB40003038C8F818002046E1681C
:100540008847054604F0B1F80028EED1012F0AD003
:100550002E2D08D12046E16888477F1C0546022FD2
:1005600046F02006C4DBA069002803DA404246F0CA
:100570000106A061F00701D026F010066C2D0BD00B
:10058000682D09D04C2D39D06A2D35D0742D35D039
:100590007A2D33D016E038E0E1682F4620468847B0
:1005A000B842054609D16C2F26D04FF48060E1682F
:1005B000064320468847054604E06C2F1AD04FF4C6
:1005C000807006430DB3A5F14100192802D82035EB
:1005D00046F400664A462946204626604E46FFF706
:1005E000BFFD80B101280BD0F61D26F0070000F1F9
:1005F000080956E74020E4E78020D8E70020D6E746
:1006000006F104094DE7284652E7206ABDE8F09F4D
:10061000629900002DE9F05F93460F46804604463C
:10062000002600F05BF9D0F80090824614F8015BD8
:100630002DB100F04BF90068405DC007F6D12B2DBD
:1006400002D02D2D1AD0641E0021CAF800105A467F
:100650003946204600F0D6FA014627B13868A04254
:1006600001D1C7F80080DAF80000022809D0CAF8E2
:100670000090700505D54842BDE8F09F46F48066BD
:10068000E2E70846F8E710B5431C02E010F8011B4A
:1006900071B18107FAD14FF0013202C88C1A8C4334
:1006A00014EAC211F9D0C01A0A0603D0C01E10BD48
:1006B000C01A10BD0A0401D0801E10BD0902FCD072
:1006C000401E10BD032A40F2308010F0030C00F0F1
:1006D000158011F8013BBCF1020F624498BF11F87C
:1006E00001CB00F8013B38BF11F8013BA2F1040235
:1006F00098BF00F801CB38BF00F8013B11F00303AD
:1007000000F02580083AC0F0088051F8043B083A10
:1007100051F804CBA0E80810F5E7121D5CBF51F8B2
:10072000043B40F8043BAFF30080D20724BF11F82C
:10073000013B11F801CB48BF11F8012B24BF00F891
:10074000013B00F801CB48BF00F8012B704710B502
:10075000203AC0F00B80B1E81850203AA0E81850B9
:10076000B1E81850A0E81850BFF4F5AF5FEA027C7A
:1007700024BFB1E81850A0E8185044BF18C918C0E9
:10078000BDE810405FEA827C24BF51F8043B40F88A
:10079000043B08BF7047D20728BF31F8023B48BF6F
:1007A00011F8012B28BF20F8023B48BF00F8012BAD
:1007B00070474FF000020429C0F0128010F0030CC3
:1007C00000F01B80CCF1040CBCF1020F18BF00F844
:1007D000012BA8BF20F8022BA1EB0C0100F00DB8F3
:1007E0005FEAC17C24BF00F8012B00F8012B48BF51
:1007F00000F8012B70474FF0000200B513469446F5
:100800009646203922BFA0E80C50A0E80C50B1F168
:100810002001BFF4F7AF090728BFA0E80C5048BF7C
:100820000CC05DF804EB890028BF40F8042B08BF1A
:10083000704748BF20F8022B11F0804F18BF00F816
:10084000012B70474FF0013C50F8042B51F8043B4A
:100850009A4221D1A2EB0C03934313EACC1317D194
:1008600050F8042B51F8043B9A4215D1A2EB0C032B
:10087000934313EACC130BD150F8042B51F8043BEB
:100880009A4209D1A2EB0C03934313EACC13DBD0B9
:100890004FF00000704700BFD01A01BAB1FA81F1E1
:1008A00001F0180122FA01F0CB40C1F12001DBB2C6
:1008B000C0B2C01A2CFA01F3D11A914311EAC31144
:1008C000E6D17047704770477047000010B500F0E0
:1008D000EDF9001D10BD00BFBD920000004870473B
:1008E000E005002009684A0501D540B27047C905F6
:1008F000FCD500B2704709684A0501D5C0B27047FF
:10090000C905FCD580B270472DE9F0470D469946E0
:100910009246044600F124080168880604D5E0697F
:1009200021F01001216000E00120A84201DD471BF9
:1009300000E00027A1697A1902EB0900081AA061FA
:100940002078C00602D42046FFF7CAFC002608E043
:10095000D4E901211AF806009047206A401C761C51
:1009600020624E45F4DB2078C0060AD52046FFF70A
:10097000B7FC06E0D4E9012130209047206A401CF2
:100980002062381EA7F10107F4DC07E0D4E9012159
:1009900018F805009047206A401C2062281EA5F127
:1009A0000105F3DC2046FFF7B1FC2078000602D5F4
:1009B0000220BDE8F0870120FBE711680268006AA9
:1009C000530501D508700AE0D30501D5088006E07B
:1009D000130603D5C217C1E9000200E00860012038
:1009E0007047000001694A1C02610878704700B531
:1009F0008FB0CDE901310021059105497944CDE958
:100A0000031011466846FFF741FD0FB000BD00001E
:100A1000E5FFFFFF0A6802F8010B0A607047D1E9A1
:100A200000239A4202D2531C0B601070704710B51D
:100A3000436913B1AFF3008001E0FFF778FC0120B8
:100A400010BD127800F124010A7000224A700122C0
:100A5000EDE711684FF0FF32E9E700002DE9FF5F95
:100A600015468A460446DFF8AC80F8440027D8E9EA
:100A700000103E46CDE9001010E03AF816106A4624
:100A800002A800F00DFD411C07D02178890603D58E
:100A9000E269391891420DD80744761C2078800607
:100AA00002D5E069B84205DDAE42E6DB3AF8160051
:100AB0000028E2D1A069C01BA0612046FFF710FC0E
:100AC000D8E90010CDE90010002017E03AF818101E
:100AD0006A4602A800F0E4FCB0F1FF3F81460BD06B
:100AE00000250DF1080B05E0D4E901211BF80500F4
:100AF00090476D1C4D45F7D308F10100B042804688
:100B0000E4DB206A384420622046FFF7FFFBBDE8A3
:100B1000FF9F0000A69300002DE9F0418046D21D02
:100B200022F007020025D2E90002F52915A614D00B
:100B3000011E72F1000106DA0023D0EB030063EB23
:100B4000020211A608E0D8F800108B0701D50FA605
:100B500002E0490701D50EA601251146002408F13F
:100B6000240704E000F0A6F830323A55641C50EA3D
:100B70000102F7D12B46324621464046BDE8F041FE
:100B8000FFF7C2BE000000002D0000002B00000097
:100B90002000000030B4002100F1240408E002F03D
:100BA0000705D208303542EA4372DB086554491C18
:100BB00052EA0305F3D10468002310A2250707D5E4
:100BC000A40600D421B1C46901230DA2641EC4612E
:100BD00030BCFFF799BE10B5044621461068FFF7F8
:100BE0008AFE02462046BDE810400023D2E7D21D0F
:100BF00022F00701D1E90023CCE70000000000004B
:100C0000300000002DE9F05F824615468B46002734
:100C10000AF10104B9460078302801D09DB113E0F3
:100C200014F8010B0127782803D0582801D045B1CA
:100C30000AE00DB1102D07D1002714F8010B102583
:100C400002E0082500E00A250026B0460EE005FB7C
:100C5000080005FB06F101271FFA80F801EB10469A
:100C6000B6F5803F00D3B94614F8010B294600F0D1
:100C700009FC0028EBDABBF1000F05D00FB1641EB0
:100C800000E05446CBF80040B9F1000F06D0FFF762
:100C900025FE02210160C81EBDE8F09F48EA06401B
:100CA000FAE7000000487047E00500200048704760
:100CB0000006002030B5B0F10A024FEA900E71F143
:100CC00000034EEA817EB0EB0E0061EB91014FEA2A
:100CD000101E4EEA017E10EB0E0041EB11114FEA9F
:100CE000102E4EEA016E10EB0E0041EB11214FEA7F
:100CF000104E4EEA014E10EB0E0041EB1141401830
:100D000041F100014FEAD00040EA41704FEAD101C1
:100D100010EB80054FEA810444EA907444EB01042F
:100D20006D1944EB0404521BA3414FF0000348BF6C
:100D30000A3200D530BD401C41F1000130BD704782
:100D40002DE9FF4F0C461E464FF0FF378BB0D2E91E
:100D50000001DDF860800A908A46C1F30A5505B9A2
:100D60003D46002108464FF00000BAF1000F00F4A4
:100D7000400005DA00EB80004FF4400101EA50002A
:100D80004FEA9059B9F1010F00DDB9460A9850EACF
:100D90004A000ED044F61050A5F2FF3545432F14FB
:100DA000B8F1000F1ED07542291E1EDDC9F10002E8
:100DB0001CE0B8F1010F4FF0000001D0302103E03A
:100DC000F24305E02154401CB042FBDB30460022D8
:100DD000002121540B99C1F80880C1E900200FB00F
:100DE000BDE8F08FBD1B6D1CDEE74A4600DA6942A4
:100DF00006A800F0DBFB06AB93E8070003AB83E833
:100E0000070050460A9900F04CFC8DE80700A0F559
:100E100000501F3800900398002D0ADD42F21F0198
:100E20004A460844002303A90390684600F0B5FE33
:100E300009E0A0F500504A461F38002303A903909B
:100E4000684600F0BFFE8DE807000004000C03D0E8
:100E50004FF0FF30410800E01046B8F1000F03D01A
:100E60000022009215461EE0751E05D4FFF722FFF2
:100E7000303262556D1EF9D5B3460122084302D0C7
:100E800000227F1C04E02078302801D100227F1E40
:100E9000002A099784D01DE0112D07DAFFF70AFF19
:100EA000303262556D1C50EA0102F5D1084302D080
:100EB0000098C8B10EE00021681E05E0235C625C6A
:100EC00063542254401E491C8142F7DBAB46A81BE9
:100ED000401E0990002004F80B000B98099AC0F8F6
:100EE0000880C0E9002B7AE711264FF0000857E789
:100EF0002DE9F04F88460446D21D22F0070191B03B
:100F0000D1E90001CDE90A0103F0ABFB02460B98E1
:100F1000C00F01D02D2007E02068810701D52B20CC
:100F200002E0202101EAC000032A099001D0072A2B
:100F300005DB03464146204600F0F8FA0BE1207835
:100F4000800601D5E06900E00620B8F1650F814612
:100F500006D0B8F1660F18D0B8F1670F70D131E044
:100F60000020B9F1110F009001DB112301E009F11C
:100F700001030AAA01A90CA8FFF7E2FEDDE90C7043
:100F8000002609F10105834647E001204B46009009
:100F90004FF000470AAA01A90CA8FFF7D1FEDDE92E
:100FA0000DB00C995D46002610B909F101000D182D
:100FB000B9EB050003D4C0F1FF3609F10105A5EB3B
:100FC00009002BE0B9F1010F01DA4FF0010900200F
:100FD000B9F1110F0090484601DD112300E00346EE
:100FE0000AAA01A90CA8FFF7ABFEDDE90C704D467B
:100FF00000268346207800070AD4AB4500DA5D4618
:1010000001A8012D04DD411911F8011C302907D078
:101010004F4502DA17F1040F04DA012082460FE08F
:101020006D1EEEE7002F02DCED1B3E4403E0781C52
:10103000A84200DD7D1CB81B00F1010A4FF00047FB
:101040002078000703D4AA4501DB4FF0FF3A0021C6
:10105000B7F1004F0DF143088DF8431024D0022062
:101060002B23002F01DA7F422D230A21021EA0F13B
:10107000010000DC5FB197FBF1FC97FBF1F201FB93
:101080001C7C17460CF1300C08F801CDEEE7A8F1F6
:10109000010003702188090501D5452100E0652183
:1010A000A0F1010800F8011C09980FA9A1EB08079D
:1010B000FF1D00B10120411901EBEA70A16938441C
:1010C000081A401EA0612078C00602D42046FFF70F
:1010D00007F9099828B1D4E901219047206A401CFA
:1010E00020622078C00622D52046FFF7F9F81EE0DE
:1010F000002E04DBB34502DD01A8805D00E0302056
:10110000D4E901219047206A401C2062761CAAF194
:1011100001005FEA000A0AD1FFF7C8FDC068016854
:10112000405CD4E901219047206A401C2062281EBF
:10113000A5F10105DCDC07E0D4E9012118F8010B79
:101140009047206A401C2062381EA7F10107F3DC9B
:101150002046FFF7DBF8032011B041E62DE9F04F00
:1011600004460D46D21D22F0070089B0D0E9009751
:101170004846394603F075FA0246F80F01D02D2390
:1011800007E02068810701D52B2302E0202101EA36
:10119000C0038DF820300BB1012000E00020032AAD
:1011A000824601D0072A04DB2946204600F0BEF91A
:1011B0003FE12078800601D40D2500E0E569C7F302
:1011C0000A560D2D49DA00214FEA175B08464FF009
:1011D0000000002F00F4400007DA00EB80004FF41D
:1011E000400100EBD07001EA60008115012901DDAA
:1011F0004FF0FF3100224FEA850CBCF1180F06D3E7
:101200001346ACF118004FF08052C24003E04FF497
:10121000801323FA0CF30CF10C0CBCF1200F04D357
:10122000ACF1200C09FA0CF001E007FA0CF00029EF
:101230004FF0004801DD18B90FE00ED140450CD346
:1012400019EB02095F4121B9404502D19F4329EAC8
:101250000209BBEB175F00D0761C2088000502D581
:101260007B48784402E07A487844193808AA302349
:1012700002F80A30037C0AF10101002E0AF1020A89
:1012800053546A4602DC4FF0300101E04FF0310167
:101290004FF001088DF8001002D0A6F2FF3603E0EF
:1012A00059EA470100D06B4E002D02DC2178090776
:1012B00004D54FF002082E218DF80110C4460021FC
:1012C0000BE0C7F303433F01C35C491C6D1E02F8EA
:1012D0000830052908F1010801DA002DF1DC0021B0
:1012E0000CE000EB1973491C1B786D1E082902F8ED
:1012F00008304FEA091908F1010801DA002DF0DC85
:1013000021688B0602D516E0A8F10108E04505DD4D
:1013100002EB080313F8013C302BF5D0B8F1000FB5
:1013200009DD02EB080313F8013C2E2B03D109075A
:1013300001D4A8F10108002D05DD3E2102F80810B6
:101340006D1E08F10108407C002E02F8080008F12B
:10135000010804DA2D20764202F8080002E02B2072
:1013600002F808000A214FF47A70864208F1010859
:101370000BDB96FBF0F3303302F8083096FBF0F30A
:1013800008F1010800FB136601E0642E0CDB642009
:1013900096FBF0F3303302F8083096FBF0F308F1D7
:1013A000010800FB136601E00A2E06DB96FBF1F054
:1013B000303002F8080008F1010896FBF1F001FB5B
:1013C0001060303002F80800A16908F1010808EB4C
:1013D000050202EB0A00081AA0612078C00602D4B8
:1013E0002046FEF77DFF216A08AE01EB0A0020626D
:1013F00004E0D4E9012116F8010B9047BAF1010A83
:10140000F7D22078C00602D52046FEF769FF6E4667
:1014100009E016F8010B3E280FD0D4E901219047CE
:10142000206A401C2062B8F10108F2D22046FEF783
:101430006DFF09B00320BDE8F08F206A28442062C8
:1014400003E0D4E90121302090476D1EEBD3F8E78B
:10145000C98B000002FCFFFF10B5436913B1AFF365
:10146000008001E0FFF7FAFA012010BD128800F1B8
:10147000240182840022C2840122EDE711684FF02A
:10148000FF32E9E73A2800D2303820F02002412A22
:1014900001D3A2F13700884201D34FF0FF307047EB
:1014A00070B516460C460546FFF710FA036893F828
:1014B0000101012806D0FF2C0FD8185D68B101206A
:1014C0002C7070BDD3F807013246214603F2071392
:1014D00003442846BDE8704018474FF0FF3070BD08
:1014E0007546FFF7DFFBAE4605006946534620F020
:1014F0000700854618B020B5FEF7AAFEBDE82040DB
:101500004FF000064FF000074FF000084FF0000BBF
:1015100021F00701AC46ACE8C009ACE8C009ACE872
:10152000C009ACE8C0098D46704700002DE9F041C4
:101530001F46044603260168072A01F4006004DB05
:1015400008B116A505E016A503E008B115A500E051
:1015500015A521F010002060A069C01EA0610FB188
:10156000401EA0612046FEF7BBFE4FB1D4E9012129
:1015700038469047206A401C2062C01C206206E06A
:10158000206AFAE7D4E9012115F8010B9047761E8D
:10159000F8D22046FEF7BAFEBDE8F0814E414E007B
:1015A0006E616E00494E4600696E66002DE9F04797
:1015B000814616468AB0354878440DC88DE80D003E
:1015C00032487844801C03AC0DC884E80D0041F615
:1015D0009B300844372190FBF1F290FBF1F5A5F127
:1015E000800501FB12041B3C02D56442012000E08F
:1015F0000020DFF898A080460027FA44AAF1BE0A2E
:101600000EE0E0070AD03246684607EB47010123A7
:101610000AEB810100F0D6FA8DE8070064107F1C08
:10162000002CEED1194F7F44AE3F19E0E80715D0EA
:1016300007EB04100DF1180A90E80E008AE80E007E
:10164000C068F04201D1981908903246012306A9DA
:1016500003A800F0B7FA03AB83E807006D10641C21
:10166000002DE3D14FF0010332466946B8F1000F77
:1016700003A802D000F091FA01E000F0A3FAC9E952
:101680000001C9F808200AB0BDE8F087048900000D
:1016900010B50446AFF300802046BDE81040FEF7C9
:1016A000C2BD5FEA400C08BF91F0000F4FEA8C23E7
:1016B0004FEAC12243EA51514FEA1C5018BF00F5CE
:1016C000F0404FEA300018BF41F000415FEA6C5C27
:1016D00000F02980BCF1FF3F08BF40F08040704718
:1016E000130C06BF12044FF0100C4FF0000C130E39
:1016F00004BF12020CF1080C130F04BF12010CF10D
:10170000040C930F04BF92000CF1020CD30F04BF22
:1017100052000CF1010C11464FF00002A0F11F0025
:10172000A0EB0C00704711F0004F08BF704731F07C
:1017300000413FF4D5AF0B0C06BF09044FF0100C6D
:101740004FF0000C0B0E04BF09020CF1080C0B0F3C
:1017500004BF09010CF1040C8B0F04BF89000CF1CC
:10176000020CCB0F04BF49000CF1010CCCF120039B
:10177000A0EB0C0022FA03F302FA0CF241EA030197
:1017800000F10100704720F07F4C80EA030023F055
:101790007F47ACEB070303F57C5300F0004003F1F7
:1017A000FF032DE980494FEA154B09B44FEA144372
:1017B00025EA0B4E24EA03480FF2042606EB132712
:1017C00049083E785FEA320203FB0667C7F5000767
:1017D00007FB06F64FEA54374FEAD64606F10206F3
:1017E00007FB066CCCF1005C4FEA1C472CEA074C67
:1017F00007FB06F40CFB06F504EB15464FEA9616BC
:1018000034BF00204FF000404FEAD13706FB07FC01
:101810004FEA1C4C0CFB0BF7D21B03FB0CF761EBE4
:1018200007010CFB0EF7B0EB074072EB17420CFB05
:1018300008F734BFA2EB0742B2EB074261EB174156
:101840004FEA0C444FEA910706FB07FC4FEA1C4C99
:101850000CFB0BF7B0EBC74072EB573203FB0CF7F6
:1018600034BFA2EBC742B2EBC74261EB57310CFB6E
:101870000EF7B0EBC70072EB57720CFB08F734BFE2
:10188000A2EBC702B2EBC70261EB5771039F4FEAAD
:10189000816141EA921104EBCC044FEAD1374FEA5F
:1018A000826206FB07FC42EA90124FEA80604FEA30
:1018B0001C4C0CFB0BF7D21B03FB0CF761EB070175
:1018C0000CFB0EF7B0EB074072EB17420CFB08F76E
:1018D00034BFA2EB0742B2EB074261EB17414FEA7C
:1018E0008C554FEA910704EB9C2406FB07FC4FEA5A
:1018F0001C4C0CFB0BF7B0EBC74072EB573203FBF1
:101900000CF734BFA2EBC742B2EBC74261EB5731D1
:101910000CFB0EF7B0EBC70072EB57720CFB08F72D
:1019200034BFA2EBC702B2EBC70261EB577115EBF4
:101930004C254FEA816141EA92114FEA82624FEAF7
:10194000D13742EA901206FB07FC44F100044FEA4B
:1019500080604FEA1C4C0CFB0BF7D21B03FB0CF70F
:1019600061EB07010CFB0EF7B0EB074072EB17427F
:101970000CFB08F734BFA2EB0742B2EB074261EB66
:10198000174115EB1C154FEA813141EA92414FEAAC
:10199000823242EA90424FEA80304FEA0C7644F1BC
:1019A000000448EA03434EEA0B484FF0000EB2EB46
:1019B000080C71EB030724BF624639464EEB0E0E4E
:1019C0004FF0000B0018524149414BEB0B0BB2EBAF
:1019D000080C71EB03077BF1000B24BF624639460C
:1019E0004EEB0E0E4FF0000B0018524149414BEBED
:1019F0000B0BB2EB080C71EB03077BF1000B24BF60
:101A0000624639464EEB0E0E51EA020718BF46F009
:101A1000010616EB0E7655F1000254F1000103D5D4
:101A2000BDE88901BDE80088BDE88901BDE800483E
:101A3000B619524141EB0101A3F1010370478080C7
:101A40007F7E7D7C7B7A7978777676757473727118
:101A500071706F6E6E6D6C6C6B6A6A6968686766D0
:101A600066656464636362616160605F5F5E5E5D62
:101A70005D5C5C5B5B5A5A595958585757565655D6
:101A800055555454535352525251515050504F4F38
:101A90004F4E4E4D4D4D4C4C4C4B4B4B4A4A4A4988
:101AA00049494848484747474746464645454544CB
:101AB0004444444343434342424242414141002B58
:101AC0009C4630D477002BD01CB54FEA370703B4BF
:101AD0004FF010004FF01001BAF1000F06D0BCF12A
:101AE000000FDCBF40F0080040F008014FF000009C
:101AF0000FBCBDE810400BF1010BBBF1010F08BF9B
:101B00005FEA170722BF12F1010211F101014FF044
:101B1000004143F1000300F0004043EA0000704739
:101B2000F9D35708D0E746EA064613F1400F4FEACB
:101B300016461FDD13F1200FDFBF16430A460021B2
:101B400020335B42BED0C3F1200746EA064602FAC4
:101B500007F74FEA164646EA0706C3F1200722FABE
:101B600003F201FA07F721FA03F14FF0000342EA0A
:101B70000702A7E746EA020646EA06464FEA164685
:101B800046EA0106BCBF46EA0646360C4FF00003A3
:101B90004FF000024FF0000194E72DE9804C9A4687
:101BA000934670B491E8380007C831EA400C48BF4A
:101BB00034EA430C03D5FFF7E6FDFFF780FFF0BCE6
:101BC000BDE8008C2DE9804C9A46934670B491E8AC
:101BD000380007C810F0804F08BF13F0804F03D1C2
:101BE00000F005F8FFF76BFFF0BCBDE8008C20F0BB
:101BF0007F4780EA030023F07F4C07EB0C03A3F53B
:101C00007C5300F00040A3F1FE0392F0000F00F0BF
:101C1000B38095F0000F00F077802DE901494FEA7D
:101C200011404FEA144621EA004800FB06FC24EA72
:101C3000064708FB06F607FB08F800FB07F718EB5A
:101C400006484CEB164C4FEA124B18EB07484FEA8C
:101C500015464CEB174022EA0B4E0BFB06FC25EA1F
:101C600006470EFB06F607FB0EFE0BFB07F71EEB07
:101C7000064E4CEB164C4FF000061EEB074E4CEB9D
:101C8000174B18EB0B0840F1000018EB0E0B58EB4C
:101C9000000840F100008F1A4FF000013CBFC9431B
:101CA000661B14BFB5EB040C00213CBFC943F61BF7
:101CB0004FEA17444EEA8E0E27EA04454FEA1C47C6
:101CC00004FB07622CEA074C05FB07F70CFB05F643
:101CD00004FB0CFC16EB074642EB174216EB0C46D6
:101CE00042EB1C421BEB060658EB0202414146EA5E
:101CF0009E0601D5BDE80189B619524141EB0101AB
:101D0000A3F10103BDE801894FEA14454FEA1147E9
:101D100024EA054621EA074C05FB07F406FB07F712
:101D20000CFB06F105FB0CFC11EB074144EB1744DF
:101D30004FEA124711EB0C4144EB1C4422EA074CDA
:101D400005FB07F206FB07F70CFB06F605FB0CFC90
:101D500016EB074642EB174216EB0C4642EB1C45CE
:101D60006A1854F1000148BF7047B619524141EB5F
:101D70000101A3F10103704795F0000F37D04FEA3E
:101D800011424FEA144721EA024624EA074C02FBBB
:101D900007F106FB07F70CFB06F402FB0CFC14EB47
:101DA000074441EB17414FEA154714EB0C4441EB54
:101DB0001C4125EA074C02FB07F506FB07F70CFB65
:101DC00006F602FB0CFC16EB074645EB174516EB37
:101DD0000C4645EB1C42121951F1000148BF7047F7
:101DE000B619524141EB0101A3F1010370474FEADB
:101DF00014454FEA114724EA054621EA074C05FB42
:101E000007F106FB07F70CFB06F24FF0000605FB97
:101E10000CFC12EB074241EB174112EB0C4251EB69
:101E20001C4148BF7047921841EB0101A3F1010327
:101E30007047FEE7704772B6FEE710B501880022D2
:101E400002EB1122C9B21144827883881144C2780E
:101E5000114401EB1321DAB20A44002104E04418D2
:101E6000491CA47989B222448B42F8D8D0B210BD63
:101E7000002100F88A1B20F8021B00F8011B00F863
:101E80008B198821FEF795BC2DE9F0410025044609
:101E900080F88D501746007808220126092864D260
:101EA000DFE800F0050C631A222A34455900552951
:101EB00002D184F88C102670BDE8F081AA2901D0E7
:101EC0002570F4E794F88C00AA3084F88C0045F271
:101ED000AA506080032017E094F88C00084484F82E
:101EE0008C00217104200FE094F88C00084484F8E1
:101EF0008C006171052007E094F88C00084484F898
:101F00008C000802E08006202070D5E794F88C0051
:101F1000084484F88C00E0880843E080802824D8B6
:101F200018B1A4F88A500720EEE72270C4E794F8AD
:101F30008C00084484F88C00B4F88A3004F108005E
:101F40001954B4F88A00401C80B2A4F88A00E188D1
:101F50008842EAD2B0E784F88810A01C00F020F88C
:101F600028B108A1022002F0F7F82570A4E784F850
:101F70008D60002FF9D08822A11C3846FEF7A2FB05
:101F8000F3E700005B494E464F5D202043686563E0
:101F90006B73756D206572726F72210D0A000000FF
:101FA00010B50446FFF749FF94F88610814201D02E
:101FB000012010BD002010BD10B590F821100022A6
:101FC000022905D00421816380F82020012010BD62
:101FD00001680B6823F00E030B6001680B6823F0A7
:101FE00001030B6090F84030C46B012101FA03F348
:101FF000636080F8211080F82020104610BD00009A
:1020000010B590F821100024022903D00421816327
:1020100001243DE001680A6822F00E020A600168AE
:102020000A6822F001020A601A4A0168914201D14D
:10203000012121E0174A1432914201D110211BE005
:10204000144A2832914201D1891515E0114A3C32D7
:10205000914201D189140FE00E4A5032914202D1CF
:102060004FF4803108E00B4A6432914202D14FF4C0
:10207000801101E04FF08071064A083A5160012159
:1020800080F82110002180F82010416B01B18847B1
:10209000204610BD0800024070B5044600F0FEF86E
:1020A0000546601C02D004480078044400F0F6F8AD
:1020B000401BA042FAD370BD0C0000202DE9F84F60
:1020C000DFF8B8910024A9F1040B23460F2709F18A
:1020D000040AABF1040EC9E00125A5402A40AA423A
:1020E0007DD1674ED1F804C0ACEB0608B44532D0C0
:1020F00014DCBCF1030F3AD009DCBCF1000F2AD08C
:10210000BCF1010F1CD0BCF1020F31D11DE0BCF1BC
:10211000110F17D0BCF1120F2AD119E0B8F5881FA2
:1021200019D006DCB8F5803F15D0B8F5801F1FD157
:1021300011E0B8F5001F0ED0B8F5041F18D10AE061
:10214000CB6815E0CB681B1D12E0CB6808330FE0AD
:10215000CB680C330CE08B682BB1012B4FF00803DC
:1021600003D0456104E0042302E0056100E00023A0
:10217000FF2A01D8064601E000F104064FEA840573
:1021800001D9A5F12005D6F8008007FA05FC28EA58
:102190000C0803FA05F548EA0508C6F800804D6802
:1021A000ED0062D5374DAE6946F00106AE61AD690E
:1021B00024F0030605F001050095334D06EB050CF0
:1021C000DCF80850A607360F07FA06F825EA0805D6
:1021D000DFF8B880404503D14FF0000817E044E035
:1021E000DFF8AC80404502D14FF001080FE0DFF886
:1021F000A480404502D14FF0020808E0DFF8988043
:10220000404502D14FF0030801E04FF0040808FAFE
:1022100006F848EA0508CCF808804D68D9F800604F
:10222000ED024D4601D5164300E096432E604D6801
:10223000DAF80060AD02554601D5164300E096433A
:102240002E604D68DBF80060AD035D4601D5164396
:1022500000E096432E604D68DEF80060ED037546A1
:1022600001D5164300E096432E60641C0D682A4693
:10227000E5407FF431AFBDE8F88F0000080401406D
:102280000000111000100240000001400008014051
:10229000000C01400010014000140140014880681A
:1022A000704700000C000020024881680278114449
:1022B000816070470C000020074810B5016841F0AC
:1022C00010010160032000F075F80F2000F006F8FF
:1022D00000F024F8002010BD0020024070B50D4D24
:1022E00004464FF47A712878B1FBF0F00A49096886
:1022F000B1FBF0F000F0DCFA48B9102C07D2002254
:102300002146501E00F036F800206C6070BD0120A0
:1023100070BD00000C000020080000200C4808B52B
:10232000816941F001018161816901F00101009140
:10233000C16941F08051C161C06900F080500090D6
:102340000448416821F0E06141F00071416008BD3E
:102350000010024000000140002809DB00F01F02CD
:10236000012191404009800000F1E020C0F80011F7
:1023700070470000F0B40E4B1B680C46C3F30223F9
:10238000C3F10705042D00D90425191D072901D221
:10239000002300E0DB1E012606FA05F1491E21405C
:1023A00099409E40761E16403143F0BC02F06DB954
:1023B0000CED00E0064900F0070208684FF6FF0345
:1023C000184040EA0220034A1043086070470000AA
:1023D0000CED00E00000FA052DE9F0470F4605007E
:1023E00061D0434E306800F00700B84209D230682F
:1023F00020F0070038433060306800F00700B84232
:1024000051D128683B4C810712D5400703D560683D
:1024100040F4E06060602878000703D5606840F40D
:10242000605060606068A96820F0F0000843606058
:102430002878C00728D06868012810D021680228B1
:1024400010D0890700292EDA616821F003010143C9
:102450006160FFF723FF804641F288390DE0216873
:102460008903EFE78901EDE7FFF718FFA0EB08010B
:10247000494502D90320BDE8F0876068696800F02B
:102480000C00B0EB810FEFD1306800F00700B842CC
:102490000BD9306820F0070038433060306800F016
:1024A0000700B84201D00120E5E72878400705D5AC
:1024B0006068E96820F4E0600843606028780007FD
:1024C00006D56068296920F4605040EAC100606068
:1024D00000F038F86168084AC1F30311515CC84044
:1024E0000649086006480068FFF7F8FE0020C2E7CA
:1024F0000020024000100240B09D000808000020AB
:10250000100000200448054900684968044AC1F3E6
:102510000221515CC84070470800002000100240B2
:10252000C09D00080448054900684968044AC1F391
:10253000C221515CC84070470800002000100240D2
:10254000C09D00080E4A51680E4801F00C03042B90
:1025500011D0082B0FD10C48C1F38343C903C05CD1
:102560000AD55168084AC1F34041921E515C054AA0
:102570005043B0FBF1F070470449484370470000F6
:102580000010024000127A00CA9D000800093D00B8
:102590002DE9F84F040070D02078C04DC00749D015
:1025A0006868C0F38100012807D06868C0F3810023
:1025B000022809D16868C00306D52868800339D588
:1025C00060680028E7D035E06068B0F5803F0BD048
:1025D00010B1B0F5A02F11D0286820F48030286009
:1025E000286820F4802002E0286840F480302860C9
:1025F000606890B1FFF752FE06460AE0286840F492
:1026000080202860F0E700BFFFF748FE801B6428A9
:1026100073D828688003F7D50CE0FFF73FFE064625
:1026200005E000BFFFF73AFE801B6428F0D8286859
:102630008003F7D420789A4E80074FF001094FF0BD
:10264000000839D5686810F00C0F07D06868C0F32F
:102650008100022809D16868C00306D42868800771
:1026600014D52069012808D110E02069B0B1C6F85E
:102670000090FFF713FE074605E00AE1FFF70EFEA4
:10268000C01B0228C4D828688007F7D5286861696C
:1026900020F0F80040EAC10028600DE0C6F8008094
:1026A000FFF7FCFD074604E0FFF7F8FDC01B02281A
:1026B00023D828688007F7D4207800072CD57948DC
:1026C000A169D9B1C0F80090FFF7E8FD074604E022
:1026D000FFF7E4FDC01B02280FD8686A8007F7D512
:1026E00071484FF4FA510068B0FBF1F0009000BF60
:1026F0000098411E0091FAD20EE080E0C0F8008000
:10270000FFF7CCFD074604E0FFF7C8FDC01B022819
:1027100075D8686A8007F7D42078400760D5E869E3
:102720000027C00008D4E86940F08050E861E869FB
:10273000012700F0805000905C480168C90513D45F
:102740000168834641F480710160FFF7A7FD82466E
:1027500006E000BFFFF7A2FDA0EB0A0064284ED8F8
:10276000DBF80000C005F5D5E06801280AD008B103
:10277000052813D0286A20F001002862286A20F07A
:10278000040002E0286A40F001002862E06841F29B
:10279000883B98B1FFF782FD82460BE0286A40F043
:1027A00004002862EEE700BFFFF778FDA0EB0A0106
:1027B00059455AD8286A8007F6D50CE0FFF76EFD18
:1027C000824605E0FFF76AFDA0EB0A0159454CD8A7
:1027D000286A8007F6D41FB1E86920F08050E861CC
:1027E000E06988B36968C1F38101022944D00228F5
:1027F000C6F8608004D0FFF751FD044638E034E0AD
:10280000FFF74CFD074604E0FFF748FDC01B022818
:102810002BD828688001F7D4206AB0F5803F05D115
:102820006868A16820F4003008436860D4E90801B2
:102830000843696821F4741108436860C6F8609021
:10284000FFF72CFD044606E025E000BFFFF726FD5C
:10285000001B022809D828688001F7D51BE000BFBB
:10286000FFF71CFD001B022802D90320BDE8F88FEA
:1028700028688001F4D40EE00128F7D06868226A45
:1028800000F48031914204D1616A00F470108842F2
:1028900001D00120EAE70020E8E700000010024034
:1028A00000004242800442420800002000700040C4
:1028B00010B5401EB0F1807F01D3012010BD4FF054
:1028C000E02460610F21601701F0DFFE0020A061AD
:1028D00007202061002010BD70477047F8B50168DF
:1028E00004460868CA684B6910F00F0F4FF00005E6
:1028F00059D003F0010602F49077374365D0C10741
:1029000005D0D10503D5616C41F001016164410737
:1029100005D5D90703D0616C41F0020161648107DC
:1029200005D5D90703D0616C41F00401616401074A
:1029300007D502F02001314303D0616C41F008015A
:102940006164616C00293AD0800604D5900602D5F6
:10295000204601F052FD20684069616CC0F3801090
:10296000090700D460B3204601F020FD20684069CB
:10297000400621D52068143050E8001F21F04001A6
:1029800040E80012002AF5D1E06BA8B16D4941631F
:10299000E06BFFF735FB002811D0E06B416B01B015
:1029A000BDE8F040084783060FD593060DD52046B5
:1029B000BDE8F84001F021BD2046FFF78EFFF8BDCD
:1029C0002046FFF78AFF6564F8BD266B2023012EA1
:1029D0007CD1C6067AD5D60678D5086848680090B6
:1029E00048694FF00206400640D5E16B0868406830
:1029F0000004000CE8D0A28D8242E5D9E085886908
:102A000020282DD020680C3050E8001F21F4807160
:102A100040E80012002AF5D12068143050E8001F69
:102A200021F0010140E80012002AF5D1206814309D
:102A300050E8001F21F0400140E80012002AF5D1C3
:102A400084F84230256320680C3050E8001F21F0E4
:102A5000100140E80012002AF5D1E06BFFF7ACFA54
:102A60006663A08DE18D401A81B22AE0A08DE18DD0
:102A7000401A81B2E08D0028A6D00029A4D0226897
:102A80000C3252E8000F20F4907042E80007002F4B
:102A9000F5D12068143050E8002F22F0010240E800
:102AA0000027002FF5D184F84230256320680C30D0
:102AB00050E8002F22F0100240E80023002BF5D14F
:102AC00066632046FFF708FFF8BDFFE705062BD534
:102AD000150629D594F841002128F5D1A068B0F554
:102AE000805F01D12069B0B1206A411C2162216858
:102AF00000784860E08C401E0004000CE084E3D1C4
:102B00002068C16821F08001C1602068C16841F07F
:102B10004001C160D8E7206A0088C0F3080048601F
:102B2000206A801C2062E5E74006CDD55006CBD553
:102B3000CA68204622F04002CA6084F8413000F0A2
:102B400020F9C1E79D43000870B5040004D094F853
:102B50004100002510B106E0012070BD84F840500E
:102B6000204600F023F8242084F841002068C16842
:102B700021F40051C160204601F0A0FC20680169E9
:102B800021F4904101612068416921F02A014161ED
:102B90002068C16841F40051C1606564202084F858
:102BA000410084F842006563002070BDF0B585B037
:102BB000002400940194029403940368424F02207D
:102BC00042490322424D4602BB4225D18B6943F460
:102BD00080438B618B6903F4804304938B6943F0DA
:102BE00004038B618969039201F0040104910102DD
:102BF000CDE9001069462846FFF760FACDE9006488
:102C0000694628460294FFF759FA0022114625200A
:102C1000FFF7B0FB252028E02E4FBB4229D1CB691E
:102C200043F40033CB61CB6903F4003304938B6925
:102C300043F004038B618969039201F0040104915C
:102C40000421CDE9001069462846FFF737FA08202D
:102C5000CDE90004694628460294FFF72FFA0022C6
:102C600011462620FFF786FB2620FFF775FB05B0EF
:102C7000F0BD194DAB42FAD1CB6943F48023CB614F
:102C8000CB6903F4802304938B6943F008038B61C1
:102C90008969124D01F00801CDE90321CDE90060F9
:102CA00069462846FFF70AFAE814CDE900046946A8
:102CB00028460294FFF702FA002211462720FFF768
:102CC00059FB2720D1E700000038014000100240E6
:102CD000000801400044004000480040000C014052
:102CE00070472DE9F843044690F84100984616468F
:102CF0000D46202802D00220BDE8F88385B17EB1C0
:102D000000206064212084F84100FFF7C7FAA68400
:102D10008146E684A0682027B0F5805F02D003E0FA
:102D20000120E9E7206910B12E4600250EE00026BB
:102D30000CE08021204601F01DFCA8B9C6B116F8B0
:102D4000010B21684860E08C401EE084E08C4B461B
:102D50004FF00002CDF800800028EAD14FF040018A
:102D6000204601F007FC40B184F841700320C3E71E
:102D700035F8020BC0F30800E3E784F84170002047
:102D8000BAE7704700280CD0002101704180017122
:102D9000417181711022C271417280F8221080F855
:102DA0002310704700F046B9401E032801D80120C7
:102DB000704700207047401E042801D8012070474A
:102DC0000020704718B1012801D000207047012071
:102DD0007047322801D80120704700207047322800
:102DE00001D80120704700207047000003480168A7
:102DF000002901D0024808477047000098000020D1
:102E0000D403002003480168002901D00248084784
:102E1000704700009C000020FA03002010B586B027
:102E2000A8B1C1790DF1080C90F8234090F8223038
:102E3000427A8CE81E0082794179CDE9001203794B
:102E400002780649022001F087F906B010BD06B0ED
:102E500003A1BDE81040022001F07EB944A00008A3
:102E60005B494E464F5D20205B484F4F43485D20F5
:102E7000416972436F6E646974696F6E6572206335
:102E8000616C6C6261636B3A206672616D6520698A
:102E900073204E554C4C0D0A00000000014908609B
:102EA000704700009800002001490860704700004A
:102EB0009C00002030B58BB005460C466846FFF7F5
:102EC00061FF04208DF8090007488DF800508DF847
:102ED000064090F82200401C8DF82200684600F061
:102EE000D7F80BB030BD0000FA0300202DE9F04107
:102EF0008AB007461C4615460E466846DDF84080F7
:102F0000FFF740FF0F208DF804608DF809008DF861
:102F1000055009488DF806408DF800708DF807803F
:102F200090F82200401C8DF82200684600F0B0F8AE
:102F30000AB0BDE8F0810000FA0300202DE9F0415D
:102F40008AB007461C4615460E466846DDF84080A6
:102F5000FFF718FF0F208DF804608DF809008DF839
:102F6000055009488DF80640ADF802708DF80780CD
:102F700090F82200401C8DF82200684600F088F886
:102F80000AB0BDE8F0810000FA03002030B58BB034
:102F900005460C466846FFF7F5FE03208DF809004C
:102FA00007488DF800508DF8054090F82200401C2D
:102FB0008DF82200684600F06BF80BB030BD0000C1
:102FC000FA03002030B58BB005460C466846FFF783
:102FD000D9FE02208DF8090007488DF800508DF8C1
:102FE000044090F82200401C8DF82200684600F052
:102FF0004FF80BB030BD0000FA03002030B58BB0A5
:1030000005460C466846FFF7BDFE05208DF8090011
:1030100007488DF800508DF8074090F82200401CBA
:103020008DF82200684600F033F80BB030BD000088
:10303000FA0300202DE9F0411C4615460E460746CE
:10304000FFF7C0FEF8B13046FFF7B5FED8B128460D
:10305000FFF7AAFEB8B12046FFF7BBFE98B10B48B8
:103060000021012200F8047F46708570C47000F8CA
:10307000041C4271817F491C8177C277FFF7B6FE3D
:103080000020BDE8F0810220FBE70000D40300200F
:1030900070B504005ED0607A411E10295AD22E4DC0
:1030A000042831D006DC01280AD0022820D00328C9
:1030B00050D123E005282DD00F2801D0102849D168
:1030C0002079FFF77FFEE8B36079FFF774FEC8B39D
:1030D000A079FFF769FEA8B3E079FFF780FE88B317
:1030E0002079287160796871A079A871E07914E07D
:1030F000207908B101282DD128710FE06079411E97
:10310000042927D8687109E0A079411E032921D834
:10311000A87103E0E07932281CD8E8712078287083
:1031200060886880607A687294F8220085F82200CE
:10313000012085F82300207808B1FFF763FE60883E
:1031400030B100E006E00548416809B1024888470F
:10315000002070BD022070BDFA0300209C000020FA
:1031600000F088B803480168002901D0001D084715
:1031700070470000B40000203EB5B8B10178E1B15D
:10318000022931D0032931D0042931D01AA2847800
:103190000179C378012C2DD019A40094CDE9013117
:1031A00043781949022000F0D7FF3EBD03B017A1B4
:1031B000BDE83040022000F0CFBF4178012202EB91
:1031C000111211F00F0F0BD01DA30179C478807874
:1031D000012807D00AA00090CDE901411A49E1E792
:1031E0001AA3F2E71BA0F6E71CA2D0E714A2CEE7D1
:1031F0001CA2CCE717A4D0E7554E4B4E4F574E00BC
:10320000434C45415200000090A200085B494E46E5
:103210004F5D20205B484F4F43485D20436F6465FE
:103220004D617463682063616C6C6261636B3A200A
:103230006672616D65206973204E554C4C0D0A0015
:103240004355525441494E0038A2000844494D4D5F
:10325000455200004D415443480000004C49474846
:10326000540000004143000001490860704700001D
:10327000B4000020064B10B5187059709A70D878B9
:10328000401CD87001201871FFF76CFF002010BDA2
:10329000B800002003480168002901D00830084721
:1032A00070470000C000002001490860704700001E
:1032B000C00000200149486070470000C0000020A5
:1032C00000F010B810B54C1E042C01D2012A01D90F
:1032D000022010BD024C646804B1A047002010BD5C
:1032E000C0000020064B10B5187059709A70D8783D
:1032F000401CD87001201871FFF7CCFF002010BDD2
:10330000C800002003480168002901D0024808478E
:1033100070470000A80000202004002003484168F6
:10332000002901D00248084770470000A80000208B
:10333000200400201FB560B1817A847C037C427B2D
:103340008DE81E00C37902790549022000F004FFD0
:103350001FBD04B003A1BDE81040022000F0FCBE78
:10336000D0A100085B494E464F5D20205B484F4F7F
:1033700043485D204375727461696E2063616C6CB3
:103380006261636B3A206672616D65206973204EDD
:10339000554C4C0D0A0000000149086070470000C0
:1033A000A40000200149086070470000A800002028
:1033B0000149486070470000A800002000F076B87E
:1033C00010B54B1E072B01D9022010BD094B5870B8
:1033D00019705A73987B0121401C9873D97305208A
:1033E0001874587C401C58749974FFF797FF00209C
:1033F00010BD00002004002000F07AB810B54B1E6C
:10340000072B01D9022010BD094B587019709A7210
:10341000D87A0121401CD872197304201874587C82
:10342000401C58749974FFF779FF002010BD00000C
:103430002004002000F068B810B54B1E072B01D9FE
:10344000022010BD094B58701970DA71187A0121E9
:10345000401C1872597203201874587C401C587410
:103460009974FFF75BFF002010BD000020040020CE
:1034700000F056B810B54B1E072B01D9022010BD25
:10348000094B587019701A7158790121401C5871F4
:10349000997102201874587C401C58749974FFF775
:1034A0003DFF002010BD00002004002008B50246AA
:1034B000009103490523A1F10D0000F003F808BDB8
:1034C0002D04002070B5049C18B111B1551E072DB4
:1034D00001D9022070BD02700C704A78521C4A70EB
:1034E00001228A7003748274FFF70CFF002070BD04
:1034F00008B50246009103490423A1F10A00FFF731
:10350000E1FF08BD2A04002008B5024600910349E6
:103510000323C81FFFF7D6FF08BD000027040020C3
:1035200008B50246009103490223081FFFF7CAFFAE
:1035300008BD000024040020401E072801D80120F7
:1035400070470020704718B1012801D00020704753
:103550000120704703480168002901D0024808474C
:10356000704700001C0000206C03002003484168E5
:10357000002901D002480847704700001C000020C5
:103580006C0300201FB560B18179447A037AC27957
:103590008DE81E00437902790549022000F0DCFD28
:1035A0001FBD04B003A1BDE81040022000F0D4BD4F
:1035B000CCA000085B494E464F5D20205B484F4F32
:1035C00043485D2044696D6D65724C69676874207D
:1035D00063616C6C6261636B3A206672616D652039
:1035E0006973204E554C4C0D0A00000001490860DB
:1035F0007047000018000020014908607047000073
:103600001C00002001494860704700001C00002099
:1036100010B5421E072A01D9022010BD064A1070BB
:1036200011710220D071107A401C1072012050726A
:10363000FFF790FF002010BD6C03002010B54B1E5B
:10364000072B01D9022010BD074B587019701A7151
:103650000220D871187A401C187201205872FFF7A6
:1036600085FF002010BD00006C03002010B5421E35
:10367000072A01D9022010BD064A1070517103209B
:10368000D071107A401C107201205072FFF762FF57
:10369000002010BD6C03002010B54B1E072B01D974
:1036A000022010BD074B587019705A710320D87151
:1036B000187A401C187201205872FFF757FF00203B
:1036C00010BD00006C03002070B504460D46FFF7E6
:1036D00033FF88B12846FFF736FF68B10748042159
:1036E00004708571C171017A491C01720121417216
:1036F000FFF730FF002070BD022070BD6C0300207A
:1037000070B5064614460D460846FFF715FF90B102
:103710002046FFF718FF70B1084804214670057075
:103720008471C171017A491C017201214172FFF754
:103730001DFF002070BD022070BD00006C03002042
:1037400010B586B0A8B1C1790DF1080C90F82240EF
:1037500090F82130027A8CE81E0082794179CDE917
:103760000012037902780649022000F0F5FC06B049
:1037700010BD06B003A1BDE81040022000F0ECBC73
:1037800048A100085B494E464F5D20205B484F4FE3
:1037900043485D20466C6F6F7248656174696E675F
:1037A0002063616C6C6261636B3A206672616D6567
:1037B000206973204E554C4C0D0A000001490860E9
:1037C000704700002800002010B586B098B18179BC
:1037D0000DF1040C90F8224090F82130027A8CE828
:1037E0001E0041790091037902780649022000F019
:1037F000B3FC06B010BD06B003A1BDE81040022026
:1038000000F0AABCD49F00085B494E464F5D2020C3
:103810005B484F4F43485D2046726573684169724B
:103820002063616C6C6261636B3A206672616D65E6
:10383000206973204E554C4C0D0A00000149086068
:10384000704700002C000020401E032801D80120F2
:10385000704700207047401E072801D8012070479C
:103860000020704718B1012801D0002070470120C6
:103870007047000003480168002901D0001D084777
:1038800070470000300000200149086070470000C8
:1038900030000020AFF3008070B514460D46064698
:1038A000FFF7D9FFA0B12846FFF7CEFF80B1204631
:1038B000FFF7D8FF60B10748067045708470C17883
:1038C000491CC17001210171FFF7D4FF002070BDB8
:1038D000022070BD34000020401E072801D80120BE
:1038E00070470020704728B1012803D0022801D07A
:1038F000002070470120704703480168002901D06B
:10390000001D0847704700007C0000200EB558B12C
:1039100081780379C2788DE80E00437802780649F1
:10392000022000F019FC0EBD03B004A102205DF8D6
:1039300004EB00F011BC0000389F00085B494E46C4
:103940004F5D20205B484F4F43485D204B65794DCC
:103950006F64652063616C6C6261636B3A206672B0
:10396000616D65206973204E554C4C0D0A000000B6
:1039700001490860704700007C000020AFF3008020
:1039800070B50446FFF7A8FFB0B10846FFF7ABFFDC
:1039900090B1601E094BC0B201251A540833195466
:1039A0000D3B1C7059709A70D878401CD8701D71EE
:1039B000FFF7A2FF002070BD022070BD850000202F
:1039C000002204E08354521CD2B21F2A02D28B5C24
:1039D000002BF7D100218154704700000348016893
:1039E000002901D002480847704700003C00002031
:1039F0009003002010B586B098B1C1780DF1040C89
:103A000090F8264090F82530421D8CE81E00817801
:103A10000091437802780649022000F09DFB06B031
:103A200010BD06B003A1BDE81040022000F094BB19
:103A3000D89E00085B494E464F5D20205B484F4FA3
:103A400043485D204B65794E616D652063616C6C08
:103A50006261636B3A206672616D65206973204E06
:103A6000554C4C0D0A0000000149086070470000E9
:103A70003C00002070B5040003D02078411E0729C7
:103A800001D9022070BD0B4D611D287060786870EF
:103A9000A078A870E078E870681DFFF791FF94F8AF
:103AA000250005F8250F01206870FFF797FF00201B
:103AB00070BD000090030020401E072801D801209F
:103AC00070470020704718B1012801D000207047CE
:103AD0000120704702484168002900D0084770471C
:103AE000400000200149486070470000400000206D
:103AF00010B5040011D02078FFF7DEFF68B16078C0
:103B0000FFF7E1FF48B10648216801600449012040
:103B1000C870FFF7DFFF002010BD022010BD0000BD
:103B200040000020401E072801D8012070470020D7
:103B3000704718B1012801D000207047012070475C
:103B400002484168002900D008477047480000201B
:103B50001CB550B1C2788178CDE900124378027863
:103B60000549022000F0F8FA1CBDBDE81C4003A185
:103B7000022000F0F1BA0000909F00085B494E4619
:103B80004F5D20205B484F4F43485D204B65795384
:103B900074617475732063616C6C6261636B3A204D
:103BA0006672616D65206973204E554C4C0D0A009C
:103BB000014948607047000048000020AFF30080D2
:103BC00070B50C460546FFF7ADFF78B12046FFF70C
:103BD000B0FF58B1064A157054709078401C907030
:103BE0000120D070FFF7ACFF002070BD022070BD37
:103BF000480000200EB558B1017F837E42788DE8E1
:103C00000E00C37E02780649022000F0A5FA0EBD20
:103C100003B004A102205DF804EB00F09DBA00009F
:103C200048A300085B494E464F5D20205B484F4F3C
:103C300043485D205363656E6544697370617463C6
:103C4000682063616C6C6261636B3A206672616DBF
:103C500065206973204E554C4C0D0A0001490860DF
:103C6000704700005000002003480168002901D07F
:103C70001030084770470000540000200348416896
:103C8000002901D010300847704700005400002080
:103C9000AFF3008010B5411E072901D9022010BDE5
:103CA000064908700879401C087101204871FFF727
:103CB000DBFFFFF7E3FF002010BD000064000020E1
:103CC000014988607047000070000020AFF3008059
:103CD00010B5431E0B2B01D811B90AB1022010BD3B
:103CE000044B187059605A809B6803B198470020B4
:103CF00010BD00007000002003480168002901D0B9
:103D000002480847704700006C000020B8030020FC
:103D10001FB504000FD0207A6378227EE17D8DE804
:103D20000F0022781D490220636800F015FA207800
:103D3000332807D010E004B019A1BDE810400220DC
:103D400000F00ABAA07A0090607A58B121A322A1AB
:103D50000220626800F000FA20780E2804D01028B3
:103D600002D00BE029A3F2E70E2814D028A3606844
:103D70000090227A28A1022000F0EEF9207837285E
:103D800008D1B4F8090031A143BA00930220626857
:103D900000F0E2F91FBD3BA3E9E70000E0A2000844
:103DA0005B494E464F5D20205B484F4F43485D20A6
:103DB00053657474696E672063616C6C6261636BD8
:103DC0003A206672616D65206973204E554C4C0D2A
:103DD0000A0000004F4E00005B494E464F5D202018
:103DE0005B484F4F43485D204A6F6754696D6520BB
:103DF0006B65793D2575207377697463683D25731C
:103E00002074696D653D2575730D0A004F464600A7
:103E100048494445000000005B494E464F5D202064
:103E20005B484F4F43485D20506167654D67722086
:103E3000706167653D257520616374696F6E3D250E
:103E4000732076616C3D25750D0A00005B494E4676
:103E50004F5D20205B484F4F43485D204D756C748B
:103E6000696361737447726F7570206B65793D2566
:103E700075206769643D30782530345820282575D1
:103E8000290D0A00414444000149086070470000C0
:103E90006C00002010B558B101461C220548FCF703
:103EA00056FC044901200876FFF726FF002010BDCC
:103EB000022010BDB8030020FEE70000134910B532
:103EC00000208880087080211148FCF772FC11489E
:103ED0006FF02E01026811600068C16841F0200196
:103EE000C1600DA000F048FA0CA000F045FA16A041
:103EF00000F042FA19A000F03FFA08A000F03CFAE6
:103F0000BDE810401DA000F037BA000000000020FE
:103F1000AC020020D40000200D0A00003D3D3D3DD4
:103F20003D3D3D3D3D3D3D3D3D3D3D3D3D3D3D3DC1
:103F30003D3D3D3D3D3D3D3D3D3D3D3D3D3D3D3DB1
:103F40003D3D3D3D0D0A00002020486F6F63682015
:103F5000434C492076312E300D0A00002020547940
:103F60007065202768656C702720666F7220636F0C
:103F70006D6D616E64730D0A00000000686F6F6301
:103F8000683E20002DE9F041012688B0454F464C9F
:103F9000002524E00D280CD00A280AD0082811D0CA
:103FA0007F280FD0A1887F2919D27854491CA1807D
:103FB00013E0A08808B13D5426700D2000F0D2F91E
:103FC0000A200AE0A08850B1401EA080082000F01E
:103FD000C9F9202000F0C6F9082000F0C3F9607884
:103FE000A178884207D1207800284FD02D496A4611
:103FF0000026A84622E02B48A1788030405CA178BA
:10400000491C01F03F01A17021780029E7D1C1E7E7
:10401000491C08782028FBD00928F9D010F0FF0FA0
:1040200010D042F82610761C00E0491C087848B1F0
:10403000202801D00928F8D101F8018B087808B1AF
:10404000082EE6DB002E16DD184F002505EB450097
:1040500057F820100098FCF7F5FBD0B16D1CEDB2BD
:10406000252DF3D312A000F087F9009800F084F911
:1040700014A000F081F9A4F8048084F80080802165
:104080000848FCF796FB18A000F076F908B0BDE8E8
:10409000F08105EB450007EB8000694682683046F9
:1040A0009047E8E7AC02002000000020F49B0008E5
:1040B0005B434C495D20556E6B6E6F776E20636D70
:1040C000643A20000D0A5B434C495D2054797065C9
:1040D000202768656C702720666F7220636F6D6D96
:1040E000616E64730D0A0000686F6F63683E2000A4
:1040F000064910B54A788B78521C02F03F029A426A
:1041000003D0034B4C7818554A7010BD00000020B6
:104110002C03002001A1022000F01EB85B494E468E
:104120004F5D20204C6F67206D6F64756C65206952
:104130006E697469616C697A65642C2055415254CA
:10414000312062617564726174653A2031313532B3
:1041500030300D0A000000000FB4032810B509D854
:1041600004AB4FF480710548039AFCF783F80348C9
:1041700000F002F910BC5DF814FB0000AC01002057
:104180000D4808B5816941F020018161816901F024
:1041900020010091816941F004018161816901F090
:1041A00004010091816941F008018161806900F09A
:1041B0000800009008BD0000001002400C4810B537
:1041C0000A4901604FF4E1314160002181600C2215
:1041D000C160C0E904128161C161FEF7B5FC00282D
:1041E00003D0BDE81040FDF726BE10BD00380140E9
:1041F000D40000200C4810B50A4901604FF4165154
:104200004160002181600C22C160C0E9041281611B
:10421000C161FEF799FC002803D0BDE81040FDF70E
:104220000ABE10BD004400401C0100200C4810B51F
:104230000A4901604FF4E1314160002181600C22A4
:10424000C160C0E904128161C161FEF77DFC0028F4
:1042500003D0BDE81040FDF7EEBD10BD00480040A2
:1042600064010020FEE7FEE770470021A0F800117E
:10427000A0F80211A0F804114FF48071FCF799BA6C
:1042800070B50446B0F804010D46B8B1B4F80201A7
:104290000BA1225C0220FFF75FFFB4F80201205C53
:1042A000287094F80201401CC0B2A4F80201B4F8CE
:1042B0000401401EA4F80401002070BD012070BD5F
:1042C0005B494E464F5D202020253032580D0A00B4
:1042D000B0F80421FF2A01D901207047B0F800216D
:1042E000815490F80011491CC9B2A0F80011B0F82F
:1042F0000411491CA0F80411002070477047FDF715
:10430000D3BF30B58FB028216846FCF774FA14216A
:104310000AA8FCF770FA01210804CDE90010002476
:10432000029402250491CDE907504FF4E010099062
:104330006846FEF72DF908B172B6FEE70F20CDE909
:104340000A054FF48060CDE90C4002210AA80E94C2
:10435000FEF742F8002801D072B6FEE70FB030BD7C
:104360007047000001B56423012269460148FEF749
:10437000B8FC08BDD400002010B50446FCF783F952
:104380000204120C07D02146BDE810404FF47A73A6
:104390000148FEF7A6BC10BDD400002010B5406A4D
:1043A0000021C185C184FEF798FA10BD01680C3167
:1043B00051E8002F22F4907241E80023002BF5D140
:1043C0000168143151E8002F22F0010241E8002376
:1043D000002BF5D1016B012909D101680C3151E89D
:1043E000002F22F0100241E80023002BF5D12021FC
:1043F00080F8421000210163704708B590F8421020
:10440000222901D0022008BD82684FF480539A42CD
:1044100001D1016921B1816A9A421BD04AB10AE0F7
:104420000268816A5268C2F308020A80816A891CA4
:1044300008E0026972B10268526802F07F020A70F5
:10444000816A491C8162C18D491E0904090CC1851C
:1044500003D01BE002685268F1E70168CA6822F0E5
:104460002002CA600168CA6822F48072CA600168CA
:104470004A6922F001024A61202180F8421000219D
:104480004163026B012A03D0FEF72AFC002008BD1D
:10449000016301680C3151E8002F22F0100241E85D
:1044A0000023002BF5D101680A68D20602D50A68FC
:1044B00049680091818DFEF70FFAE7E770B5044671
:1044C00000680169E26821F44051114301612169EA
:1044D000A0680843616908432168CA6841F20C6317
:1044E0009A430243CA6020684169A26921F440717D
:1044F000114341611E492068884202D1FEF712F83B
:1045000001E0FDF7FFFF00EBC00101EB0012606866
:1045100064218000B2FBF0F3B3FBF1F36FF01806F7
:104520007343B2FBF0F5B2FBF0F605EB83053223E3
:1045300003EB0515B5FBF1F5B6FBF1F605F0F0055B
:1045400005EB0615B2FBF0F6B2FBF0F0B0FBF1F0B4
:104550006FF01802504306EB800003EB0010B0FB35
:10456000F1F0216800F00F002844886070BD000061
:10457000003801402DE9F843984617460D46044699
:10458000089E24E0701C22D0FDF788FEA0EB0800F6
:10459000B0421AD8CEB12068C168490717D5802D1E
:1045A00015D0402D13D00168C94309070FD4016805
:1045B0000025406800902046FFF7F8FE0820606460
:1045C00084F840500120BDE8F8830320FBE7206811
:1045D000006835EA000004D00020B842D2D00020A4
:1045E000F1E70120F9E7000010B50C4C20680168E4
:1045F000C943890607D44068C0B2FFF779FD216836
:104600006FF02000086020680168C943090704D4DE
:104610006FF0080101602068406810BDD4000020E0
:1046200010B50B4C20680168C943890607D440685F
:10463000C0B205F0E9F921686FF020000860206839
:104640000168C943090702D46FF00801016010BD79
:104650001C0100200148FEF741B900006401002060
:10466000FEE7490050EAC12018BF04204A0D18BFD8
:1046700040F0010040F2FF72B2EB515F08BF40F022
:104680000200012808BF052070470907090E00280D
:1046900004DB00F1E02080F80014704700F00F0008
:1046A00000F1E02080F8141D704730380A2801D24C
:1046B0000120704700207047FEE7000030B595B03C
:1046C0000FA0FFF759FE174D002400BF04EB440074
:1046D00005EB800114A24968009155F82030502163
:1046E00001A8FBF7E1FD01A8FFF746FE641CE4B258
:1046F000252CEBD315B010A0BDE83040FFF73CBE31
:104700000D0A3D3D3D3D3D20486F6F636820434CA1
:104710004920436F6D6D616E6473203D3D3D3D3DAD
:104720000D0A0000F49B00082020252D3130732055
:104730002D2025730D0A00003D3D3D3D3D3D3D3D95
:104740003D3D3D3D3D3D3D3D3D3D3D3D3D3D3D3D99
:104750003D3D3D3D3D3D0D0A0000000008B50DA06A
:10476000FFF70AFE00208DF8000001226946812033
:1047700002F0E2FE38B110A0FFF7FEFD17A1002005
:10478000FFF7EAFC08BD20A0FFF7F6FD27A10220F5
:10479000F6E700005B434C495D2053656E64696E2B
:1047A00067206A6F696E206E6574776F726B206325
:1047B0006D642E2E2E0D0A005B434C495D204A6F1E
:1047C000696E206E6574776F726B20636D6420462E
:1047D00041494C4544210D0A000000005B455252FE
:1047E0004F525D205B434C495D204A6F696E206EDD
:1047F0006574776F726B20636F6D6D616E64206698
:1048000061696C65640D0A005B434C495D204A6F29
:10481000696E206E6574776F726B20636D642073B0
:10482000656E74204F4B210D0A0000005B494E4617
:104830004F5D20205B434C495D204A6F696E206EBE
:104840006574776F726B20636F6D6D616E6420733A
:10485000656E740D0A00000010B50CA0FFF78CFD0A
:1048600000221146042002F067FE40B111A0FFF7BC
:1048700083FD19A10020BDE81040FFF76DBC22A008
:10488000FFF77AFD29A10220F5E700005B434C49C0
:104890005D2053656E64696E67206C656176652086
:1048A0006E6574776F726B20636D642E2E2E0D0A09
:1048B000000000005B434C495D204C65617665203B
:1048C0006E6574776F726B20636D64204641494C4E
:1048D0004544210D0A0000005B4552524F525D20B5
:1048E0005B434C495D204C65617665206E6574774D
:1048F0006F726B20636F6D6D616E64206661696CB1
:1049000065640D0A000000005B434C495D204C6566
:10491000617665206E6574776F726B20636D6420BD
:1049200073656E74204F4B210D0A00005B494E46A3
:104930004F5D20205B434C495D204C6561766520CE
:104940006E6574776F726B20636F6D6D616E64203E
:1049500073656E740D0A00001CB50C46032807D061
:1049600011A0FFF709FD1DA0FFF706FD25A017E028
:104970006946606802F09AFA78B101A9A06802F06D
:1049800097FA60B19DF804109DF80000FEF792FAC6
:10499000014628A002F04CFB1CBD2BA000E033A078
:1049A000FFF7EAFC1CBD00005B434C495D205573DA
:1049B0006167653A206D695F6169725F66616E5F0C
:1049C0007370656564206368616E6E656C206661F6
:1049D0006E5F73706565640D0A0000005B434C49AF
:1049E0005D204578616D706C653A206D695F616925
:1049F000725F66616E5F7370656564203120310D92
:104A00000A0000005B434C495D2046616E3A20314C
:104A1000286C6F77292032286D656469756D2920AF
:104A2000332868696768292034286175746F290DF7
:104A30000A0000006D695F6169725F66616E5F7395
:104A400070656564000000005B434C495D20496E61
:104A500076616C6964206368616E6E656C2C20758C
:104A6000736520307E3235350D0A00005B434C49BA
:104A70005D20496E76616C69642066616E2073709A
:104A80006565642C207573652031286C6F77297EED
:104A900034286175746F290D0A00000010B586B0C6
:104AA0000C46062807DA2148FFF766FC20A0FFF72E
:104AB00063FC2A4837E001A9606802F0F7F948B3BF
:104AC00002A9A06802F016FA30B303A9E06802F068
:104AD00000FA002822D004A9206902F0E9F9002890
:104AE0001ED005A9606902F015FA00281AD09DF8B9
:104AF000140000909DF810309DF80C209DF80810CF
:104B00009DF80400FEF7F2F9014615A002F090FAB4
:104B100006B010BD16A006E01EA004E028A002E02A
:104B200032A000E03DA0FFF727FCF1E780A40008D9
:104B30005B434C495D204578616D706C653A206D32
:104B4000695F6169725F6672616D65203120312035
:104B50003120312032360D0A0000000028A4000860
:104B60006D695F6169725F6672616D65000000006A
:104B70005B434C495D20496E76616C6964206368D3
:104B8000616E6E656C2C2075736520307E32353514
:104B90000D0A00005B434C495D20496E76616C69EB
:104BA0006420706F7765722C207573652030286FD4
:104BB000666629206F722031286F6E290D0A000069
:104BC0005B434C495D20496E76616C6964206D6F72
:104BD00064652C20757365203128636F6F6C297EA6
:104BE00035286175746F290D0A0000005B434C493C
:104BF0005D20496E76616C69642066616E20737019
:104C00006565642C207573652031286C6F77297E6B
:104C100034286175746F290D0A0000005B434C490C
:104C20005D20496E76616C69642074656D70657293
:104C300061747572652C207573652031367E333052
:104C40000D0A000030B585B00C46062807DA274863
:104C5000FFF792FB26A0FFF78FFB324843E0656821
:104C6000BDB3002269462846FBF7D4FC297881B3FE
:104C7000009971B3097861BBB0F5803F2AD285B243
:104C800001A9A06802F036F930B302A9E06802F089
:104C900020F9002822D003A9206902F009F9002890
:104CA0001ED004A9606902F035F900281AD09DF8D9
:104CB000100000909DF80C309DF808209DF804101D
:104CC0002846FEF73BF9014617A002F0B1F905B0FE
:104CD00030BDFFE719A006E022A004E02CA002E00E
:104CE00036A000E041A0FFF747FBF0E7C8A40008AA
:104CF0005B434C495D204578616D706C653A206D71
:104D0000695F6169725F6672616D655F616464723B
:104D10002030783132333420312031203120323686
:104D20000D0A000028A400086D695F6169725F6662
:104D300072616D655F616464720000005B434C49A1
:104D40005D20496E76616C6964206164647265738C
:104D5000732C2075736520307E36353533350D0A5A
:104D6000000000005B434C495D20496E76616C6930
:104D70006420706F7765722C207573652030286F02
:104D8000666629206F722031286F6E290D0A000097
:104D90005B434C495D20496E76616C6964206D6FA0
:104DA00064652C20757365203128636F6F6C297ED4
:104DB00035286175746F290D0A0000005B434C496A
:104DC0005D20496E76616C69642066616E20737047
:104DD0006565642C207573652031286C6F77297E9A
:104DE00034286175746F290D0A0000005B434C493B
:104DF0005D20496E76616C69642074656D706572C2
:104E000061747572652C207573652031367E333080
:104E10000D0A00001CB50C46032807D011A0FFF7AF
:104E2000ABFA1AA0FFF7A8FA21A017E0694660685C
:104E300002F03CF878B101A9A06802F04AF860B12C
:104E40009DF804109DF80000FEF7A0F8014625A08B
:104E500002F0EEF81CBD26A000E02EA0FFF78CFAB1
:104E60001CBD00005B434C495D2055736167653A8A
:104E7000206D695F6169725F6D6F64652063686151
:104E80006E6E656C206D6F64650D0A005B434C4966
:104E90005D204578616D706C653A206D695F616970
:104EA000725F6D6F6465203120310D0A00000000D3
:104EB0005B434C495D204D6F64653A203128636F38
:104EC0006F6C2920322866616E292033286472793C
:104ED0002920342868656174292035286175746F2C
:104EE000290D0A006D695F6169725F6D6F6465000D
:104EF0005B434C495D20496E76616C696420636850
:104F0000616E6E656C2C2075736520307E32353590
:104F10000D0A00005B434C495D20496E76616C6967
:104F200064206D6F64652C20757365203128636F74
:104F30006F6C297E35286175746F290D0A00000099
:104F40001CB50C46032804D00FA0FFF715FA19A0D2
:104F500017E06946606801F0A9FF78B101A9A0686F
:104F600001F0C8FF60B19DF804109DF80000FEF745
:104F700029F8014618A002F05BF81CBD1AA000E059
:104F800022A0FFF7F9F91CBD5B434C495D20557326
:104F90006167653A206D695F6169725F706F7765FF
:104FA00072206368616E6E656C20706F7765720D3C
:104FB0000A0000005B434C495D204578616D706CD0
:104FC000653A206D695F6169725F706F7765722005
:104FD0003120310D0A0000006D695F6169725F70F8
:104FE0006F776572000000005B434C495D20496E9D
:104FF00076616C6964206368616E6E656C2C2075E7
:10500000736520307E3235350D0A00005B434C4914
:105010005D20496E76616C696420706F7765722CD3
:10502000207573652030286F666629206F722031E5
:10503000286F6E290D0A00001CB50C46032804D009
:105040000FA0FFF799F91CA017E06946606801F00E
:105050002DFF78B101A9A06801F05CFF60B19DF857
:1050600004109DF80000FDF7C9FF01461DA001F0E6
:10507000DFFF1CBD20A000E028A0FFF77DF91CBDCC
:105080005B434C495D2055736167653A206D695FEC
:105090006169725F74656D706572617475726520A7
:1050A0006368616E6E656C2074656D7065726174A5
:1050B0007572650D0A0000005B434C495D20457820
:1050C000616D706C653A206D695F6169725F7465CE
:1050D0006D706572617475726520312032360D0A0B
:1050E000000000006D695F6169725F74656D7065D5
:1050F00072617475726500005B434C495D20496EB6
:1051000076616C6964206368616E6E656C2C2075D5
:10511000736520307E3235350D0A00005B434C4903
:105120005D20496E76616C69642074656D7065728E
:1051300061747572652C207573652031367E33304D
:105140000D0A00001CB50C46032804D00FA0FFF781
:1051500013F919A017E06946606801F0FEFE78B106
:1051600001A9A06801F04EFF60B19DF804109DF800
:105170000000FEF74DFA014618A002F055F81CBDDC
:105180001AA000E021A0FFF7F7F81CBD5B434C49D3
:105190005D2055736167653A206D695F627269676A
:1051A00068746E657373206B6579206272696768D5
:1051B000746E6573730D0A005B434C495D2045783E
:1051C000616D706C653A206D695F627269676874C1
:1051D0006E65737320312038300D0A006D695F628F
:1051E00072696768746E6573730000005B434C49B5
:1051F0005D20496E76616C6964206B65792C207541
:10520000736520317E380D0A000000005B434C4975
:105210005D20496E76616C696420627269676874AA
:105220006E6573732C2075736520307E3235350DB5
:105230000A0000003EB50C46042807D019A0FFF76D
:105240009BF824A0FFF798F82B481BE002A96068A0
:1052500001F0D8FE28B19DF80850022D01D3042D8D
:1052600001D926A00EE06946A06801F0CBFE60B12E
:1052700002A9E06801F0C6FE18B19DF80820012AD5
:1052800005D92BA0FFF778F83EBD36A0FAE79DF8C8
:1052900000102846FEF714F8014638A001F022FF5E
:1052A0003EBD00005B434C495D2055736167653A24
:1052B000206D695F636F64655F7061676520706111
:1052C000676520696E64657820616374696F6E0D2F
:1052D0000A0000005B434C495D204578616D706CAD
:1052E000653A206D695F636F64655F706167652013
:1052F00032203020310D0A009CA300085B434C494A
:105300005D20496E76616C696420706167652C2050
:105310007573652032286C696768742920332863A7
:1053200075727461696E292034286163290D0A0041
:105330005B434C495D20496E76616C696420616312
:1053400074696F6E2C20757365203028636C6561FD
:105350007229206F722031286D61746368290D0AEB
:10536000000000005B434C495D20496E76616C692A
:105370006420696E6465780D0A0000006D695F63E2
:105380006F64655F7061676500000000F8B50D46E9
:10539000042807D01AA0FEF7EFFF25A0FEF7ECFFC8
:1053A0002D4820E06946686801F02CFE20B19DF888
:1053B00000600EB1042E01D928A014E06946A86847
:1053C00001F020FE18B19DF80040012C01D92BA05E
:1053D00009E06946E86801F015FE18B19DF8003053
:1053E000012B03D932A0FEF7C7FFF8BD2246314694
:1053F0000020FDF767FF01463AA001F073FEF8BDFB
:105400005B434C495D2055736167653A206D695F68
:10541000636F64655F737769746368206B65792077
:105420006D6F646520616374696F6E0D0A00000022
:105430005B434C495D204578616D706C653A206D29
:10544000695F636F64655F73776974636820312097
:105450003020310D0A000000E0A300085B434C49F6
:105460005D20496E76616C6964206B65792C2075CE
:10547000736520317E340D0A000000005B434C4907
:105480005D20496E76616C6964206D6F64652C20C7
:1054900075736520302864696D6D657229206F729F
:1054A0002031286375727461696E290D0A0000004D
:1054B0005B434C495D20496E76616C696420616391
:1054C00074696F6E2C20757365203028636C65617C
:1054D0007229206F722031286D61746368290D0A6A
:1054E000000000006D695F636F64655F73776974C6
:1054F000636800001CB50C46032804D00FA0FEF71B
:105500003BFF19A017E06946606801F026FD78B1FD
:1055100001A9A06801F076FD60B19DF804109DF826
:105520000000FEF7A3F8014618A001F07DFE1CBDA7
:105530001AA000E021A0FEF71FFF1CBD5B434C49F1
:105540005D2055736167653A206D695F636F6C6FAD
:10555000725F74656D70206B657920636F6C6F721C
:105560005F74656D700D0A005B434C495D204578A2
:10557000616D706C653A206D695F636F6C6F725F0F
:1055800074656D7020312035300D0A006D695F63E0
:105590006F6C6F725F74656D700000005B434C4907
:1055A0005D20496E76616C6964206B65792C20758D
:1055B000736520317E380D0A000000005B434C49C2
:1055C0005D20496E76616C696420636F6C6F722038
:1055D00074656D702C2075736520307E3235350D05
:1055E0000A0000001CB50C46032804D00FA0FEF7EB
:1055F000C3FE19A017E06946606801F09DFC78B110
:1056000001A9A06801F0FEFC60B19DF804109DF8AE
:105610000000FDF7D3FE014619A001F0B9FD1CBD45
:105620001CA000E023A0FEF7A7FE1CBD5B434C4975
:105630005D2055736167653A206D695F63757274AB
:1056400061696E5F616E676C65206B657920616E64
:10565000676C650D0A0000005B434C495D2045788E
:10566000616D706C653A206D695F63757274616914
:105670006E5F616E676C6520312035300D0A000069
:105680006D695F6375727461696E5F616E676C6589
:10569000000000005B434C495D20496E76616C69F7
:1056A00064206B65792C2075736520317E380D0A76
:1056B000000000005B434C495D20496E76616C69D7
:1056C0006420616E676C652C2075736520307E32B6
:1056D00035350D0A000000003EB50C46042807D001
:1056E00015A0FEF749FE21A0FEF746FE2BA020E004
:1056F0006946606801F086FCB0B101A9A06801F0BC
:105700001BFC98B102A9E06801F07CFC80B19DF817
:1057100008209DF804109DF80000FDF751FE014699
:105720002AA001F035FD3EBD2EA002E033A000E02E
:105730003AA0FEF721FE3EBD5B434C495D20557308
:105740006167653A206D695F6375727461696E5F48
:10575000616E676C655F7061676520706167652069
:105760006B657920616E676C650D0A005B434C497F
:105770005D204578616D706C653A206D695F637579
:10578000727461696E5F616E676C655F7061676599
:10579000203320312035300D0A0000005B434C4996
:1057A0005D20706167653A20333D6375727461698D
:1057B0006E2C206B65793A20317E382C20616E6723
:1057C0006C653A20307E3235350D0A006D695F63B5
:1057D00075727461696E5F616E676C655F70616739
:1057E000650000005B434C495D20496E76616C6941
:1057F0006420706167650D0A000000005B434C493E
:105800005D20496E76616C6964206B65792C20752A
:10581000736520317E380D0A000000005B434C495F
:105820005D20496E76616C696420616E676C652CE1
:105830002075736520307E3235350D0A000000007A
:105840001CB50C46032804D00FA0FEF795FD1AA046
:1058500017E06946606801F06FFB78B101A9A068A4
:1058600001F0D0FB60B19DF804109DF80000FDF739
:10587000C3FD01461BA001F08BFC1CBD1EA000E077
:1058800025A0FEF779FD1CBD5B434C495D20557397
:105890006167653A206D695F6375727461696E5FF7
:1058A00070657263656E74206B65792070657263D4
:1058B000656E740D0A0000005B434C495D2045781D
:1058C000616D706C653A206D695F637572746169B2
:1058D0006E5F70657263656E7420312038300D0A1A
:1058E000000000006D695F6375727461696E5F70BE
:1058F000657263656E7400005B434C495D20496EC0
:1059000076616C6964206B65792C20757365203134
:105910007E380D0A000000005B434C495D20496E53
:1059200076616C69642070657263656E742C207595
:10593000736520307E3235350D0A00003EB50C46C9
:10594000042807D015A0FEF717FD22A0FEF714FDCE
:105950002CA020E06946606801F054FBB0B101A9B9
:10596000A06801F0E9FA98B102A9E06801F04AFBE9
:1059700080B19DF808209DF804109DF80000FDF707
:105980003DFD01462CA001F003FC3EBD30A002E02D
:1059900035A000E03CA0FEF7EFFC3EBD5B434C4968
:1059A0005D2055736167653A206D695F6375727438
:1059B00061696E5F70657263656E745F7061676563
:1059C0002070616765206B65792070657263656E14
:1059D000740D0A005B434C495D204578616D706C25
:1059E000653A206D695F6375727461696E5F706599
:1059F0007263656E745F7061676520332031203893
:105A0000300D0A005B434C495D20706167653A20A8
:105A1000333D6375727461696E2C206B65793A2031
:105A2000317E382C2070657263656E743A20307E4A
:105A30003235350D0A0000006D695F63757274615F
:105A4000696E5F70657263656E745F706167650033
:105A50005B434C495D20496E76616C6964207061DE
:105A600067650D0A000000005B434C495D20496EEC
:105A700076616C6964206B65792C207573652031C3
:105A80007E380D0A000000005B434C495D20496EE2
:105A900076616C69642070657263656E742C207524
:105AA000736520307E3235350D0A00001CB50C467A
:105AB000032804D00FA0FEF75FFC19A017E0694689
:105AC000606801F039FA78B101A9A06801F09AFA8A
:105AD00060B19DF804109DF80000FDF7ABFC014695
