:020000040800F2
:10000000A00F0020350200087B3E0008CD3A000812
:10001000793E0008331E0008E1410008000000009E
:100020000000000000000000000000007F3E00080B
:10003000351E0008000000007D3E0008813E0008DB
:100040004F0200084F0200084F0200084F0200084C
:100050004F0200084F0200084F0200084F0200083C
:100060004F0200084F0200084F0200084F0200082C
:100070004F0200084F0200084F0200084F0200081C
:100080004F0200084F0200084F0200084F0200080C
:100090004F0200084F0200084F0200084F020008FC
:1000A0004F0200084F0200084F0200084F020008EC
:1000B0004F0200084F0200084F0200084F020008DC
:1000C0004F0200084F0200084F0200084F020008CC
:1000D0004F02000869410008A1410008D54100080D
:1000E0004F0200084F0200084F02000800F002F81B
:1000F00000F090F80AA090E8000C82448344AAF132
:100100000107DA4501D100F085F8AFF2090EBAE82F
:100110000F0013F0010F18BFFB1A43F0010318473B
:100120007496000094960000103A24BF78C878C1F5
:10013000FAD8520724BF30C830C144BF04680C60ED
:10014000704700000023002400250026103A28BF35
:1001500078C1FBD8520728BF30C148BF0B60704739
:100160006E2900F0E083702900F04185662908F0CF
:10017000C984652908F0C684672908F0C384612909
:1001800008F0C28403681B0A28BF41F08001692976
:1001900000F0F680642900F0F380752900F0F0800B
:1001A0006F2900F0CE84782900F00D85E92900F050
:1001B0006984E42900F06684F52900F06384EF295E
:1001C00000F0CB84F82900F00C850368DB0928BF18
:1001D00041F08001632900F0EA83732900F0EF8386
:1001E000E32901F04381F32901F0488100207047A1
:1001F0001FB500F05BFD04000020002108F056FC54
:10020000401C60600020002108F066FCE0601FBD1B
:1002100010B510BD01F064F91146FFF7E9FF06F0D3
:100220000DF901F035FA03B4FFF7F2FF03BC04F057
:100230001AF900000948804709480047FEE7FEE731
:10024000FEE7FEE7FEE7FEE7FEE7FEE7FEE7FEE786
:1002500004480549054A064B70470000E33E000884
:10026000ED000008A0090020A00F0020A00B002036
:10027000A00B00207CB51D4616460C00009001D056
:100280002044401E074B7B442A4669460190304675
:1002900000F063FB05461CB10020694600F070FBCE
:1002A00028467CBD010700000FB47CB50C0009AAEC
:1002B000009001D02044401E084B7B4469460190C9
:1002C000089800F04AFB05461CB10020694600F082
:1002D00057FB28467CBC5DF814FB0000CD060000EF
:1002E00070B5044685690068C10601D5302600E076
:1002F0002026C00707D070BDD4E9012130469047C1
:10030000206A401C20626D1EF6D570BD70B5044693
:1003100085690078C00707D170BDD4E9012120208C
:100320009047206A401C20626D1EF6D570BD70B5E6
:100330000C460546012A05D02878800600D5EA69D2
:10034000002302E0012305E05B1C934202D2E05C43
:100350000028F9D1A869E618C01AA861286A1844CB
:1003600028622846FFF7BCFF04E0D5E9012114F814
:10037000010B9047B442F8D32846FFF7C7FF70BD82
:100380002DE9F0410646002410687529314616A56E
:1003900010D000F05DFA002802DA404213A507E011
:1003A00031688A0701D512A502E0490704D511A5D5
:1003B000012401E000F055FA00210A2206F1240789
:1003C00009E0B0FBF2FCB0FBF2F302FB1C003030A2
:1003D00078541846491C0028F3D123462A46304653
:1003E000BDE8F04100F046BA000000002D0000001A
:1003F0002B000000200000002DE9F05F8946044634
:100400004FF0000ADFF874B1FB44C0F820A020468A
:10041000E1688847002874D0252806D0D4E9012156
:100420009047206A401C2062F1E700265F46204684
:10043000E16888472028054607DB312D05D2781969
:1004400010F8200C08B10643F1E7B00701D526F0FB
:100450000406C4F81CA00027C4F818A02A2D09D04F
:10046000284603F0F9FF38B304EB8708303DC8F89D
:10047000185019E059F8041B204604EB87029161DB
:10048000E1688847012F054618D1E069002820DA85
:1004900026F020061DE0D8F8180000EB800005EBE0
:1004A00040003038C8F818002046E1688847054603
:1004B00003F0D2FF0028EED1012F0AD02E2D08D153
:1004C0002046E16888477F1C0546022F46F020063B
:1004D000C4DBA069002803DA404246F00106A061AF
:1004E000F00701D026F010066C2D0BD0682D09D036
:1004F0004C2D39D06A2D35D0742D35D07A2D33D08E
:1005000016E038E0E1682F4620468847B8420546A5
:1005100009D16C2F26D04FF48060E1680643204655
:100520008847054604E06C2F1AD04FF480700643CC
:100530000DB3A5F14100192802D8203546F4006614
:100540004A462946204626604E46FFF709FE80B1FE
:1005500001280BD0F61D26F0070000F1080956E728
:100560004020E4E78020D8E70020D6E706F1040920
:100570004DE7284652E7206ABDE8F09F60880000FA
:100580002DE9F05F93460F4680460446002600F0B2
:100590005BF9D0F80090824614F8015B2DB100F0B1
:1005A0004BF90068405DC007F6D12B2D02D02D2DF0
:1005B0001AD0641E0021CAF800105A463946204657
:1005C00000F020FB014627B13868A04201D1C7F8EE
:1005D0000080DAF80000022809D0CAF800907005FF
:1005E00005D54842BDE8F09F46F48066E2E708463C
:1005F000F8E710B5431C02E010F8011B71B1810748
:10060000FAD14FF0013202C88C1A8C4314EAC2119D
:10061000F9D0C01A0A0603D0C01E10BDC01A10BD02
:100620000A0401D0801E10BD0902FCD0401E10BD7E
:10063000032A40F2308010F0030C00F0158011F80E
:10064000013BBCF1020F624498BF11F801CB00F8E6
:10065000013B38BF11F8013BA2F1040298BF00F83A
:1006600001CB38BF00F8013B11F0030300F02580F7
:10067000083AC0F0088051F8043B083A51F804CB1E
:10068000A0E80810F5E7121D5CBF51F8043B40F8E4
:10069000043BAFF30080D20724BF11F8013B11F8EF
:1006A00001CB48BF11F8012B24BF00F8013B00F833
:1006B00001CB48BF00F8012B704710B5203AC0F0BD
:1006C0000B80B1E81850203AA0E81850B1E8185053
:1006D000A0E81850BFF4F5AF5FEA027C24BFB1E890
:1006E0001850A0E8185044BF18C918C0BDE8104001
:1006F0005FEA827C24BF51F8043B40F8043B08BF0A
:100700007047D20728BF31F8023B48BF11F8012BD0
:1007100028BF20F8023B48BF00F8012B70474FF07C
:1007200000020429C0F0128010F0030C00F01B80BE
:10073000CCF1040CBCF1020F18BF00F8012BA8BFCC
:1007400020F8022BA1EB0C0100F00DB85FEAC17C90
:1007500024BF00F8012B00F8012B48BF00F8012B43
:1007600070474FF0000200B5134694469646203974
:1007700022BFA0E80C50A0E80C50B1F12001BFF45A
:10078000F7AF090728BFA0E80C5048BF0CC05DF8C0
:1007900004EB890028BF40F8042B08BF704748BF0E
:1007A00020F8022B11F0804F18BF00F8012B704782
:1007B0004FF0013C50F8042B51F8043B9A4221D1F0
:1007C000A2EB0C03934313EACC1317D150F8042B7C
:1007D00051F8043B9A4215D1A2EB0C03934313EA60
:1007E000CC130BD150F8042B51F8043B9A4209D199
:1007F000A2EB0C03934313EACC13DBD04FF00000C1
:10080000704700BFD01A01BAB1FA81F101F01801A6
:1008100022FA01F0CB40C1F12001DBB2C0B2C01A14
:100820002CFA01F3D11A914311EAC311E6D17047B2
:10083000704770477047000010B500F037FA001D90
:1008400010BD00BF69820000004870473C090020CD
:1008500009684A0501D540B27047C905FCD500B208
:10086000704709684A0501D5C0B27047C905FCD573
:1008700080B270472DE9F0470D46994692460446EE
:1008800000F124080168880604D5E06921F0100110
:10089000216000E00120A84201DD471B00E00027A5
:1008A000A1697A1902EB0900081AA0612078C00634
:1008B00002D42046FFF714FD002608E0D4E9012108
:1008C0001AF806009047206A401C761C20624E45AC
:1008D000F4DB2078C0060AD52046FFF701FD06E0CC
:1008E000D4E9012130209047206A401C2062381E44
:1008F000A7F10107F4DC07E0D4E9012118F80500AD
:100900009047206A401C2062281EA5F10105F3DCF7
:100910002046FFF7FBFC2078000602D50220BDE848
:10092000F0870120FBE711680268006A530501D5D2
:1009300008700AE0D30501D5088006E0130603D548
:10094000C217C1E9000200E0086001207047000002
:1009500001694A1C02610878704700B58FB0CDE983
:1009600001310021059105497944CDE90310114673
:100970006846FFF741FD0FB000BD0000E5FFFFFF37
:100980000A6802F8010B0A607047D1E900239A4215
:1009900002D2531C0B601070704710B5436913B13D
:1009A000AFF3008001E0FFF7C2FC012010BD127818
:1009B00000F124010A7000224A700122EDE711685B
:1009C0004FF0FF32E9E700002DE9FF5F15468A4648
:1009D0000446DFF8AC80F8440027D8E900103E4612
:1009E000CDE9001010E03AF816106A4602A800F0AF
:1009F00057FD411C07D02178890603D5E2693918D3
:100A000091420DD80744761C2078800602D5E06913
:100A1000B84205DDAE42E6DB3AF816000028E2D126
:100A2000A069C01BA0612046FFF75AFCD8E900105E
:100A3000CDE90010002017E03AF818106A4602A825
:100A400000F02EFDB0F1FF3F81460BD000250DF1E7
:100A5000080B05E0D4E901211BF8050090476D1C47
:100A60004D45F7D308F10100B0428046E4DB206A2F
:100A7000384420622046FFF749FCBDE8FF9F000094
:100A8000A68200002DE9F0418046D21D22F0070227
:100A90000025D2E90002F52915A614D0011E72F135
:100AA000000106DA0023D0EB030063EB020211A67B
:100AB00008E0D8F800108B0701D50FA602E049071F
:100AC00001D50EA601251146002408F1240704E0F3
:100AD00000F0F0F830323A55641C50EA0102F7D1C8
:100AE0002B46324621464046BDE8F041FFF7C2BEE4
:100AF000000000002D0000002B000000200000007E
:100B000030B4002100F1240408E002F00705D20807
:100B1000303542EA4372DB086554491C52EA03054A
:100B2000F3D10468002310A2250707D5A40600D43A
:100B300021B1C46901230DA2641EC46130BCFFF75A
:100B400099BE10B5044621461068FFF78AFE02469A
:100B50002046BDE810400023D2E7D21D22F0070155
:100B6000D1E90023CCE700000000000030000000C5
:100B7000F0B40D460188090502D5214C7C4402E001
:100B80001F4C7C440E34002100F1240608E002F0E2
:100B90000F071209E75D42EA03721B097754491CEB
:100BA00052EA0307F3D102780023120704D5702D0F
:100BB00006D009B1022311342246F0BCFFF75ABE19
:100BC00001231034F8E770B504460D46214610683D
:100BD000FFF747FE024629462046BDE87040002345
:100BE000C6E7D21D22F00703D3E90023C0E703685C
:100BF000126843F0200303600823C3610023B7E7B2
:100C0000088100002DE9F05F824615468B460027DB
:100C10000AF10104B9460078302801D09DB113E0F3
:100C200014F8010B0127782803D0582801D045B1CA
:100C30000AE00DB1102D07D1002714F8010B102583
:100C400002E0082500E00A250026B0460EE005FB7C
:100C5000080005FB06F101271FFA80F801EB10469A
:100C6000B6F5803F00D3B94614F8010B294600F0D1
:100C700009FC0028EBDABBF1000F05D00FB1641EB0
:100C800000E05446CBF80040B9F1000F06D0FFF762
:100C9000DBFD02210160C81EBDE8F09F48EA064066
:100CA000FAE70000004870473C0900200048704700
:100CB0005C09002030B5B0F10A024FEA900E71F1E4
:100CC00000034EEA817EB0EB0E0061EB91014FEA2A
:100CD000101E4EEA017E10EB0E0041EB11114FEA9F
:100CE000102E4EEA016E10EB0E0041EB11214FEA7F
:100CF000104E4EEA014E10EB0E0041EB1141401830
:100D000041F100014FEAD00040EA41704FEAD101C1
:100D100010EB80054FEA810444EA907444EB01042F
:100D20006D1944EB0404521BA3414FF0000348BF6C
:100D30000A3200D530BD401C41F1000130BD704782
:100D40002DE9FF4F0C461E464FF0FF378BB0D2E91E
:100D50000001DDF860800A908A46C1F30A5505B9A2
:100D60003D46002108464FF00000BAF1000F00F4A4
:100D7000400005DA00EB80004FF4400101EA50002A
:100D80004FEA9059B9F1010F00DDB9460A9850EACF
:100D90004A000ED044F61050A5F2FF3545432F14FB
:100DA000B8F1000F1ED07542291E1EDDC9F10002E8
:100DB0001CE0B8F1010F4FF0000001D0302103E03A
:100DC000F24305E02154401CB042FBDB30460022D8
:100DD000002121540B99C1F80880C1E900200FB00F
:100DE000BDE8F08FBD1B6D1CDEE74A4600DA6942A4
:100DF00006A800F0DBFB06AB93E8070003AB83E833
:100E0000070050460A9900F04CFC8DE80700A0F559
:100E100000501F3800900398002D0ADD42F21F0198
:100E20004A460844002303A90390684600F0B5FE33
:100E300009E0A0F500504A461F38002303A903909B
:100E4000684600F0BFFE8DE807000004000C03D0E8
:100E50004FF0FF30410800E01046B8F1000F03D01A
:100E60000022009215461EE0751E05D4FFF722FFF2
:100E7000303262556D1EF9D5B3460122084302D0C7
:100E800000227F1C04E02078302801D100227F1E40
:100E9000002A099784D01DE0112D07DAFFF70AFF19
:100EA000303262556D1C50EA0102F5D1084302D080
:100EB0000098C8B10EE00021681E05E0235C625C6A
:100EC00063542254401E491C8142F7DBAB46A81BE9
:100ED000401E0990002004F80B000B98099AC0F8F6
:100EE0000880C0E9002B7AE711264FF0000857E789
:100EF0002DE9F04F88460446D21D22F0070191B03B
:100F0000D1E90001CDE90A0103F06BF902460B9823
:100F1000C00F01D02D2007E02068810701D52B20CC
:100F200002E0202101EAC000032A099001D0072A2B
:100F300005DB03464146204600F0F8FA0BE1207835
:100F4000800601D5E06900E00620B8F1650F814612
:100F500006D0B8F1660F18D0B8F1670F70D131E044
:100F60000020B9F1110F009001DB112301E009F11C
:100F700001030AAA01A90CA8FFF7E2FEDDE90C7043
:100F8000002609F10105834647E001204B46009009
:100F90004FF000470AAA01A90CA8FFF7D1FEDDE92E
:100FA0000DB00C995D46002610B909F101000D182D
:100FB000B9EB050003D4C0F1FF3609F10105A5EB3B
:100FC00009002BE0B9F1010F01DA4FF0010900200F
:100FD000B9F1110F0090484601DD112300E00346EE
:100FE0000AAA01A90CA8FFF7ABFEDDE90C704D467B
:100FF00000268346207800070AD4AB4500DA5D4618
:1010000001A8012D04DD411911F8011C302907D078
:101010004F4502DA17F1040F04DA012082460FE08F
:101020006D1EEEE7002F02DCED1B3E4403E0781C52
:10103000A84200DD7D1CB81B00F1010A4FF00047FB
:101040002078000703D4AA4501DB4FF0FF3A0021C6
:10105000B7F1004F0DF143088DF8431024D0022062
:101060002B23002F01DA7F422D230A21021EA0F13B
:10107000010000DC5FB197FBF1FC97FBF1F201FB93
:101080001C7C17460CF1300C08F801CDEEE7A8F1F6
:10109000010003702188090501D5452100E0652183
:1010A000A0F1010800F8011C09980FA9A1EB08079D
:1010B000FF1D00B10120411901EBEA70A16938441C
:1010C000081A401EA0612078C00602D42046FFF70F
:1010D00007F9099828B1D4E901219047206A401CFA
:1010E00020622078C00622D52046FFF7F9F81EE0DE
:1010F000002E04DBB34502DD01A8805D00E0302056
:10110000D4E901219047206A401C2062761CAAF194
:1011100001005FEA000A0AD1FFF7C8FDC068016854
:10112000405CD4E901219047206A401C2062281EBF
:10113000A5F10105DCDC07E0D4E9012118F8010B79
:101140009047206A401C2062381EA7F10107F3DC9B
:101150002046FFF7DBF8032011B041E62DE9F04F00
:1011600004460D46D21D22F0070089B0D0E9009751
:101170004846394603F035F80246F80F01D02D23D2
:1011800007E02068810701D52B2302E0202101EA36
:10119000C0038DF820300BB1012000E00020032AAD
:1011A000824601D0072A04DB2946204600F0BEF91A
:1011B0003FE12078800601D40D2500E0E569C7F302
:1011C0000A560D2D49DA00214FEA175B08464FF009
:1011D0000000002F00F4400007DA00EB80004FF41D
:1011E000400100EBD07001EA60008115012901DDAA
:1011F0004FF0FF3100224FEA850CBCF1180F06D3E7
:101200001346ACF118004FF08052C24003E04FF497
:10121000801323FA0CF30CF10C0CBCF1200F04D357
:10122000ACF1200C09FA0CF001E007FA0CF00029EF
:101230004FF0004801DD18B90FE00ED140450CD346
:1012400019EB02095F4121B9404502D19F4329EAC8
:101250000209BBEB175F00D0761C2088000502D581
:101260007B48784402E07A487844193808AA302349
:1012700002F80A30037C0AF10101002E0AF1020A89
:1012800053546A4602DC4FF0300101E04FF0310167
:101290004FF001088DF8001002D0A6F2FF3603E0EF
:1012A00059EA470100D06B4E002D02DC2178090776
:1012B00004D54FF002082E218DF80110C4460021FC
:1012C0000BE0C7F303433F01C35C491C6D1E02F8EA
:1012D0000830052908F1010801DA002DF1DC0021B0
:1012E0000CE000EB1973491C1B786D1E082902F8ED
:1012F00008304FEA091908F1010801DA002DF0DC85
:1013000021688B0602D516E0A8F10108E04505DD4D
:1013100002EB080313F8013C302BF5D0B8F1000FB5
:1013200009DD02EB080313F8013C2E2B03D109075A
:1013300001D4A8F10108002D05DD3E2102F80810B6
:101340006D1E08F10108407C002E02F8080008F12B
:10135000010804DA2D20764202F8080002E02B2072
:1013600002F808000A214FF47A70864208F1010859
:101370000BDB96FBF0F3303302F8083096FBF0F30A
:1013800008F1010800FB136601E0642E0CDB642009
:1013900096FBF0F3303302F8083096FBF0F308F1D7
:1013A000010800FB136601E00A2E06DB96FBF1F054
:1013B000303002F8080008F1010896FBF1F001FB5B
:1013C0001060303002F80800A16908F1010808EB4C
:1013D000050202EB0A00081AA0612078C00602D4B8
:1013E0002046FEF77DFF216A08AE01EB0A0020626D
:1013F00004E0D4E9012116F8010B9047BAF1010A83
:10140000F7D22078C00602D52046FEF769FF6E4667
:1014100009E016F8010B3E280FD0D4E901219047CE
:10142000206A401C2062B8F10108F2D22046FEF783
:101430006DFF09B00320BDE8F08F206A28442062C8
:1014400003E0D4E90121302090476D1EEBD3F8E78B
:101450005D7A000002FCFFFF10B5436913B1AFF3E2
:10146000008001E0FFF7B0FA012010BD128800F102
:10147000240182840022C2840122EDE711684FF02A
:10148000FF32E9E73A2800D2303820F02002412A22
:1014900001D3A2F13700884201D34FF0FF307047EB
:1014A00070B516460C460546FFF7C6F9036893F873
:1014B0000101012806D0FF2C0FD8185D68B101206A
:1014C0002C7070BDD3F807013246214603F2071392
:1014D00003442846BDE8704018474FF0FF3070BD08
:1014E0007546FFF7DFFBAE4605006946534620F020
:1014F0000700854618B020B5FEF7AAFEBDE82040DB
:101500004FF000064FF000074FF000084FF0000BBF
:1015100021F00701AC46ACE8C009ACE8C009ACE872
:10152000C009ACE8C0098D46704700002DE9F041C4
:101530001F46044603260168072A01F4006004DB05
:1015400008B116A505E016A503E008B115A500E051
:1015500015A521F010002060A069C01EA0610FB188
:10156000401EA0612046FEF7BBFE4FB1D4E9012129
:1015700038469047206A401C2062C01C206206E06A
:10158000206AFAE7D4E9012115F8010B9047761E8D
:10159000F8D22046FEF7BAFEBDE8F0814E414E007B
:1015A0006E616E00494E4600696E66002DE9F04797
:1015B000814616468AB0354878440DC88DE80D003E
:1015C00032487844801C03AC0DC884E80D0041F615
:1015D0009B300844372190FBF1F290FBF1F5A5F127
:1015E000800501FB12041B3C02D56442012000E08F
:1015F0000020DFF898A080460027FA44AAF1BE0A2E
:101600000EE0E0070AD03246684607EB47010123A7
:101610000AEB810100F0D6FA8DE8070064107F1C08
:10162000002CEED1194F7F44AE3F19E0E80715D0EA
:1016300007EB04100DF1180A90E80E008AE80E007E
:10164000C068F04201D1981908903246012306A9DA
:1016500003A800F0B7FA03AB83E807006D10641C21
:10166000002DE3D14FF0010332466946B8F1000F77
:1016700003A802D000F091FA01E000F0A3FAC9E952
:101680000001C9F808200AB0BDE8F087987700008B
:1016900010B50446AFF300802046BDE81040FEF7C9
:1016A000C2BD5FEA400C08BF91F0000F4FEA8C23E7
:1016B0004FEAC12243EA51514FEA1C5018BF00F5CE
:1016C000F0404FEA300018BF41F000415FEA6C5C27
:1016D00000F02980BCF1FF3F08BF40F08040704718
:1016E000130C06BF12044FF0100C4FF0000C130E39
:1016F00004BF12020CF1080C130F04BF12010CF10D
:10170000040C930F04BF92000CF1020CD30F04BF22
:1017100052000CF1010C11464FF00002A0F11F0025
:10172000A0EB0C00704711F0004F08BF704731F07C
:1017300000413FF4D5AF0B0C06BF09044FF0100C6D
:101740004FF0000C0B0E04BF09020CF1080C0B0F3C
:1017500004BF09010CF1040C8B0F04BF89000CF1CC
:10176000020CCB0F04BF49000CF1010CCCF120039B
:10177000A0EB0C0022FA03F302FA0CF241EA030197
:1017800000F10100704720F07F4C80EA030023F055
:101790007F47ACEB070303F57C5300F0004003F1F7
:1017A000FF032DE980494FEA154B09B44FEA144372
:1017B00025EA0B4E24EA03480FF2042606EB132712
:1017C00049083E785FEA320203FB0667C7F5000767
:1017D00007FB06F64FEA54374FEAD64606F10206F3
:1017E00007FB066CCCF1005C4FEA1C472CEA074C67
:1017F00007FB06F40CFB06F504EB15464FEA9616BC
:1018000034BF00204FF000404FEAD13706FB07FC01
:101810004FEA1C4C0CFB0BF7D21B03FB0CF761EBE4
:1018200007010CFB0EF7B0EB074072EB17420CFB05
:1018300008F734BFA2EB0742B2EB074261EB174156
:101840004FEA0C444FEA910706FB07FC4FEA1C4C99
:101850000CFB0BF7B0EBC74072EB573203FB0CF7F6
:1018600034BFA2EBC742B2EBC74261EB57310CFB6E
:101870000EF7B0EBC70072EB57720CFB08F734BFE2
:10188000A2EBC702B2EBC70261EB5771039F4FEAAD
:10189000816141EA921104EBCC044FEAD1374FEA5F
:1018A000826206FB07FC42EA90124FEA80604FEA30
:1018B0001C4C0CFB0BF7D21B03FB0CF761EB070175
:1018C0000CFB0EF7B0EB074072EB17420CFB08F76E
:1018D00034BFA2EB0742B2EB074261EB17414FEA7C
:1018E0008C554FEA910704EB9C2406FB07FC4FEA5A
:1018F0001C4C0CFB0BF7B0EBC74072EB573203FBF1
:101900000CF734BFA2EBC742B2EBC74261EB5731D1
:101910000CFB0EF7B0EBC70072EB57720CFB08F72D
:1019200034BFA2EBC702B2EBC70261EB577115EBF4
:101930004C254FEA816141EA92114FEA82624FEAF7
:10194000D13742EA901206FB07FC44F100044FEA4B
:1019500080604FEA1C4C0CFB0BF7D21B03FB0CF70F
:1019600061EB07010CFB0EF7B0EB074072EB17427F
:101970000CFB08F734BFA2EB0742B2EB074261EB66
:10198000174115EB1C154FEA813141EA92414FEAAC
:10199000823242EA90424FEA80304FEA0C7644F1BC
:1019A000000448EA03434EEA0B484FF0000EB2EB46
:1019B000080C71EB030724BF624639464EEB0E0E4E
:1019C0004FF0000B0018524149414BEB0B0BB2EBAF
:1019D000080C71EB03077BF1000B24BF624639460C
:1019E0004EEB0E0E4FF0000B0018524149414BEBED
:1019F0000B0BB2EB080C71EB03077BF1000B24BF60
:101A0000624639464EEB0E0E51EA020718BF46F009
:101A1000010616EB0E7655F1000254F1000103D5D4
:101A2000BDE88901BDE80088BDE88901BDE800483E
:101A3000B619524141EB0101A3F1010370478080C7
:101A40007F7E7D7C7B7A7978777676757473727118
:101A500071706F6E6E6D6C6C6B6A6A6968686766D0
:101A600066656464636362616160605F5F5E5E5D62
:101A70005D5C5C5B5B5A5A595958585757565655D6
:101A800055555454535352525251515050504F4F38
:101A90004F4E4E4D4D4D4C4C4C4B4B4B4A4A4A4988
:101AA00049494848484747474746464645454544CB
:101AB0004444444343434342424242414141002B58
:101AC0009C4630D477002BD01CB54FEA370703B4BF
:101AD0004FF010004FF01001BAF1000F06D0BCF12A
:101AE000000FDCBF40F0080040F008014FF000009C
:101AF0000FBCBDE810400BF1010BBBF1010F08BF9B
:101B00005FEA170722BF12F1010211F101014FF044
:101B1000004143F1000300F0004043EA0000704739
:101B2000F9D35708D0E746EA064613F1400F4FEACB
:101B300016461FDD13F1200FDFBF16430A460021B2
:101B400020335B42BED0C3F1200746EA064602FAC4
:101B500007F74FEA164646EA0706C3F1200722FABE
:101B600003F201FA07F721FA03F14FF0000342EA0A
:101B70000702A7E746EA020646EA06464FEA164685
:101B800046EA0106BCBF46EA0646360C4FF00003A3
:101B90004FF000024FF0000194E72DE9804C9A4687
:101BA000934670B491E8380007C831EA400C48BF4A
:101BB00034EA430C03D5FFF7E6FDFFF780FFF0BCE6
:101BC000BDE8008C2DE9804C9A46934670B491E8AC
:101BD000380007C810F0804F08BF13F0804F03D1C2
:101BE00000F005F8FFF76BFFF0BCBDE8008C20F0BB
:101BF0007F4780EA030023F07F4C07EB0C03A3F53B
:101C00007C5300F00040A3F1FE0392F0000F00F0BF
:101C1000B38095F0000F00F077802DE901494FEA7D
:101C200011404FEA144621EA004800FB06FC24EA72
:101C3000064708FB06F607FB08F800FB07F718EB5A
:101C400006484CEB164C4FEA124B18EB07484FEA8C
:101C500015464CEB174022EA0B4E0BFB06FC25EA1F
:101C600006470EFB06F607FB0EFE0BFB07F71EEB07
:101C7000064E4CEB164C4FF000061EEB074E4CEB9D
:101C8000174B18EB0B0840F1000018EB0E0B58EB4C
:101C9000000840F100008F1A4FF000013CBFC9431B
:101CA000661B14BFB5EB040C00213CBFC943F61BF7
:101CB0004FEA17444EEA8E0E27EA04454FEA1C47C6
:101CC00004FB07622CEA074C05FB07F70CFB05F643
:101CD00004FB0CFC16EB074642EB174216EB0C46D6
:101CE00042EB1C421BEB060658EB0202414146EA5E
:101CF0009E0601D5BDE80189B619524141EB0101AB
:101D0000A3F10103BDE801894FEA14454FEA1147E9
:101D100024EA054621EA074C05FB07F406FB07F712
:101D20000CFB06F105FB0CFC11EB074144EB1744DF
:101D30004FEA124711EB0C4144EB1C4422EA074CDA
:101D400005FB07F206FB07F70CFB06F605FB0CFC90
:101D500016EB074642EB174216EB0C4642EB1C45CE
:101D60006A1854F1000148BF7047B619524141EB5F
:101D70000101A3F10103704795F0000F37D04FEA3E
:101D800011424FEA144721EA024624EA074C02FBBB
:101D900007F106FB07F70CFB06F402FB0CFC14EB47
:101DA000074441EB17414FEA154714EB0C4441EB54
:101DB0001C4125EA074C02FB07F506FB07F70CFB65
:101DC00006F602FB0CFC16EB074645EB174516EB37
:101DD0000C4645EB1C42121951F1000148BF7047F7
:101DE000B619524141EB0101A3F1010370474FEADB
:101DF00014454FEA114724EA054621EA074C05FB42
:101E000007F106FB07F70CFB06F24FF0000605FB97
:101E10000CFC12EB074241EB174112EB0C4251EB69
:101E20001C4148BF7047921841EB0101A3F1010327
:101E30007047FEE7704772B6FEE710B590F82110C4
:101E40000022022905D00421816380F8202001208E
:101E500010BD01680B6823F00E030B6001680B686E
:101E600023F001030B6090F84030C46B012101FAAC
:101E700003F3636080F8211080F82020104610BD25
:101E800010B590F821100024022903D004218163A9
:101E900001243DE001680A6822F00E020A60016830
:101EA0000A6822F001020A601A4A0168914201D1CF
:101EB000012121E0174A1432914201D110211BE087
:101EC000144A2832914201D1891515E0114A3C3259
:101ED000914201D189140FE00E4A5032914202D151
:101EE0004FF4803108E00B4A6432914202D14FF442
:101EF000801101E04FF08071064A083A51600121DB
:101F000080F82110002180F82010416B01B1884732
:101F1000204610BD0800024070B5044600F0FEF8EF
:101F20000546601C02D004480078044400F0F6F82E
:101F3000401BA042FAD370BD0C0000202DE9F84FE1
:101F4000DFF8B8910024A9F1040B23460F2709F10B
:101F5000040AABF1040EC9E00125A5402A40AA42BB
:101F60007DD1674ED1F804C0ACEB0608B44532D041
:101F700014DCBCF1030F3AD009DCBCF1000F2AD00D
:101F8000BCF1010F1CD0BCF1020F31D11DE0BCF13E
:101F9000110F17D0BCF1120F2AD119E0B8F5881F24
:101FA00019D006DCB8F5803F15D0B8F5801F1FD1D9
:101FB00011E0B8F5001F0ED0B8F5041F18D10AE0E3
:101FC000CB6815E0CB681B1D12E0CB6808330FE02F
:101FD000CB680C330CE08B682BB1012B4FF008035E
:101FE00003D0456104E0042302E0056100E0002322
:101FF000FF2A01D8064601E000F104064FEA8405F5
:1020000001D9A5F12005D6F8008007FA05FC28EAD9
:102010000C0803FA05F548EA0508C6F800804D6883
:10202000ED0062D5374DAE6946F00106AE61AD698F
:1020300024F0030605F001050095334D06EB050C71
:10204000DCF80850A607360F07FA06F825EA080557
:10205000DFF8B880404503D14FF0000817E044E0B6
:10206000DFF8AC80404502D14FF001080FE0DFF807
:10207000A480404502D14FF0020808E0DFF89880C4
:10208000404502D14FF0030801E04FF0040808FA80
:1020900006F848EA0508CCF808804D68D9F80060D1
:1020A000ED024D4601D5164300E096432E604D6883
:1020B000DAF80060AD02554601D5164300E09643BC
:1020C0002E604D68DBF80060AD035D4601D5164318
:1020D00000E096432E604D68DEF80060ED03754623
:1020E00001D5164300E096432E60641C0D682A4615
:1020F000E5407FF431AFBDE8F88F000008040140EF
:1021000000001110001002400000014000080140D2
:10211000000C01400010014000140140014880689B
:10212000704700000C0000200248816802781144CA
:10213000816070470C000020074810B5016841F02D
:1021400010010160032000F075F80F2000F006F880
:1021500000F024F8002010BD0020024070B50D4DA5
:1021600004464FF47A712878B1FBF0F00A49096807
:10217000B1FBF0F000F0DCFA48B9102C07D20022D5
:102180002146501E00F036F800206C6070BD012022
:1021900070BD00000C000020080000200C4808B5AD
:1021A000816941F001018161816901F001010091C2
:1021B000C16941F08051C161C06900F08050009058
:1021C0000448416821F0E06141F00071416008BDC0
:1021D0000010024000000140002809DB00F01F024F
:1021E000012191404009800000F1E020C0F8001179
:1021F00070470000F0B40E4B1B680C46C3F302237B
:10220000C3F10705042D00D90425191D072901D2A2
:10221000002300E0DB1E012606FA05F1491E2140DD
:1022200099409E40761E16403143F0BC01F0EDBF50
:102230000CED00E0064900F0070208684FF6FF03C6
:10224000184040EA0220034A10430860704700002B
:102250000CED00E00000FA052DE9F0470F460500FF
:1022600061D0434E306800F00700B84209D23068B0
:1022700020F0070038433060306800F00700B842B3
:1022800051D128683B4C810712D5400703D56068BF
:1022900040F4E06060602878000703D5606840F48F
:1022A000605060606068A96820F0F00008436060DA
:1022B0002878C00728D06868012810D02168022833
:1022C00010D0890700292EDA616821F0030101434B
:1022D0006160FFF723FF804641F288390DE02168F5
:1022E0008903EFE78901EDE7FFF718FFA0EB08018D
:1022F000494502D90320BDE8F0876068696800F0AD
:102300000C00B0EB810FEFD1306800F00700B8424D
:102310000BD9306820F0070038433060306800F097
:102320000700B84201D00120E5E72878400705D52D
:102330006068E96820F4E06008436060287800077E
:1023400006D56068296920F4605040EAC1006060E9
:1023500000F038F86168084AC1F30311515CC840C5
:102360000649086006480068FFF7F8FE0020C2E74B
:102370000020024000100240B48B0008080000203A
:10238000100000200448054900684968044AC1F368
:102390000221515CC8407047080000200010024034
:1023A000C48B00080448054900684968044AC1F321
:1023B000C221515CC8407047080000200010024054
:1023C000C48B00080E4A51680E4801F00C03042B20
:1023D00011D0082B0FD10C48C1F38343C903C05C53
:1023E0000AD55168084AC1F34041921E515C054A22
:1023F0005043B0FBF1F07047044948437047000078
:102400000010024000127A00CE8B000800093D0047
:102410002DE9F84F040070D02078C04DC00749D096
:102420006868C0F38100012807D06868C0F38100A4
:10243000022809D16868C00306D52868800339D509
:1024400060680028E7D035E06068B0F5803F0BD0C9
:1024500010B1B0F5A02F11D0286820F4803028608A
:10246000286820F4802002E0286840F4803028604A
:10247000606890B1FFF752FE06460AE0286840F413
:1024800080202860F0E700BFFFF748FE801B64282B
:1024900073D828688003F7D50CE0FFF73FFE0646A7
:1024A00005E000BFFFF73AFE801B6428F0D82868DB
:1024B0008003F7D420789A4E80074FF001094FF03F
:1024C000000839D5686810F00C0F07D06868C0F3B1
:1024D0008100022809D16868C00306D428688007F3
:1024E00014D52069012808D110E02069B0B1C6F8E0
:1024F0000090FFF713FE074605E00AE1FFF70EFE26
:10250000C01B0228C4D828688007F7D528686169ED
:1025100020F0F80040EAC10028600DE0C6F8008015
:10252000FFF7FCFD074604E0FFF7F8FDC01B02289B
:1025300023D828688007F7D4207800072CD579485D
:10254000A169D9B1C0F80090FFF7E8FD074604E0A3
:10255000FFF7E4FDC01B02280FD8686A8007F7D593
:1025600071484FF4FA510068B0FBF1F0009000BFE1
:102570000098411E0091FAD20EE080E0C0F8008081
:10258000FFF7CCFD074604E0FFF7C8FDC01B02289B
:1025900075D8686A8007F7D42078400760D5E86965
:1025A0000027C00008D4E86940F08050E861E8697D
:1025B000012700F0805000905C480168C90513D4E1
:1025C0000168834641F480710160FFF7A7FD8246F0
:1025D00006E000BFFFF7A2FDA0EB0A0064284ED87A
:1025E000DBF80000C005F5D5E06801280AD008B185
:1025F000052813D0286A20F001002862286A20F0FC
:10260000040002E0286A40F001002862E06841F21C
:10261000883B98B1FFF782FD82460BE0286A40F0C4
:1026200004002862EEE700BFFFF778FDA0EB0A0187
:1026300059455AD8286A8007F6D50CE0FFF76EFD99
:10264000824605E0FFF76AFDA0EB0A0159454CD828
:10265000286A8007F6D41FB1E86920F08050E8614D
:10266000E06988B36968C1F38101022944D0022876
:10267000C6F8608004D0FFF751FD044638E034E02E
:10268000FFF74CFD074604E0FFF748FDC01B02289A
:102690002BD828688001F7D4206AB0F5803F05D197
:1026A0006868A16820F4003008436860D4E9080134
:1026B0000843696821F4741108436860C6F86090A3
:1026C000FFF72CFD044606E025E000BFFFF726FDDE
:1026D000001B022809D828688001F7D51BE000BF3D
:1026E000FFF71CFD001B022802D90320BDE8F88F6C
:1026F00028688001F4D40EE00128F7D06868226AC7
:1027000000F48031914204D1616A00F47010884273
:1027100001D00120EAE70020E8E7000000100240B5
:102720000000424280044242080000200070004045
:1027300010B5401EB0F1807F01D3012010BD4FF0D5
:10274000E02460610F21601701F05FFD0020A061AF
:1027500007202061002010BD70477047F8B5016860
:1027600004460868CA684B6910F00F0F4FF0000567
:1027700059D003F0010602F49077374365D0C107C2
:1027800005D0D10503D5616C41F0010161644107B9
:1027900005D5D90703D0616C41F00201616481075E
:1027A00005D5D90703D0616C41F0040161640107CC
:1027B00007D502F02001314303D0616C41F00801DC
:1027C0006164616C00293AD0800604D5900602D578
:1027D000204601F0D2FB20684069616CC0F3801094
:1027E000090700D460B3204601F0A0FB20684069CF
:1027F000400621D52068143050E8001F21F0400128
:1028000040E80012002AF5D1E06BA8B16D494163A0
:10281000E06BFFF735FB002811D0E06B416B01B096
:10282000BDE8F040084783060FD593060DD5204636
:10283000BDE8F84001F0A1BB2046FFF78EFFF8BDD0
:102840002046FFF78AFF6564F8BD266B2023012E22
:102850007CD1C6067AD5D60678D508684868009037
:1028600048694FF00206400640D5E16B08684068B1
:102870000004000CE8D0A28D8242E5D9E085886989
:1028800020282DD020680C3050E8001F21F48071E2
:1028900040E80012002AF5D12068143050E8001FEB
:1028A00021F0010140E80012002AF5D1206814301F
:1028B00050E8001F21F0400140E80012002AF5D145
:1028C00084F84230256320680C3050E8001F21F066
:1028D000100140E80012002AF5D1E06BFFF7ADFAD5
:1028E0006663A08DE18D401A81B22AE0A08DE18D52
:1028F000401A81B2E08D0028A6D00029A4D0226819
:102900000C3252E8000F20F4907042E80007002FCC
:10291000F5D12068143050E8002F22F0010240E881
:102920000027002FF5D184F84230256320680C3051
:1029300050E8002F22F0100240E80023002BF5D1D0
:1029400066632046FFF708FFF8BDFFE705062BD5B5
:10295000150629D594F841002128F5D1A068B0F5D5
:10296000805F01D12069B0B1206A411C21622168D9
:1029700000784860E08C401E0004000CE084E3D145
:102980002068C16821F08001C1602068C16841F001
:102990004001C160D8E7206A0088C0F308004860A1
:1029A000206A801C2062E5E74006CDD55006CBD5D5
:1029B000CA68204622F04002CA6084F8413000F024
:1029C00020F9C1E71D3F000870B5040004D094F859
:1029D0004100002510B106E0012070BD84F8405090
:1029E000204600F023F8242084F841002068C168C4
:1029F00021F40051C160204601F020FB20680169EC
:102A000021F4904101612068416921F02A0141616E
:102A10002068C16841F40051C1606564202084F8D9
:102A2000410084F842006563002070BDF0B585B0B8
:102A3000002400940194029403940368424F0220FE
:102A400042490322424D4602BB4225D18B6943F4E1
:102A500080438B618B6903F4804304938B6943F05B
:102A600004038B618969039201F00401049101025E
:102A7000CDE9001069462846FFF760FACDE9006409
:102A8000694628460294FFF759FA0022114625208C
:102A9000FFF7B0FB252028E02E4FBB4229D1CB69A0
:102AA00043F40033CB61CB6903F4003304938B69A7
:102AB00043F004038B618969039201F004010491DE
:102AC0000421CDE9001069462846FFF737FA0820AF
:102AD000CDE90004694628460294FFF72FFA002248
:102AE00011462620FFF786FB2620FFF775FB05B071
:102AF000F0BD194DAB42FAD1CB6943F48023CB61D1
:102B0000CB6903F4802304938B6943F008038B6142
:102B10008969124D01F00801CDE90321CDE900607A
:102B200069462846FFF70AFAE814CDE90004694629
:102B300028460294FFF702FA002211462720FFF7E9
:102B400059FB2720D1E70000003801400010024067
:102B5000000801400044004000480040000C0140D3
:102B600070472DE9F843044690F841009846164610
:102B70000D46202802D00220BDE8F88385B17EB141
:102B800000206064212084F84100FFF7C7FAA68482
:102B90008146E684A0682027B0F5805F02D003E07C
:102BA0000120E9E7206910B12E4600250EE000263D
:102BB0000CE08021204601F09DFAA8B9C6B116F8B4
:102BC000010B21684860E08C401EE084E08C4B469D
:102BD0004FF00002CDF800800028EAD14FF040010C
:102BE000204601F087FA40B184F841700320C3E722
:102BF00035F8020BC0F30800E3E784F841700020C9
:102C0000BAE7704700F080B8401E102801D20120BA
:102C1000704700207047401E032801D801207047EC
:102C200000207047401E042801D801207047002072
:102C3000704718B1012801D000207047012070476B
:102C4000322801D8012070470020704703480168EE
:102C5000002901D002480847704700008800002082
:102C6000CC04002010B586B0A8B101890DF1080C84
:102C700090F8264090F82530027B8CE81E0082797F
:102C80004179CDE90012037902780649022001F06A
:102C90006DF806B010BD06B003A1BDE810400220DB
:102CA00001F064B8948E00085B494E464F5D2020C9
:102CB0005B484F4F43485D20416972436F6E6469C2
:102CC00074696F6E65722063616C6C6261636B3AEC
:102CD000206672616D65206973204E554C4C0D0A5B
:102CE00000000000014908607047000088000020D3
:102CF00001490860704700008C00002001494860CD
:102D0000704700008C00002070B5040064D0207B68
:102D1000FFF77AFF00285FD0207B304D0E285BD272
:102D2000DFE800F05A071F262D343A414441414163
:102D300041412079FFF77DFFA0B36079FFF772FF73
:102D400080B3A079FFF767FF60B3207AFFF778FFC1
:102D500040B32079287160796871A079A8712089C1
:102D600018E02079FFF765FFE0B12079287124E0B1
:102D70006079FFF757FFA8B1607968711DE0A0790D
:102D8000FFF749FF70B1A079A87116E02089C1B2A0
:102D9000322921D8288110E06089C1B232291BD89C
:102DA00068810AE018E0208D288506E00B4818228B
:102DB00004F10D010D30FDF73BFC20782870207BDD
:102DC000287394F8250085F82500012085F8260051
:102DD000FFF73CFF002070BD022070BDCC04002036
:102DE0003EB5B8B10178E1B1022931D0032931D023
:102DF000042931D01AA284780179C378012C2DD00E
:102E000019A40094CDE9013143781949022000F05A
:102E1000ADFF3EBD03B017A1BDE83040022000F079
:102E2000A5BF4178012202EB111211F00F0F0BD058
:102E30001DA30179C4788078012807D00AA00090EA
:102E4000CDE901411A49E1E71AA3F2E71BA0F6E731
:102E50001CA2D0E714A2CEE71CA2CCE717A4D0E7AF
:102E6000554E4B4E4F574E00434C454152000000CB
:102E7000389100085B494E464F5D20205B484F4F1C
:102E800043485D20436F64654D61746368206361EE
:102E90006C6C6261636B3A206672616D6520697368
:102EA000204E554C4C0D0A004355525441494E009A
:102EB000E090000844494D4D455200004D415443B7
:102EC000480000004C4947485400000041430000BE
:102ED0000149086070470000A40000200348016811
:102EE000002901D0024808477047000098000020E0
:102EF000F60400201FB560B1817A847C037C427B9C
:102F00008DE81E00C37902790549022000F02EFFEA
:102F10001FBD04B003A1BDE81040022000F026BF91
:102F2000789000085B494E464F5D20205B484F4F2C
:102F300043485D204375727461696E2063616C6CF7
:102F40006261636B3A206672616D65206973204E21
:102F5000554C4C0D0A000000014908607047000004
:102F6000940000200149886070470000980000200C
:102F700000F006B800F026B800F030B800F03AB81B
:102F800008B50246009103490523A1F10D0000F0A8
:102F900003F808BD0305002070B5049C18B111B1F9
:102FA000551E0F2D01D9022070BD02700C704A7899
:102FB000521C4A7001228A7003748274FFF78EFFDC
:102FC000002070BD08B50246009103490423A1F119
:102FD0000A00FFF7E1FF08BD0005002008B5024622
:102FE000009103490323C81FFFF7D6FF08BD000067
:102FF000FD04002008B50246009103490223081F82
:10300000FFF7CAFF08BD0000FA040020004870471F
:1030100088030020401E0F2801D80120704700209F
:10302000704718B1012801D0002070470120704777
:1030300003480168002901D0024808477047000092
:103040001C000020880300201FB560B1417A047B7A
:10305000C37A827A8DE81E00C388828805490220DF
:1030600000F084FE1FBD04B003A1BDE810400220A3
:1030700000F07CBE748F00085B494E464F5D2020F7
:103080005B484F4F43485D2044696D6D65724C69E4
:103090006768742063616C6C6261636B3A2066726E
:1030A000616D65206973204E554C4C0D0A0000007F
:1030B000014908607047000018000020014988603D
:1030C000704700001C00002010B5421E0F2A01D9D5
:1030D000022010BD064A1070918002209072D07AB2
:1030E000401CD07201201073FFF7A2FF002010BD1A
:1030F0008803002010B5421E0F2A01D9022010BDFE
:10310000064A1070D18003209072D07A401CD07291
:1031100001201073FFF78CFF002010BD88030020F2
:1031200070B504460D46FFF775FF88B12846FFF7D6
:1031300078FF68B107480421047045728172C17A32
:10314000491CC17201210173FFF772FF002070BD9D
:10315000022070BD8803002000F072B8401E0F28C6
:1031600001D20120704700207047401E022801D87C
:10317000012070470020704718B1012801D00020BD
:103180007047012070473C2801D80120704700207B
:103190007047000003480168002901D00248084731
:1031A0007047000028000020B403002010B586B04E
:1031B000A8B101890DF1080C90F8244090F8233053
:1031C000827A8CE81E00C2884179CDE90012037929
:1031D00002780649022000F0C9FD06B010BD06B015
:1031E00003A1BDE81040022000F0C0BDF08F000830
:1031F0005B494E464F5D20205B484F4F43485D2062
:10320000466C6F6F7248656174696E672063616CAC
:103210006C6261636B3A206672616D652069732030
:103220004E554C4C0D0A00000149086070470000E3
:103230002800002001490860704700002C00002091
:1032400070B504005DD0A07AFFF788FF002858D041
:10325000A07A2D4D0D2854D2DFE800F053071F2629
:103260002D33393D3939393939002079FFF784FF59
:1032700080B36079FFF779FF60B3A079FFF783FF30
:1032800040B3207AFFF77FFF20B32079287160795F
:103290006871E088E880208917E02079FFF76CFFEB
:1032A000C0B1207928711DE06079FFF75EFF88B119
:1032B0006079687116E0E088C1B23C2921D8E880C5
:1032C00010E02089C1B23C291BD828810AE0E08C9B
:1032D000E88407E015E00C48182204F10B010B30DC
:1032E000FDF7A6F920782870A07AA87294F8230038
:1032F00085F82300012085F82400FFF74BFF00200C
:1033000070BD022070BD0000B403002000F06EB854
:10331000401E0C2801D20120704700207047401E3B
:10332000032801D80120704700207047401E032861
:1033300001D8012070470020704718B1012801D042
:10334000002070470120704703480168002901D020
:10335000024808477047000034000020DC030020CA
:1033600010B586B098B181790DF1040C90F8224027
:1033700090F82130027A8CE81E004179009103799F
:1033800002780649022000F0F1FC06B010BD06B03C
:1033900003A1BDE81040022000F0E8BC248E000824
:1033A0005B494E464F5D20205B484F4F43485D20B0
:1033B00046726573684169722063616C6C62616317
:1033C0006B3A206672616D65206973204E554C4CD6
:1033D0000D0A000001490860704700003400002019
:1033E00001490860704700003800002070B50400F3
:1033F00053D0207AFFF78CFF80B3207A284D0A281B
:103400004BD2DFE800F04A05161D242C2F342F2F55
:103410002079FFF792FF08B36079FFF787FFE8B1E3
:10342000A079FFF77CFFC8B12079287160796871B5
:1034300011E02079FFF781FF80B1207928711DE02C
:103440006079FFF773FF48B16079687116E0A07981
:10345000FFF765FF10B1A079A8710FE01DE0E079DA
:10346000E8710BE094F8230085F8230006E00C488F
:10347000182204F109010930FDF7DAF820782870E4
:10348000207A287294F8210085F82100012085F81F
:103490002200FFF759FF002070BD022070BD000020
:1034A000DC030020401E0F2801D8012070470020B7
:1034B000704728B1012803D0022801D000207047AE
:1034C0000120704703480168002901D0001D08470A
:1034D000704700007C0000200EB558B18178037958
:1034E000C2788DE80E00437802780649022000F089
:1034F0003DFC0EBD03B004A102205DF804EB00F01A
:1035000035BC0000CC8D00085B494E464F5D202045
:103510005B484F4F43485D204B65794D6F64652094
:1035200063616C6C6261636B3A206672616D6520E9
:103530006973204E554C4C0D0A000000014908608B
:10354000704700007C000020AFF3008070B5044697
:10355000FFF7A8FFB0B10846FFF7ABFF90B1601EC0
:10356000094BC0B201251A5410331954074B1C7073
:1035700059709A70D878401CD8701D71FFF7A2FF5F
:10358000002070BD022070BDAC040020800000202F
:10359000002204E08354521CD2B21F2A02D28B5C58
:1035A000002BF7D1002181547047000003480168C7
:1035B000002901D002480847704700004000002061
:1035C0000004002010B586B098B1C1780DF1040C4C
:1035D00090F8264090F82530421D8CE81E00817836
:1035E0000091437802780649022000F0BFFB06B044
:1035F00010BD06B003A1BDE81040022000F0B6BB2C
:103600006C8D00085B494E464F5D20205B484F4F54
:1036100043485D204B65794E616D652063616C6C3C
:103620006261636B3A206672616D65206973204E3A
:10363000554C4C0D0A00000001490860704700001D
:103640004000002070B5040003D02078411E0F29EF
:1036500001D9022070BD0B4D611D28706078687023
:10366000A078A870E078E870681DFFF791FF94F8E3
:10367000250005F8250F01206870FFF797FF00204F
:1036800070BD0000000400200EB558B14179C37927
:1036900082798DE80E00037902780649022000F055
:1036A00065FB0EBD03B004A102205DF804EB00F041
:1036B0005DBB00001C8F00085B494E464F5D20201B
:1036C0005B484F4F43485D204B6579537461747577
:1036D000732063616C6C6261636B3A206672616D2A
:1036E00065206973204E554C4C0D0A0010B518B179
:1036F00001784A1E0F2A01D9022010BD0D4C2170FD
:103700000179217141796171016A2162417904294C
:1037100006D100F10801182204F10800FCF7CDFFE2
:10372000A079401CA0710120E07100F005F8002094
:1037300010BD00002804002003480168002901D0C2
:103740000248084770470000440000202804002079
:1037500003480168002901D002480847704700006B
:10376000480000204C040020014908607047000018
:103770004400002001490860704700004800002014
:1037800010B5421E0F2A03D8012319B1012901D017
:10379000022010BD064A10701171022050719079FC
:1037A000401C9071D371FFF7D3FF002010BD0000C3
:1037B0004C04002003480168002901D00248084752
:1037C000704700004C000020700400200EB558B176
:1037D000017F837E42788DE80E00C37E0278064921
:1037E000022000F0C3FA0EBD03B004A102205DF870
:1037F00004EB00F0BBBA0000F09100085B494E46B4
:103800004F5D20205B484F4F43485D205363656EFA
:103810006544697370617463682063616C6C626194
:10382000636B3A206672616D65206973204E554C5A
:103830004C0D0A0001490860704700004C00002050
:10384000AFF3008010B5411E0F2901D9022010BD31
:103850000549012208704A70C87E401CC8760A7764
:10386000FFF7A8FF002010BD700400200348016886
:10387000002901D014300847704700005000002094
:1038800003484168002901D0143008477047000000
:10389000500000200149486070470000500000209F
:1038A000002100F001B8000010B5421E0F2A01D916
:1038B000022010BD064A107051709079401C907122
:1038C0000120D071FFF7D2FFFFF7DAFF002010BD13
:1038D00064000020014988607047000070000020EB
:1038E000AFF3008010B5431E142B01D811B90AB1F3
:1038F000022010BD044B187059605A809B6803B1B8
:103900009847002010BD00007000002003480168A7
:10391000002901D002480847704700006C000020D1
:10392000900400201FB504000FD0207A6378227E17
:10393000E17D8DE80F0022781D490220636800F0C8
:1039400015FA2078362807D010E004B019A1BDE898
:103950001040022000F00ABAA07A0090607A58B1B4
:1039600021A322A10220626800F000FA2078112829
:1039700004D0132802D00BE029A3F2E7112814D0B9
:1039800028A360680090227A28A1022000F0EEF9B6
:1039900020783A2808D1B4F8090031A143BA00933D
:1039A0000220626800F0E2F91FBD3BA3E9E70000D6
:1039B000889100085B494E464F5D20205B484F4F81
:1039C00043485D2053657474696E672063616C6C55
:1039D0006261636B3A206672616D65206973204E87
:1039E000554C4C0D0A0000004F4E00005B494E46FE
:1039F0004F5D20205B484F4F43485D204A6F67541E
:103A0000696D65206B65793D2575207377697463F1
:103A1000683D25732074696D653D2575730D0A0039
:103A20004F46460048494445000000005B494E4669
:103A30004F5D20205B484F4F43485D2050616765D4
:103A40004D677220706167653D25752061637469FB
:103A50006F6E3D25732076616C3D25750D0A000063
:103A60005B494E464F5D20205B484F4F43485D20E9
:103A70004D756C74696361737447726F7570206BF8
:103A800065793D2575206769643D30782530345867
:103A900020282575290D0A00414444000149086089
:103AA000704700006C00002010B558B101461C2280
:103AB0000548FCF702FE044901200876FFF726FFBF
:103AC000002010BD022010BD90040020FEE7000081
:103AD000134910B500208880087080211148FCF738
:103AE0001EFE11486FF02E01026811600068C16867
:103AF00041F02001C1600DA000F0FEF90CA000F023
:103B0000FBF916A000F0F8F919A000F0F5F908A0EB
:103B100000F0F2F9BDE810401DA000F0EDB9000082
:103B200000000020C8020020F00000200D0A000064
:103B30003D3D3D3D3D3D3D3D3D3D3D3D3D3D3D3DB5
:103B40003D3D3D3D3D3D3D3D3D3D3D3D3D3D3D3DA5
:103B50003D3D3D3D3D3D3D3D0D0A00002020486F6F
:103B60006F636820434C492076312E300D0A0000E7
:103B7000202054797065202768656C702720666F57
:103B80007220636F6D6D616E64730D0A000000003A
:103B9000686F6F63683E20002DE9F041012688B010
:103BA000454F464C002524E00D280CD00A280AD0A9
:103BB000082811D07F280FD0A1887F2919D27854E6
:103BC000491CA18013E0A08808B13D5426700D2047
:103BD00000F088F90A200AE0A08850B1401EA080B9
:103BE000082000F07FF9202000F07CF9082000F088
:103BF00079F96078A178884207D1207800284FD0E1
:103C00002D496A460026A84622E02B48A17880303C
:103C1000405CA178491C01F03F01A1702178002986
:103C2000E7D1C1E7491C08782028FBD00928F9D042
:103C300010F0FF0F10D042F82610761C00E0491C4F
:103C4000087848B1202801D00928F8D101F8018B63
:103C5000087808B1082EE6DB002E16DD184F002587
:103C600005EB450057F820100098FCF7A1FDD0B1F6
:103C70006D1CEDB20E2DF3D312A000F03DF90098AB
:103C800000F03AF914A000F037F9A4F8048084F8A1
:103C9000008080210848FCF742FD18A000F02CF9B4
:103CA00008B0BDE8F08105EB450007EB80006946F0
:103CB000826830469047E8E7C802002000000020F4
:103CC0000C8B00085B434C495D20556E6B6E6F7723
:103CD0006E20636D643A20000D0A5B434C495D2001
:103CE00054797065202768656C702720666F722094
:103CF000636F6D6D616E64730D0A0000686F6F63B2
:103D0000683E2000064910B54A788B78521C02F0B4
:103D10003F029A4203D0034B4C7818554A7010BDAD
:103D2000000000204803002001A1022000F01EB87E
:103D30005B494E464F5D20204C6F67206D6F647568
:103D40006C6520696E697469616C697A65642C20A0
:103D500055415254312062617564726174653A2034
:103D60003131353230300D0A000000000FB4032825
:103D700010B509D804AB4FF480710548039AFCF7DD
:103D800079FA034800F0B8F810BC5DF814FB0000A5
:103D9000C80100200D4808B5816941F0200181610A
:103DA000816901F020010091816941F00401816184
:103DB000816901F004010091816941F0080181618C
:103DC000806900F00800009008BD0000001002406B
:103DD0000C4810B50A4901604FF4E13141600021FF
:103DE00081600C22C160C0E904128161C161FEF7EB
:103DF000EBFD002803D0BDE81040FEF71CB810BD55
:103E000000380140F00000200C4810B50A4901605C
:103E10004FF416514160002181600C22C160C0E95D
:103E200004128161C161FEF7CFFD002803D0BDE817
:103E30001040FEF700B810BD0044004038010020DB
:103E40000C4810B50A4901604FF4E131416000218E
:103E500081600C22C160C0E904128161C161FEF77A
:103E6000B3FD002803D0BDE81040FDF7E4BF10BD4E
:103E70000048004080010020FEE7FEE770477047E1
:103E8000FEF752B930B58FB028216846FCF769FCBF
:103E900014210AA8FCF765FC01210804CDE90010F3
:103EA0000024029402250491CDE907504FF4E0105C
:103EB00009906846FEF7ACFA08B172B6FEE70F202B
:103EC000CDE90A054FF48060CDE90C4002210AA833
:103ED0000E94FEF7C1F9002801D072B6FEE70FB0CC
:103EE00030BD704701B56423012269460148FEF7E1
:103EF00038FE08BDF000002010B50446FCF779FB41
:103F00000204120C07D02146BDE810404FF47A732A
:103F10000148FEF726BE10BDF000002010B5406A33
:103F20000021C185C184FEF718FC10BD01680C3169
:103F300051E8002F22F4907241E80023002BF5D1C4
:103F40000168143151E8002F22F0010241E80023FA
:103F5000002BF5D1016B012909D101680C3151E821
:103F6000002F22F0100241E80023002BF5D1202180
:103F700080F8421000210163704708B590F84210A4
:103F8000222901D0022008BD82684FF480539A4252
:103F900001D1016921B1816A9A421BD04AB10AE07C
:103FA0000268816A5268C2F308020A80816A891C29
:103FB00008E0026972B10268526802F07F020A707A
:103FC000816A491C8162C18D491E0904090CC185A1
:103FD00003D01BE002685268F1E70168CA6822F06A
:103FE0002002CA600168CA6822F48072CA6001684F
:103FF0004A6922F001024A61202180F84210002122
:104000004163026B012A03D0FEF7AAFD002008BD20
:10401000016301680C3151E8002F22F0100241E8E1
:104020000023002BF5D101680A68D20602D50A6880
:1040300049680091818DFEF78FFBE7E770B5044674
:1040400000680169E26821F440511143016121696E
:10405000A0680843616908432168CA6841F20C639B
:104060009A430243CA6020684169A26921F4407101
:10407000114341611E492068884202D1FEF792F93E
:1040800001E0FEF77FF900EBC00101EB0012606870
:1040900064218000B2FBF0F3B3FBF1F36FF018067C
:1040A0007343B2FBF0F5B2FBF0F605EB8305322368
:1040B00003EB0515B5FBF1F5B6FBF1F605F0F005E0
:1040C00005EB0615B2FBF0F6B2FBF0F0B0FBF1F039
:1040D0006FF01802504306EB800003EB0010B0FBBA
:1040E000F1F0216800F00F002844886070BD0000E6
:1040F000003801402DE9F843984617460D4604461E
:10410000089E24E0701C22D0FEF708F8A0EB0800FF
:10411000B0421AD8CEB12068C168490717D5802DA2
:1041200015D0402D13D00168C94309070FD4016889
:104130000025406800902046FFF7F8FE08206064E4
:1041400084F840500120BDE8F8830320FBE7206895
:10415000006835EA000004D00020B842D2D0002028
:10416000F1E70120F9E7000010B50C4C2068016868
:10417000C943890607D44068C0B2FFF7C3FD216870
:104180006FF02000086020680168C943090704D463
:104190006FF0080101602068406810BDF000002049
:1041A00010B50B4C20680168C943890607D44068E4
:1041B000C0B204F079FC21686FF02000086020682C
:1041C0000168C943090702D46FF00801016010BDFE
:1041D000380100200148FEF7C1BA0000800100202C
:1041E000FEE7490050EAC12018BF04204A0D18BF5D
:1041F00040F0010040F2FF72B2EB515F08BF40F0A7
:104200000200012808BF052070470907090E002891
:1042100004DB00F1E02080F80014704700F00F008C
:1042200000F1E02080F8141D704700002DE9FE4FDA
:104230000D0080464FF000064FD0DFF8AC902B48C1
:10424000B8FBF9F40169A1422DD040F2B2774FF4E6
:10425000B77B4FF4B67A04610BE0384600F0D3F830
:1042600020B15C4507D3A4F5B77401E0A4F26D1446
:104270007F1C5445F1D82F801DA26F4607CA8DE8D8
:1042800007000AE0288800F0BEF808B1012E26D009
:10429000B85DA04203D8241A761C1C2CF2D2761CDE
:1042A000AE70641CEC70B8FBF9F209FB12804FF49D
:1042B0006161B0FBF1F22A71B0FBF1F201FB120374
:1042C0003C22B3FBF2F36B71B0FBF1F301FB130083
:1042D000B0FBF2F102FB1100A871BDE8FE8F1D2CAE
:1042E000DDD31D3CD8E7000080510100B000002064
:1042F0001F1C1F1E1F1E1F1F1E1F1E1F30B500224A
:10430000F8B1F1B10378012B1BD0104B85189C5CE0
:104310006D78AC4215D1521CD2B2082AF6D30C4C9F
:10432000437A227A9A420CD100231A468518521CED
:10433000AD7AD2B205EB0323042AF7D32069984261
:1043400001D0002030BD01200B6030BDC400002032
:104350002405002001B51248BDF800104078062859
:104360001DD2DFE800F01C0306090C0F0022052017
:104370000FE0002206200CE000222C2009E00022A1
:10438000272006E0684604F089FA0022BDF80010F4
:10439000432004F0D1FABDF8000004F013FB08BD7F
:1043A000B000002070B5002000F05EF8FF284FF04C
:1043B000310019D000F058F88007040E302000F0CA
:1043C00053F800F0030044EA0014002000F04CF819
:1043D0000546302000F048F800EB800005EB400077
:1043E00000F00F00204370BD00F03EF88007040E7F
:1043F000302000F039F800F0030044EA00143020C7
:1044000000F032F8ECE781070CD16421B0FBF1F247
:1044100001FB120141B94FF4C871B0FBF1F201FB8D
:10442000120008B1002070470120704738B50446DB
:104430000020ADF80000FFF7B5FF0146684604F024
:104440006DFA2246BDF800100B2004F075FABDF895
:10445000000004F0B7FA38BD30380A2801D2012034
:10446000704700207047FEE7A0F130010A2901D310
:10447000FF2070473021B0FBF1F201FB12007047C2
:1044800002004FF0000007D00021535C491CC9B264
:1044900003EB00200429F8D37047000030B595B035
:1044A0000FA0FFF729FD174D002400BF04EB4400C7
:1044B00005EB800114A24968009155F82030502185
:1044C00001A8FBF7F1FE01A8FFF716FD641CE4B29A
:1044D0000E2CEBD315B010A0BDE83040FFF70CBD9B
:1044E0000D0A3D3D3D3D3D20486F6F636820434CC4
:1044F0004920436F6D6D616E6473203D3D3D3D3DD0
:104500000D0A00000C8B00082020252D313073206F
:104510002D2025730D0A00003D3D3D3D3D3D3D3DB7
:104520003D3D3D3D3D3D3D3D3D3D3D3D3D3D3D3DBB
:104530003D3D3D3D3D3D0D0A000000001CB50C46D3
:10454000032804D00FA0FFF7D7FC19A017E0694695
:10455000606800F07EFD78B101A9A06800F08AFDD6
:1045600060B19DF804109DF80000FEF7ADFD014616
:1045700018A000F0E1FD1CBD1AA000E021A0FFF78B
:10458000BBFC1CBD5B434C495D2055736167653ABC
:10459000206D695F6272696768746E657373206B02
:1045A0006579206272696768746E6573730D0A00BD
:1045B0005B434C495D204578616D706C653A206DB8
:1045C000695F6272696768746E6573732031203841
:1045D000300D0A006D695F6272696768746E657399
:1045E000730000005B434C495D20496E76616C6945
:1045F00064206B65792C2075736520317E380D0A37
:10460000000000005B434C495D20496E76616C6997
:1046100064206272696768746E6573732C207573A9
:104620006520307E3235350D0A00000010B59EB091
:104630000C46032804D020A0FFF75EFC29A035E03B
:104640001CA9606800F005FD88B1A468002C31D079
:10465000002269462046FBF793FF2178002929D0E4
:104660000099002926D00978002923D101E026A04D
:104670001CE0B0F5803F1DD281B29DF87000FEF7BE
:1046800039FD014628A000F057FDFEF7BFFC0028C9
:104690000ED0C188047BC37A827A8DE81E0003782D
:1046A00025A2602104A8FBF7FFFD04A8FFF724FC66
:1046B0001EB010BD2EA0F9E75B434C495D20557339
:1046C0006167653A206D695F636F6C6F725F7465D7
:1046D0006D70206B657920636F6C6F725F74656DB0
:1046E000700D0A005B434C495D204578616D706C2C
:1046F000653A206D695F636F6C6F725F74656D7092
:1047000020312035300D0A005B434C495D20496E55
:1047100076616C6964206B65792C20757365203136
:104720007E380D0A000000006D695F636F6C6F7268
:104730005F74656D700000005B434C495D206672DC
:10474000616D653A206B65793D2575206374656DF3
:10475000703D2575206974656D3D25752073657103
:104760003D25752076616C69643D25750D0A000054
:104770005B434C495D20496E76616C696420636FD0
:104780006C6F725F74656D702C2075736520307E60
:1047900036353533350D0A001CB50C46032804D0D8
:1047A0000FA0FFF7A9FB19A017E06946606800F0A9
:1047B0003FFC78B101A9A06800F05CFC60B19DF8F5
:1047C00004109DF80000FEF7D3FB014619A000F08D
:1047D00067FC1CBD1CA000E023A0FFF78DFB1CBDE7
:1047E0005B434C495D2055736167653A206D695F95
:1047F0006375727461696E5F616E676C65206B656D
:104800007920616E676C650D0A0000005B434C49BE
:104810005D204578616D706C653A206D695F6375E8
:10482000727461696E5F616E676C6520312035302E
:104830000D0A00006D695F6375727461696E5F6176
:104840006E676C65000000005B434C495D20496E5B
:1048500076616C6964206B65792C207573652031F5
:104860007E380D0A000000005B434C495D20496E14
:1048700076616C696420616E676C652C2075736568
:1048800020307E3235350D0A000000001CB50C4684
:10489000032804D00FA0FFF72FFB1AA017E06946EA
:1048A000606800F0C5FB78B101A9A06800F0E2FBE8
:1048B00060B19DF804109DF80000FEF75BFB014617
:1048C0001BA000F0EDFB1CBD1EA000E025A0FFF723
:1048D00013FB1CBD5B434C495D2055736167653A12
:1048E000206D695F6375727461696E5F7065726374
:1048F000656E74206B65792070657263656E740DEA
:104900000A0000005B434C495D204578616D706C86
:10491000653A206D695F6375727461696E5F706579
:104920007263656E7420312038300D0A000000007B
:104930006D695F6375727461696E5F7065726365DE
:104940006E7400005B434C495D20496E76616C6972
:1049500064206B65792C2075736520317E380D0AD3
:10496000000000005B434C495D20496E76616C6934
:10497000642070657263656E742C207573652030D9
:104980007E3235350D0A00001CB50C46032804D0D4
:104990000FA0FFF7B1FA19A017E06946606800F0B0
:1049A00047FB78B101A9A06800F064FB60B19DF8F5
:1049B00004109DF80000FEF7DFFA014619A000F090
:1049C0006FFB1CBD1BA000E022A0FFF795FA1CBDE9
:1049D0005B434C495D2055736167653A206D695FA3
:1049E0006375727461696E5F73746F70206B657943
:1049F0002076616C75650D0A000000005B434C4930
:104A00005D204578616D706C653A206D695F6375F6
:104A1000727461696E5F73746F70203120310D0A9A
:104A2000000000006D695F6375727461696E5F7389
:104A3000746F70005B434C495D20496E76616C6910
:104A400064206B65792C2075736520317E380D0AE2
:104A5000000000005B434C495D20496E76616C6943
:104A6000642076616C75652C2075736520307E320C
:104A700035350D0A000000001CB50C46032804D093
:104A80000FA0FFF739FA19A017E06946606800F037
:104A9000CFFA78B101A9A06800F0ECFA60B19DF8F6
:104AA00004109DF80000FEF769FA014619A000F015
:104AB000F7FA1CBD1CA000E023A0FFF71DFA1CBDE7
:104AC0005B434C495D2055736167653A206D695FB2
:104AD0006375727461696E5F737769746368206B64
:104AE00065792076616C75650D0A00005B434C4961
:104AF0005D204578616D706C653A206D695F637506
:104B0000727461696E5F73776974636820312031F4
:104B10000D0A00006D695F6375727461696E5F7381
:104B200077697463680000005B434C495D20496EFF
:104B300076616C6964206B65792C20757365203112
:104B40007E380D0A000000005B434C495D20496E31
:104B500076616C69642076616C75652C207573656F
:104B600020307E3235350D0A0000000010B50022DD
:104B700011460B20FEF7B4FE0146BDE8104001A02F
:104B800000F0C6BB6D695F6765745F7765617468C7
:104B90006572000008B5022801D00AA00FE048683D
:104BA000694600F067FA48B1012269460920FEF71C
:104BB00097FE01460FA000F0ABFB08BD12A0FFF767
:104BC0009BF908BD5B434C495D2055736167653AAD
:104BD000206D695F68756D616E5F70726573656E7B
:104BE0006365203C73746174653A307C313E0D0A14
:104BF000000000006D695F68756D616E5F707265C1
:104C000073656E63650000005B434C495D20496E2F
:104C100076616C69642073746174652C20757365AA
:104C20002030206F7220310D0A00000038B50D468B
:104C3000032804D013A0FFF75FF91CA01EE069460B
:104C4000686800F017FAB0B19DF800409CB1102CD4
:104C500011D86946A86800F00DFA70B19DF80010EF
:104C600001290AD82046FEF78BFDBDE838400146F1
:104C700017A000F0B1BA1AA000E021A0BDE83840AA
:104C8000FFF73AB95B434C495D2055736167653A5C
:104C9000206D695F6B65795F737461747573206BE8
:104CA00065792073746174650D0A00005B434C499B
:104CB0005D204578616D706C653A206D695F6B654C
:104CC000795F737461747573203120310D0A0000AF
:104CD0006D695F6B65795F73746174757300000053
:104CE0005B434C495D20496E76616C6964206B655D
:104CF000792C2075736520317E380D0A0000000084
:104D00005B434C495D20496E76616C696420737425
:104D10006174652C207573652030286F66662920C4
:104D20006F722031286F6E290D0A000008B5022825
:104D300004D00DA0FFF7E0F814A00AE04868694627
:104D400000F098F920B19DF8000008B1082803D9B7
:104D500017A0FFF7D1F808BDFEF7A2FD01461CA081
:104D600000F090FA08BD00005B434C495D2055738C
:104D70006167653A206D695F7363656E655F726533
:104D8000706F7274206B65790D0A00005B434C49AB
:104D90005D204578616D706C653A206D695F736365
:104DA000656E655F7265706F727420310D0A000068
:104DB0005B434C495D20496E76616C6964206B658C
:104DC000792C2075736520317E380D0A00000000B3
:104DD0006D695F7363656E655F7265706F72740095
:104DE0007CB50E460446022809D0032C07D016A035
:104DF000FFF782F820A0FFF77FF8294820E001A9FB
:104E0000706800F037F948B19DF8045035B1152DA0
:104E100004D200210A46032C02D008E021A00FE0B2
:104E20006946B06800F026F948B169460122284673
:104E3000FEF756FD014623A000F06AFA7CBD26A0CD
:104E4000FFF75AF87CBD00005B434C495D20557369
:104E50006167653A206D695F73657474696E675F39
:104E60007265706F7274206576656E74205B766112
:104E70006C75655D0D0A00005B434C495D2045780B
:104E8000616D706C653A206D695F73657474696EED
:104E9000675F7265706F7274203820310D0A0000F0
:104EA000449200085B434C495D20496E76616C6911
:104EB00064206576656E742C2075736520317E32B2
:104EC000300D0A006D695F73657474696E675F7297
:104ED00065706F72740000005B434C495D20496E41
:104EE00076616C69642076616C75652C20757365DC
:104EF00020307E3235350D0A000000001CB50C460E
:104F0000032804D010A0FEF7F7FF18A019E06946A7
:104F1000606800F09EF888B101A9A06800F0AAF8C6
:104F200070B19DF8041001290AD89DF80000FEF721
:104F3000F7F8014615A000F0FFF81CBD16A000E030
:104F40001DA0FEF7D9FF1CBD5B434C495D20557386
:104F50006167653A206D695F737769746368206B78
:104F600065792073746174650D0A00005B434C49D8
:104F70005D204578616D706C653A206D695F73776F
:104F800069746368203120310D0A00006D695F7318
:104F900077697463680000005B434C495D20496E8B
:104FA00076616C6964206B65792C2075736520319E
:104FB0007E380D0A000000005B434C495D20496EBD
:104FC00076616C69642073746174652C20757365F7
:104FD0002030286F666629206F722031286F6E2975
:104FE0000D0A000009A0FEF787FF6420FCF794FF7C
:104FF000BFF34F8F0C4801680C4A01F4E061114384
:105000000160BFF34F8F00BFFDE700005B434C49D9
:105010005D2053797374656D207265626F6F74697A
:105020006E672E2E2E0D0A000CED00E00400FA052E
:1050300038B50C46694600F01DF8002805D09DF8EB
:10504000000008B1102801D9002038BD20700120CF
:1050500038BD38B50C46694600F00CF8002805D07C
:105060009DF8000008B1102801D9002038BD20703B
:10507000012038BD38B50C4605000CD05CB10022CB
:105080006946FBF77DFA297829B1009919B10978A9
:1050900009B9FF2801D9002038BD2070012038BD92
:1050A00010B59AB00C460346009109A2602101A8F0
:1050B000FBF7FAF801A8FEF71FFF2CB10AA10020A8
:1050C000FEF754FE1AB010BD11A10220F8E700004F
:1050D0005B434C495D20257320726573756C743A8F
:1050E0002025750D0A0000005B4552524F525D208D
:1050F0005B434C495D204375727461696E20636F38
:105100006D6D616E64206661696C65640D0A0000F6
:105110005B494E464F5D20205B434C495D20437503
:10512000727461696E20636F6D6D616E642073656A
:105130006E740D0A0000000010B59AB00C460346CC
:10514000009109A2602101A8FBF7AEF801A8FEF7C3
:10515000D3FE2CB10AA10020FEF708FE1AB010BD44
:1051600012A10220F8E700005B434C495D20257343
:1051700020726573756C743A2025750D0A00000065
:105180005B4552524F525D205B434C495D20446960
:105190006D6D6572206C6967687420636F6D6D61F9
:1051A0006E64206661696C65640D0A005B494E4659
:1051B0004F5D20205B434C495D2044696D6D6572F5
:1051C000206C6967687420636F6D6D616E64207315
:1051D000656E740D0A00000010B59AB00C460346C7
:1051E000009109A2602101A8FBF75EF801A8FEF773
:1051F00083FE2CB10AA10020FEF7B8FD1AB010BD45
:1052000014A10220F8E700005B434C495D202573A0
:1052100020726573756C743A2025750D0A000000C4
:105220005B4552524F525D205B434C495D204B65BC
:105230007920737461747573207265706F72742055
:10524000636F6D6D616E64206661696C65640D0AE3
:10525000000000005B494E464F5D20205B434C49F7
:105260005D204B657920737461747573207265706D
:105270006F727420636F6D6D616E642073656E7400
:105280000D0A000010B59AB00C4603460091094A79
:10529000602101A8FBF708F801A8FEF72DFE2CB14C
:1052A00005A10020FEF762FD1AB010BD0DA102207D
:1052B000F8E70000085200085B4552524F525D204B
:1052C0005B434C495D205363656E65207265706F6A
:1052D000727420636F6D6D616E64206661696C65C8
:1052E000640D0A005B494E464F5D20205B434C49EC
:1052F0005D205363656E65207265706F7274206304
:105300006F6D6D616E642073656E740D0A00000030
:1053100010B59AB00C460346009109A2602101A87D
:10532000FAF7C2FF01A8FEF7E7FD2CB10AA10020A1
:10533000FEF71CFD1AB010BD13A10220F8E7000013
:105340005B434C495D20257320726573756C743A1C
:105350002025750D0A0000005B4552524F525D201A
:105360005B434C495D2053657474696E67207265B8
:10537000706F727420636F6D6D616E642066616919
:105380006C65640D0A0000005B494E464F5D2020AD
:105390005B434C495D2053657474696E6720726588
:1053A000706F727420636F6D6D616E642073656ED3
:1053B000740D0A0030B58BB000240E9D8DF80410DA
:1053C0008DF805208DF80C008DF825408DF80040F3
:1053D0008DF80630ADF808508DF826406846FDF788
:1053E00011FC0BB030BD00B58BB000238DF804105C
:1053F000ADF808308DF805308DF80A008DF80030D2
:10540000ADF806208DF823308DF824306846FDF77E
:10541000A3FE0BB000BD10B58AB000248DF80410B7
:105420008DF805208DF806308DF808008DF82140A4
:105430008DF800408DF807408DF822406846FDF752
:1054400065FF0AB010BD000010B50A4B002200BF76
:1054500013F81240844206D103EB420040788842A0
:1054600005D1012010BD521CD2B22D2AF0D300204C
:1054700010BD0000E08B00082DE9F04114460D003E
:10548000074609D002F014FE02462346EFA102208F
:10549000FEF76CFC002609E00020BDE8F081AA5D63
:1054A000F4A10220FEF762FC761CB6B2A642F6D347
:1054B000F4A10220FEF75AFC384600260127822874
:1054C0006FD032DC1B286DD016DC06286BD006DCD2
:1054D000062864D2DFE800F063445268798D18280A
:1054E00070D004DC07286ED0082858D1ACE0192809
:1054F0006AD01A2853D1D2E06A2874D00CDC65280F
:1055000072D004DC1C2870D01D2848D1F1E0662838
:105510006CD0692843D116E1742868D07B2867D005
:105520007C2874D07D283AD161E18338162836D2A0
:10553000DFE810F079018901680272027C028602BC
:1055400090029F02AE02B802C202CC02D602E00272
:10555000EF02F90208031403230334033500250185
:105560002846214601F032F904460346C8A2CAA1E2
:105570000220FEF7FBFB214601201DE328462146C1
:1055800001F024F904460346CFA2C3A10220FEF78E
:10559000EDFB214602200FE3012871D0344620465E
:1055A0007BE732E189E033E02846214601F00EF93D
:1055B00004460346C6A2B8A10220FEF7D7FB214647
:1055C0000320F9E24EE031E05BE02846214601F09D
:1055D000FDF804460346C0A2AFA10220FEF7C6FBB9
:1055E00021460420E8E2BCE091E074E09DE0D4E0D4
:1055F000E1E02846214601F0E9F804460346B8A256
:10560000A5A10220FEF7B2FB21460520D4E2E0E08E
:105610002846214601F0DAF804460346B2A29EA1CC
:105620000220FEF7A3FB21460620C5E228462146BC
:1056300001F0CCF804460346ADA297A10220FEF784
:1056400095FB21460720B7E22846214601F0BEF827
:1056500004460346A8A290A10220FEF787FB21463C
:105660000820A9E22846214601F0ACF8044603468A
:10567000A3A289A10220FEF779FB214618208AE225
:105680009DE22846214601F09DF8044603469FA26C
:1056900081A10220FEF76AFB214619207BE2284601
:1056A000214601F08FF8044603469BA27AA102200E
:1056B000FEF75CFB21461A206DE22846214601F0E8
:1056C00081F80446034697A273A10220FEF74EFB21
:1056D00021461B205FE22846214601F073F804466C
:1056E000034693A26CA10220FEF740FB21461C203A
:1056F00051E22846214601F065F8044603468FA290
:1057000065A10220FEF732FB21461D2043E2284618
:10571000214601F05BF8044603468BA25EA10220FD
:10572000FEF724FB2146652046E22846214601F08B
:105730004DF80446034688A257A10220FEF716FB47
:105740002146662038E22846214601F03FF804460B
:10575000034685A250A10220FEF708FB21466920DE
:105760002AE22846214601F035F80446034680A285
:1057700049A10220FEF7FAFA21466A2060E0284695
:10578000214601F01FF8044603467CA242A10220F4
:10579000FEF7ECFA21469820FDE12846214601F06B
:1057A00015F80446034678A23BA10220FEF7DEFA74
:1057B0002146742000E22846214601F007F80446FD
:1057C000034674A234A10220FEF7D0FA21467B20C2
:1057D000F2E12846214600F0F9FF0446034672A292
:1057E0002DA10220FEF7C2FA21467C20E4E12846E2
:1057F000214600F0E7FF0446034670A226A10220DE
:10580000FEF7B4FA21467D20C5E12846214600F086
:10581000D9FF044603466EA21FA10220FEF7A6FA96
:1058200021468220B7E12846214600F0D3FF0446F6
:1058300003466AA218A10220FEF798FA21468320A7
:1058400000F093FFA8E6234667A2D3E05B494E46EB
:105850004F5D20205B547579615D2044505F484165
:105860004E444C453A20257320646174615B257574
:105870005D3D00005B494E464F5D2020253032588B
:10588000200000005B494E464F5D20200D0A0000BD
:105890005343454E455F31005B494E464F5D2020E6
:1058A0005B547579615D2044505F48414E444C45DE
:1058B0005F524553554C543A2025732076616C3D18
:1058C00025750D0A000000005343454E455F320028
:1058D0005343454E455F33005343454E455F3400C7
:1058E0005343454E455F35005343454E455F3600B3
:1058F0005343454E455F37005343454E455F38009F
:105900005357495443485F310000000053574954EE
:1059100043485F32000000005357495443485F3307
:10592000000000005357495443485F340000000012
:105930005357495443485F350000000053574954BA
:1059400043485F360000000046414E5F44495245DF
:105950004354494F4E00000046414E5F5350454569
:10596000445F454E554D00004D4F4445000000003A
:1059700054454D505F534554000000004149525F6B
:1059800053574954434800004C4F4F505F4D4F44CC
:1059900045000000535550504C595F46414E5F53EF
:1059A0005045454400000000455848415553545F58
:1059B00046414E5F53504545440000004652455312
:1059C000485F4149525F5357495443480000000023
:1059D000464C4F4F525F535700000000464C4F4F0C
:1059E000525F54454D500000484541545F4C494D6D
:1059F0004954000073A10220FEF7B8F92246294657
:105A00008420A8E023467CA26EA10220FEF7AEF916
:105A10002246294685209EE023467AA269A10220DB
:105A2000FEF7A4F922462946862094E0234677A271
:105A300064A10220FEF79AF92246294687208AE0CF
:105A4000234675A25FA10220FEF790F9224629465F
:105A5000882080E02846214600F0B4FE0446034634
:105A600070A2AFF2CC110220FEF780F92146892006
:105A700091E02846214600F0A5FE044603466CA2AC
:105A8000AFF2EC110220FEF771F921468A2082E084
:105A900023466AA24BA10220FEF768F92246294656
:105AA0008B2058E0234668A246A10220FEF75EF94B
:105AB000224629468C204EE0234666A241A10220C0
:105AC000FEF754F9224629468D2044E0234664A27D
:105AD0003CA10220FEF74AF9224629468E203AE0F0
